{
  "_format": "hh-sol-artifact-1",
  "contractName": "AgentRegistry",
  "sourceName": "contracts/components/agents/AgentRegistry.sol",
  "abi": [
    {
      "inputs": [],
      "stateMutability": "nonpayable",
      "type": "constructor"
    },
    {
      "anonymous": false,
      "inputs": [
        {
          "indexed": true,
          "internalType": "address",
          "name": "newAddressManager",
          "type": "address"
        }
      ],
      "name": "AccessManagerUpdated",
      "type": "event"
    },
    {
      "anonymous": false,
      "inputs": [
        {
          "indexed": false,
          "internalType": "address",
          "name": "previousAdmin",
          "type": "address"
        },
        {
          "indexed": false,
          "internalType": "address",
          "name": "newAdmin",
          "type": "address"
        }
      ],
      "name": "AdminChanged",
      "type": "event"
    },
    {
      "anonymous": false,
      "inputs": [
        {
          "indexed": true,
          "internalType": "bytes32",
          "name": "commit",
          "type": "bytes32"
        }
      ],
      "name": "AgentCommitted",
      "type": "event"
    },
    {
      "anonymous": false,
      "inputs": [
        {
          "indexed": true,
          "internalType": "uint256",
          "name": "agentId",
          "type": "uint256"
        },
        {
          "indexed": false,
          "internalType": "enum AgentRegistryEnable.Permission",
          "name": "permission",
          "type": "uint8"
        },
        {
          "indexed": false,
          "internalType": "bool",
          "name": "enabled",
          "type": "bool"
        }
      ],
      "name": "AgentEnabled",
      "type": "event"
    },
    {
      "anonymous": false,
      "inputs": [
        {
          "indexed": true,
          "internalType": "uint256",
          "name": "agentId",
          "type": "uint256"
        },
        {
          "indexed": false,
          "internalType": "string",
          "name": "metadata",
          "type": "string"
        },
        {
          "indexed": false,
          "internalType": "uint256[]",
          "name": "chainIds",
          "type": "uint256[]"
        }
      ],
      "name": "AgentUpdated",
      "type": "event"
    },
    {
      "anonymous": false,
      "inputs": [
        {
          "indexed": true,
          "internalType": "address",
          "name": "owner",
          "type": "address"
        },
        {
          "indexed": true,
          "internalType": "address",
          "name": "approved",
          "type": "address"
        },
        {
          "indexed": true,
          "internalType": "uint256",
          "name": "tokenId",
          "type": "uint256"
        }
      ],
      "name": "Approval",
      "type": "event"
    },
    {
      "anonymous": false,
      "inputs": [
        {
          "indexed": true,
          "internalType": "address",
          "name": "owner",
          "type": "address"
        },
        {
          "indexed": true,
          "internalType": "address",
          "name": "operator",
          "type": "address"
        },
        {
          "indexed": false,
          "internalType": "bool",
          "name": "approved",
          "type": "bool"
        }
      ],
      "name": "ApprovalForAll",
      "type": "event"
    },
    {
      "anonymous": false,
      "inputs": [
        {
          "indexed": true,
          "internalType": "address",
          "name": "beacon",
          "type": "address"
        }
      ],
      "name": "BeaconUpgraded",
      "type": "event"
    },
    {
      "anonymous": false,
      "inputs": [
        {
          "indexed": true,
          "internalType": "address",
          "name": "router",
          "type": "address"
        }
      ],
      "name": "RouterUpdated",
      "type": "event"
    },
    {
      "anonymous": false,
      "inputs": [
        {
          "indexed": true,
          "internalType": "address",
          "name": "from",
          "type": "address"
        },
        {
          "indexed": true,
          "internalType": "address",
          "name": "to",
          "type": "address"
        },
        {
          "indexed": true,
          "internalType": "uint256",
          "name": "tokenId",
          "type": "uint256"
        }
      ],
      "name": "Transfer",
      "type": "event"
    },
    {
      "anonymous": false,
      "inputs": [
        {
          "indexed": true,
          "internalType": "address",
          "name": "implementation",
          "type": "address"
        }
      ],
      "name": "Upgraded",
      "type": "event"
    },
    {
      "inputs": [],
      "name": "DEFAULT_ADMIN_ROLE",
      "outputs": [
        {
          "internalType": "bytes32",
          "name": "",
          "type": "bytes32"
        }
      ],
      "stateMutability": "view",
      "type": "function"
    },
    {
      "inputs": [
        {
          "internalType": "address",
          "name": "to",
          "type": "address"
        },
        {
          "internalType": "uint256",
          "name": "tokenId",
          "type": "uint256"
        }
      ],
      "name": "approve",
      "outputs": [],
      "stateMutability": "nonpayable",
      "type": "function"
    },
    {
      "inputs": [
        {
          "internalType": "address",
          "name": "owner",
          "type": "address"
        }
      ],
      "name": "balanceOf",
      "outputs": [
        {
          "internalType": "uint256",
          "name": "",
          "type": "uint256"
        }
      ],
      "stateMutability": "view",
      "type": "function"
    },
    {
      "inputs": [
        {
          "internalType": "uint256",
          "name": "agentId",
          "type": "uint256"
        },
        {
          "internalType": "address",
          "name": "owner",
          "type": "address"
        },
        {
          "internalType": "string",
          "name": "metadata",
          "type": "string"
        },
        {
          "internalType": "uint256[]",
          "name": "chainIds",
          "type": "uint256[]"
        }
      ],
      "name": "createAgent",
      "outputs": [],
      "stateMutability": "nonpayable",
      "type": "function"
    },
    {
      "inputs": [
        {
          "internalType": "uint256",
          "name": "agentId",
          "type": "uint256"
        },
        {
          "internalType": "enum AgentRegistryEnable.Permission",
          "name": "permission",
          "type": "uint8"
        }
      ],
      "name": "disableAgent",
      "outputs": [],
      "stateMutability": "nonpayable",
      "type": "function"
    },
    {
      "inputs": [
        {
          "internalType": "uint256",
          "name": "agentId",
          "type": "uint256"
        },
        {
          "internalType": "enum AgentRegistryEnable.Permission",
          "name": "permission",
          "type": "uint8"
        }
      ],
      "name": "enableAgent",
      "outputs": [],
      "stateMutability": "nonpayable",
      "type": "function"
    },
    {
      "inputs": [
        {
          "internalType": "uint256",
          "name": "agentId",
          "type": "uint256"
        }
      ],
      "name": "getAgent",
      "outputs": [
        {
          "internalType": "uint256",
          "name": "version",
          "type": "uint256"
        },
        {
          "internalType": "string",
          "name": "metadata",
          "type": "string"
        },
        {
          "internalType": "uint256[]",
          "name": "chainIds",
          "type": "uint256[]"
        }
      ],
      "stateMutability": "view",
      "type": "function"
    },
    {
      "inputs": [
        {
          "internalType": "uint256",
          "name": "chainId",
          "type": "uint256"
        },
        {
          "internalType": "uint256",
          "name": "index",
          "type": "uint256"
        }
      ],
      "name": "getAgentByChainAndIndex",
      "outputs": [
        {
          "internalType": "uint256",
          "name": "",
          "type": "uint256"
        }
      ],
      "stateMutability": "view",
      "type": "function"
    },
    {
      "inputs": [
        {
          "internalType": "uint256",
          "name": "index",
          "type": "uint256"
        }
      ],
      "name": "getAgentByIndex",
      "outputs": [
        {
          "internalType": "uint256",
          "name": "",
          "type": "uint256"
        }
      ],
      "stateMutability": "view",
      "type": "function"
    },
    {
      "inputs": [],
      "name": "getAgentCount",
      "outputs": [
        {
          "internalType": "uint256",
          "name": "",
          "type": "uint256"
        }
      ],
      "stateMutability": "view",
      "type": "function"
    },
    {
      "inputs": [
        {
          "internalType": "uint256",
          "name": "chainId",
          "type": "uint256"
        }
      ],
      "name": "getAgentCountByChain",
      "outputs": [
        {
          "internalType": "uint256",
          "name": "",
          "type": "uint256"
        }
      ],
      "stateMutability": "view",
      "type": "function"
    },
    {
      "inputs": [
        {
          "internalType": "uint256",
          "name": "tokenId",
          "type": "uint256"
        }
      ],
      "name": "getApproved",
      "outputs": [
        {
          "internalType": "address",
          "name": "",
          "type": "address"
        }
      ],
      "stateMutability": "view",
      "type": "function"
    },
    {
      "inputs": [
        {
          "internalType": "address",
          "name": "__manager",
          "type": "address"
        },
        {
          "internalType": "address",
          "name": "__router",
          "type": "address"
        },
        {
          "internalType": "string",
          "name": "__name",
          "type": "string"
        },
        {
          "internalType": "string",
          "name": "__symbol",
          "type": "string"
        }
      ],
      "name": "initialize",
      "outputs": [],
      "stateMutability": "nonpayable",
      "type": "function"
    },
    {
      "inputs": [
        {
          "internalType": "address",
          "name": "owner",
          "type": "address"
        },
        {
          "internalType": "address",
          "name": "operator",
          "type": "address"
        }
      ],
      "name": "isApprovedForAll",
      "outputs": [
        {
          "internalType": "bool",
          "name": "",
          "type": "bool"
        }
      ],
      "stateMutability": "view",
      "type": "function"
    },
    {
      "inputs": [
        {
          "internalType": "uint256",
          "name": "agentId",
          "type": "uint256"
        }
      ],
      "name": "isEnabled",
      "outputs": [
        {
          "internalType": "bool",
          "name": "",
          "type": "bool"
        }
      ],
      "stateMutability": "view",
      "type": "function"
    },
    {
      "inputs": [
        {
          "internalType": "bytes[]",
          "name": "data",
          "type": "bytes[]"
        }
      ],
      "name": "multicall",
      "outputs": [
        {
          "internalType": "bytes[]",
          "name": "results",
          "type": "bytes[]"
        }
      ],
      "stateMutability": "nonpayable",
      "type": "function"
    },
    {
      "inputs": [],
      "name": "name",
      "outputs": [
        {
          "internalType": "string",
          "name": "",
          "type": "string"
        }
      ],
      "stateMutability": "view",
      "type": "function"
    },
    {
      "inputs": [
        {
          "internalType": "uint256",
          "name": "tokenId",
          "type": "uint256"
        }
      ],
      "name": "ownerOf",
      "outputs": [
        {
          "internalType": "address",
          "name": "",
          "type": "address"
        }
      ],
      "stateMutability": "view",
      "type": "function"
    },
    {
      "inputs": [
        {
          "internalType": "bytes32",
          "name": "commit",
          "type": "bytes32"
        }
      ],
      "name": "prepareAgent",
      "outputs": [],
      "stateMutability": "nonpayable",
      "type": "function"
    },
    {
      "inputs": [
        {
          "internalType": "address",
          "name": "from",
          "type": "address"
        },
        {
          "internalType": "address",
          "name": "to",
          "type": "address"
        },
        {
          "internalType": "uint256",
          "name": "tokenId",
          "type": "uint256"
        }
      ],
      "name": "safeTransferFrom",
      "outputs": [],
      "stateMutability": "nonpayable",
      "type": "function"
    },
    {
      "inputs": [
        {
          "internalType": "address",
          "name": "from",
          "type": "address"
        },
        {
          "internalType": "address",
          "name": "to",
          "type": "address"
        },
        {
          "internalType": "uint256",
          "name": "tokenId",
          "type": "uint256"
        },
        {
          "internalType": "bytes",
          "name": "_data",
          "type": "bytes"
        }
      ],
      "name": "safeTransferFrom",
      "outputs": [],
      "stateMutability": "nonpayable",
      "type": "function"
    },
    {
      "inputs": [
        {
          "internalType": "address",
          "name": "newManager",
          "type": "address"
        }
      ],
      "name": "setAccessManager",
      "outputs": [],
      "stateMutability": "nonpayable",
      "type": "function"
    },
    {
      "inputs": [
        {
          "internalType": "address",
          "name": "operator",
          "type": "address"
        },
        {
          "internalType": "bool",
          "name": "approved",
          "type": "bool"
        }
      ],
      "name": "setApprovalForAll",
      "outputs": [],
      "stateMutability": "nonpayable",
      "type": "function"
    },
    {
      "inputs": [
        {
          "internalType": "address",
          "name": "ensRegistry",
          "type": "address"
        },
        {
          "internalType": "string",
          "name": "ensName",
          "type": "string"
        }
      ],
      "name": "setName",
      "outputs": [],
      "stateMutability": "nonpayable",
      "type": "function"
    },
    {
      "inputs": [
        {
          "internalType": "address",
          "name": "newRouter",
          "type": "address"
        }
      ],
      "name": "setRouter",
      "outputs": [],
      "stateMutability": "nonpayable",
      "type": "function"
    },
    {
      "inputs": [
        {
          "internalType": "bytes4",
          "name": "interfaceId",
          "type": "bytes4"
        }
      ],
      "name": "supportsInterface",
      "outputs": [
        {
          "internalType": "bool",
          "name": "",
          "type": "bool"
        }
      ],
      "stateMutability": "view",
      "type": "function"
    },
    {
      "inputs": [],
      "name": "symbol",
      "outputs": [
        {
          "internalType": "string",
          "name": "",
          "type": "string"
        }
      ],
      "stateMutability": "view",
      "type": "function"
    },
    {
      "inputs": [
        {
          "internalType": "uint256",
          "name": "tokenId",
          "type": "uint256"
        }
      ],
      "name": "tokenURI",
      "outputs": [
        {
          "internalType": "string",
          "name": "",
          "type": "string"
        }
      ],
      "stateMutability": "view",
      "type": "function"
    },
    {
      "inputs": [
        {
          "internalType": "address",
          "name": "from",
          "type": "address"
        },
        {
          "internalType": "address",
          "name": "to",
          "type": "address"
        },
        {
          "internalType": "uint256",
          "name": "tokenId",
          "type": "uint256"
        }
      ],
      "name": "transferFrom",
      "outputs": [],
      "stateMutability": "nonpayable",
      "type": "function"
    },
    {
      "inputs": [
        {
          "internalType": "uint256",
          "name": "agentId",
          "type": "uint256"
        },
        {
          "internalType": "string",
          "name": "metadata",
          "type": "string"
        },
        {
          "internalType": "uint256[]",
          "name": "chainIds",
          "type": "uint256[]"
        }
      ],
      "name": "updateAgent",
      "outputs": [],
      "stateMutability": "nonpayable",
      "type": "function"
    },
    {
      "inputs": [
        {
          "internalType": "address",
          "name": "newImplementation",
          "type": "address"
        }
      ],
      "name": "upgradeTo",
      "outputs": [],
      "stateMutability": "nonpayable",
      "type": "function"
    },
    {
      "inputs": [
        {
          "internalType": "address",
          "name": "newImplementation",
          "type": "address"
        },
        {
          "internalType": "bytes",
          "name": "data",
          "type": "bytes"
        }
      ],
      "name": "upgradeToAndCall",
      "outputs": [],
      "stateMutability": "payable",
      "type": "function"
    }
  ],
  "bytecode": "0x60a06040523060601b6080523480156200001857600080fd5b50600054610100900460ff168062000033575060005460ff16155b6200009b5760405162461bcd60e51b815260206004820152602e60248201527f496e697469616c697a61626c653a20636f6e747261637420697320616c72656160448201526d191e481a5b9a5d1a585b1a5e995960921b606482015260840160405180910390fd5b600054610100900460ff16158015620000be576000805461ffff19166101011790555b8015620000d1576000805461ff00191690555b5060805160601c61430c6200010660003960008181610dc201528181610e4701528181610f590152610fde015261430c6000f3fe6080604052600436106101e35760003560e01c80638eea276f11610102578063ac9650d811610095578063c87b56dd11610064578063c87b56dd146105af578063c9580804146105cf578063d0c6464b146105ef578063e985e9c51461060f57600080fd5b8063ac9650d814610508578063b88d4fde14610535578063c0d7865514610555578063c783034c1461057557600080fd5b8063a22cb465116100d1578063a22cb46514610488578063a8439d98146104a8578063aa9ac6c6146104c8578063ac388ff5146104e857600080fd5b80638eea276f1461042957806391cab63e1461044957806395d89b411461045e578063a217fddf1461047357600080fd5b80633121db1c1161017a5780636352211e116101495780636352211e1461039b57806370a08231146103bb5780637935d5b4146103e957806389432d401461040957600080fd5b80633121db1c146103285780633659cfe61461034857806342842e0e146103685780634f1ef2861461038857600080fd5b80632016a0d2116101b65780632016a0d21461029957806321095d65146102b957806323b872dd146102d95780632de5aaf7146102f957600080fd5b806301ffc9a7146101e857806306fdde031461021d578063081812fc1461023f578063095ea7b314610277575b600080fd5b3480156101f457600080fd5b50610208610203366004613c00565b610659565b60405190151581526020015b60405180910390f35b34801561022957600080fd5b506102326106f6565b6040516102149190613f9b565b34801561024b57600080fd5b5061025f61025a366004613bce565b610789565b6040516001600160a01b039091168152602001610214565b34801561028357600080fd5b50610297610292366004613b43565b610825565b005b3480156102a557600080fd5b506102976102b436600461392e565b610957565b3480156102c557600080fd5b506102976102d4366004613cb4565b610a9d565b3480156102e557600080fd5b506102976102f43660046139c3565b610b9b565b34801561030557600080fd5b50610319610314366004613bce565b610c22565b60405161021493929190614077565b34801561033457600080fd5b50610297610343366004613aee565b610d30565b34801561035457600080fd5b506102976103633660046138bb565b610db7565b34801561037457600080fd5b506102976103833660046139c3565b610f33565b610297610396366004613a9e565b610f4e565b3480156103a757600080fd5b5061025f6103b6366004613bce565b6110b7565b3480156103c757600080fd5b506103db6103d63660046138bb565b611143565b604051908152602001610214565b3480156103f557600080fd5b50610297610404366004613c3a565b6111de565b34801561041557600080fd5b506103db610424366004613bce565b6113e6565b34801561043557600080fd5b506103db610444366004613bce565b6113f4565b34801561045557600080fd5b506103db61140c565b34801561046a57600080fd5b5061023261141e565b34801561047f57600080fd5b506103db600081565b34801561049457600080fd5b506102976104a3366004613a70565b61142e565b3480156104b457600080fd5b506102976104c3366004613bce565b6114f4565b3480156104d457600080fd5b506102976104e3366004613cdd565b61152b565b3480156104f457600080fd5b506103db610503366004613d57565b61173d565b34801561051457600080fd5b50610528610523366004613b6f565b61175d565b6040516102149190613f39565b34801561054157600080fd5b50610297610550366004613a04565b611852565b34801561056157600080fd5b506102976105703660046138bb565b6118da565b34801561058157600080fd5b50610208610590366004613bce565b60009081526101c4602090815260408083208380529091529020541590565b3480156105bb57600080fd5b506102326105ca366004613bce565b61193c565b3480156105db57600080fd5b506102976105ea3660046138bb565b611a32565b3480156105fb57600080fd5b5061029761060a366004613cb4565b611a94565b34801561061b57600080fd5b5061020861062a3660046138f5565b6001600160a01b0391821660009081526101656020908152604080832093909416825291909152205460ff1690565b60006001600160e01b031982167f80ac58cd0000000000000000000000000000000000000000000000000000000014806106bc57506001600160e01b031982167f5b5e139f00000000000000000000000000000000000000000000000000000000145b806106f057507f01ffc9a7000000000000000000000000000000000000000000000000000000006001600160e01b03198316145b92915050565b6060610160805461070690614188565b80601f016020809104026020016040519081016040528092919081815260200182805461073290614188565b801561077f5780601f106107545761010080835404028352916020019161077f565b820191906000526020600020905b81548152906001019060200180831161076257829003601f168201915b5050505050905090565b600081815261016260205260408120546001600160a01b03166108085760405162461bcd60e51b815260206004820152602c60248201527f4552433732313a20617070726f76656420717565727920666f72206e6f6e657860448201526b34b9ba32b73a103a37b5b2b760a11b60648201526084015b60405180910390fd5b50600090815261016460205260409020546001600160a01b031690565b6000610830826110b7565b9050806001600160a01b0316836001600160a01b031614156108ba5760405162461bcd60e51b815260206004820152602160248201527f4552433732313a20617070726f76616c20746f2063757272656e74206f776e6560448201527f720000000000000000000000000000000000000000000000000000000000000060648201526084016107ff565b336001600160a01b03821614806108d657506108d6813361062a565b6109485760405162461bcd60e51b815260206004820152603860248201527f4552433732313a20617070726f76652063616c6c6572206973206e6f74206f7760448201527f6e6572206e6f7220617070726f76656420666f7220616c6c000000000000000060648201526084016107ff565b6109528383611b8e565b505050565b600054610100900460ff1680610970575060005460ff16155b6109d35760405162461bcd60e51b815260206004820152602e60248201527f496e697469616c697a61626c653a20636f6e747261637420697320616c72656160448201526d191e481a5b9a5d1a585b1a5e995960921b60648201526084016107ff565b600054610100900460ff161580156109f5576000805461ffff19166101011790555b6109fe87611bfd565b610a0786611cf7565b610a0f611df1565b610a8285858080601f01602080910402602001604051908101604052809392919081815260200183838082843760009201919091525050604080516020601f89018190048102820181019092528781529250879150869081908401838280828437600092019190915250611eb392505050565b8015610a94576000805461ff00191690555b50505050505050565b6002816002811115610ab157610ab161421e565b10610afe5760405162461bcd60e51b815260206004820152601760248201527f696e76616c6964207065726d697373696f6e20736c6f7400000000000000000060448201526064016107ff565b6000816002811115610b1257610b1261421e565b1415610b4b57610b427f2a32a1662c1214ad9d5a31a0a1cb01ef357b3d1954570b75c128485ad3931dbc33611f81565b610b4b57600080fd5b6001816002811115610b5f57610b5f61421e565b1415610b8b57610b6e826110b7565b6001600160a01b0316336001600160a01b031614610b8b57600080fd5b610b978282600061201f565b5050565b610ba53382612035565b610c175760405162461bcd60e51b815260206004820152603160248201527f4552433732313a207472616e736665722063616c6c6572206973206e6f74206f60448201527f776e6572206e6f7220617070726f76656400000000000000000000000000000060648201526084016107ff565b61095283838361212e565b60008181526101f6602052604081208054600182018054606093849392916002909101908290610c5190614188565b80601f0160208091040260200160405190810160405280929190818152602001828054610c7d90614188565b8015610cca5780601f10610c9f57610100808354040283529160200191610cca565b820191906000526020600020905b815481529060010190602001808311610cad57829003601f168201915b5050505050915080805480602002602001604051908101604052809291908181526020018280548015610d1c57602002820191906000526020600020905b815481526020019060010190808311610d08575b505050505090509250925092509193909250565b7f664245c7af190fec316596e8231f724e8171b1966cfcd124347ac5a66c34f64a610d5b8133611f81565b610da65780335b6040517f75000dc000000000000000000000000000000000000000000000000000000000815260048101929092526001600160a01b031660248201526044016107ff565b610db18484846122fe565b50505050565b306001600160a01b037f0000000000000000000000000000000000000000000000000000000000000000161415610e455760405162461bcd60e51b815260206004820152602c60248201527f46756e6374696f6e206d7573742062652063616c6c6564207468726f7567682060448201526b19195b1959d85d1958d85b1b60a21b60648201526084016107ff565b7f00000000000000000000000000000000000000000000000000000000000000006001600160a01b0316610ea07f360894a13ba1a3210667c828492db98dca3e2076cc3735a920a3ca505d382bbc546001600160a01b031690565b6001600160a01b031614610f0b5760405162461bcd60e51b815260206004820152602c60248201527f46756e6374696f6e206d7573742062652063616c6c6564207468726f7567682060448201526b6163746976652070726f787960a01b60648201526084016107ff565b610f148161242d565b60408051600080825260208201909252610f3091839190612463565b50565b61095283838360405180602001604052806000815250611852565b306001600160a01b037f0000000000000000000000000000000000000000000000000000000000000000161415610fdc5760405162461bcd60e51b815260206004820152602c60248201527f46756e6374696f6e206d7573742062652063616c6c6564207468726f7567682060448201526b19195b1959d85d1958d85b1b60a21b60648201526084016107ff565b7f00000000000000000000000000000000000000000000000000000000000000006001600160a01b03166110377f360894a13ba1a3210667c828492db98dca3e2076cc3735a920a3ca505d382bbc546001600160a01b031690565b6001600160a01b0316146110a25760405162461bcd60e51b815260206004820152602c60248201527f46756e6374696f6e206d7573742062652063616c6c6564207468726f7567682060448201526b6163746976652070726f787960a01b60648201526084016107ff565b6110ab8261242d565b610b9782826001612463565b600081815261016260205260408120546001600160a01b0316806106f05760405162461bcd60e51b815260206004820152602960248201527f4552433732313a206f776e657220717565727920666f72206e6f6e657869737460448201527f656e7420746f6b656e000000000000000000000000000000000000000000000060648201526084016107ff565b60006001600160a01b0382166111c15760405162461bcd60e51b815260206004820152602a60248201527f4552433732313a2062616c616e636520717565727920666f7220746865207a6560448201527f726f20616464726573730000000000000000000000000000000000000000000060648201526084016107ff565b506001600160a01b03166000908152610163602052604090205490565b8181808060200260200160405190810160405280939291908181526020018383602002808284376000920191909152506001925050505b81518110156112b9578161122a600183614145565b8151811061123a5761123a61424a565b60200260200101518282815181106112545761125461424a565b6020026020010151116112a95760405162461bcd60e51b815260206004820152601560248201527f56616c756573206d75737420626520736f72746564000000000000000000000060448201526064016107ff565b6112b2816141c3565b9050611215565b508686868686866040516020016112d596959493929190613e8c565b60408051601f198184030181529181528151602092830120600081815261012d90935290822080549083905590919061130e898b612612565b6113528a89898080601f0160208091040260200160405190810160405280939291908181526020018383808284376000920191909152508b92508a91506127579050565b6113968a89898080601f0160208091040260200160405190810160405280939291908181526020018383808284376000920191909152508b92508a91506127639050565b6113da8a89898080601f0160208091040260200160405190810160405280939291908181526020018383808284376000920191909152508b92508a915061276f9050565b50505050505050505050565b60006106f0610228836127cd565b600081815261022a602052604081206106f0906127d9565b60006114196102286127d9565b905090565b6060610161805461070690614188565b6001600160a01b0382163314156114875760405162461bcd60e51b815260206004820152601960248201527f4552433732313a20617070726f766520746f2063616c6c65720000000000000060448201526064016107ff565b336000818152610165602090815260408083206001600160a01b03871680855290835292819020805460ff191686151590811790915590519081529192917f17307eab39ab6107e8899845ad3d59bd9653f200f220920489ca2b5937696c31910160405180910390a35050565b6114fd816127e3565b60405181907f43343771105cc71439fde05af6660ad660519c971ddc249e5d5cd9c29da46d3890600090a250565b8181808060200260200160405190810160405280939291908181526020018383602002808284376000920191909152506001925050505b81518110156116065781611577600183614145565b815181106115875761158761424a565b60200260200101518282815181106115a1576115a161424a565b6020026020010151116115f65760405162461bcd60e51b815260206004820152601560248201527f56616c756573206d75737420626520736f72746564000000000000000000000060448201526064016107ff565b6115ff816141c3565b9050611562565b5085611611816110b7565b6001600160a01b0316336001600160a01b0316146116715760405162461bcd60e51b815260206004820152601960248201527f5265737472696374656420746f206167656e74206f776e65720000000000000060448201526064016107ff565b6116b58787878080601f0160208091040260200160405190810160405280939291908181526020018383808284376000920191909152508992508891506127579050565b6116f98787878080601f0160208091040260200160405190810160405280939291908181526020018383808284376000920191909152508992508891506127639050565b610a948787878080601f01602080910402602001604051908101604052809392919081815260200183838082843760009201919091525089925088915061276f9050565b600082815261022a6020526040812061175690836127cd565b9392505050565b60608167ffffffffffffffff81111561177857611778614260565b6040519080825280602002602001820160405280156117ab57816020015b60608152602001906001900390816117965790505b50905060005b8281101561184b5761181b308585848181106117cf576117cf61424a565b90506020028101906117e191906140d2565b8080601f01602080910402602001604051908101604052809392919081815260200183838082843760009201919091525061285492505050565b82828151811061182d5761182d61424a565b60200260200101819052508080611843906141c3565b9150506117b1565b5092915050565b61185c3383612035565b6118ce5760405162461bcd60e51b815260206004820152603160248201527f4552433732313a207472616e736665722063616c6c6572206973206e6f74206f60448201527f776e6572206e6f7220617070726f76656400000000000000000000000000000060648201526084016107ff565b610db184848484612879565b60006118e68133611f81565b6118f1578033610d62565b606580546001600160a01b0319166001600160a01b0384169081179091556040517f7aed1d3e8155a07ccf395e44ea3109a0e2d6c9b29bbbe9f142d9790596f4dc8090600090a25050565b600081815261016260205260409020546060906001600160a01b03166119ca5760405162461bcd60e51b815260206004820152602f60248201527f4552433732314d657461646174613a2055524920717565727920666f72206e6f60448201527f6e6578697374656e7420746f6b656e000000000000000000000000000000000060648201526084016107ff565b60006119e160408051602081019091526000815290565b90506000815111611a015760405180602001604052806000815250611756565b80611a0b84612902565b604051602001611a1c929190613e5d565b6040516020818303038152906040529392505050565b6000611a3e8133611f81565b611a49578033610d62565b603380546001600160a01b0319166001600160a01b0384169081179091556040517fa5bc17e575e3b53b23d0e93e121a5a66d1de4d5edb4dfde6027b14d79b7f2b9c90600090a25050565b6002816002811115611aa857611aa861421e565b10611af55760405162461bcd60e51b815260206004820152601760248201527f696e76616c6964207065726d697373696f6e20736c6f7400000000000000000060448201526064016107ff565b6000816002811115611b0957611b0961421e565b1415611b4257611b397f2a32a1662c1214ad9d5a31a0a1cb01ef357b3d1954570b75c128485ad3931dbc33611f81565b611b4257600080fd5b6001816002811115611b5657611b5661421e565b1415611b8257611b65826110b7565b6001600160a01b0316336001600160a01b031614611b8257600080fd5b610b978282600161201f565b60008181526101646020526040902080546001600160a01b0319166001600160a01b0384169081179091558190611bc4826110b7565b6001600160a01b03167f8c5be1e5ebec7d5bd14f71427d1e84f3dd0314c0f7b2291e5b200ac8c7c3b92560405160405180910390a45050565b600054610100900460ff1680611c16575060005460ff16155b611c795760405162461bcd60e51b815260206004820152602e60248201527f496e697469616c697a61626c653a20636f6e747261637420697320616c72656160448201526d191e481a5b9a5d1a585b1a5e995960921b60648201526084016107ff565b600054610100900460ff16158015611c9b576000805461ffff19166101011790555b603380546001600160a01b0319166001600160a01b0384169081179091556040517fa5bc17e575e3b53b23d0e93e121a5a66d1de4d5edb4dfde6027b14d79b7f2b9c90600090a28015610b97576000805461ff00191690555050565b600054610100900460ff1680611d10575060005460ff16155b611d735760405162461bcd60e51b815260206004820152602e60248201527f496e697469616c697a61626c653a20636f6e747261637420697320616c72656160448201526d191e481a5b9a5d1a585b1a5e995960921b60648201526084016107ff565b600054610100900460ff16158015611d95576000805461ffff19166101011790555b606580546001600160a01b0319166001600160a01b0384169081179091556040517f7aed1d3e8155a07ccf395e44ea3109a0e2d6c9b29bbbe9f142d9790596f4dc8090600090a28015610b97576000805461ff00191690555050565b600054610100900460ff1680611e0a575060005460ff16155b611e6d5760405162461bcd60e51b815260206004820152602e60248201527f496e697469616c697a61626c653a20636f6e747261637420697320616c72656160448201526d191e481a5b9a5d1a585b1a5e995960921b60648201526084016107ff565b600054610100900460ff16158015611e8f576000805461ffff19166101011790555b611e97612a34565b611e9f612a34565b8015610f30576000805461ff001916905550565b600054610100900460ff1680611ecc575060005460ff16155b611f2f5760405162461bcd60e51b815260206004820152602e60248201527f496e697469616c697a61626c653a20636f6e747261637420697320616c72656160448201526d191e481a5b9a5d1a585b1a5e995960921b60648201526084016107ff565b600054610100900460ff16158015611f51576000805461ffff19166101011790555b611f59612a34565b611f61612a34565b611f6b8383612ae5565b8015610952576000805461ff0019169055505050565b6033546040517f91d14854000000000000000000000000000000000000000000000000000000008152600481018490526001600160a01b03838116602483015260009216906391d148549060440160206040518083038186803b158015611fe757600080fd5b505afa158015611ffb573d6000803e3d6000fd5b505050506040513d601f19601f820116820180604052508101906117569190613bb1565b61202a838383612bc3565b610952838383612c31565b600081815261016260205260408120546001600160a01b03166120af5760405162461bcd60e51b815260206004820152602c60248201527f4552433732313a206f70657261746f7220717565727920666f72206e6f6e657860448201526b34b9ba32b73a103a37b5b2b760a11b60648201526084016107ff565b60006120ba836110b7565b9050806001600160a01b0316846001600160a01b031614806120f55750836001600160a01b03166120ea84610789565b6001600160a01b0316145b8061212657506001600160a01b038082166000908152610165602090815260408083209388168352929052205460ff165b949350505050565b826001600160a01b0316612141826110b7565b6001600160a01b0316146121bd5760405162461bcd60e51b815260206004820152602960248201527f4552433732313a207472616e73666572206f6620746f6b656e2074686174206960448201527f73206e6f74206f776e000000000000000000000000000000000000000000000060648201526084016107ff565b6001600160a01b0382166122385760405162461bcd60e51b8152602060048201526024808201527f4552433732313a207472616e7366657220746f20746865207a65726f2061646460448201527f726573730000000000000000000000000000000000000000000000000000000060648201526084016107ff565b612243600082611b8e565b6001600160a01b03831660009081526101636020526040812080546001929061226d908490614145565b90915550506001600160a01b03821660009081526101636020526040812080546001929061229c908490614119565b90915550506000818152610162602052604080822080546001600160a01b0319166001600160a01b0386811691821790925591518493918716917fddf252ad1be2c89b69c2b068fc378daa952ba7f163c4a11628f55a4df523b3ef91a4505050565b6040517f02571be30000000000000000000000000000000000000000000000000000000081527f91d1777781884d03a6757a803996e38de2a42967fb37eeaca72729271025a9e260048201526001600160a01b038416906302571be39060240160206040518083038186803b15801561237657600080fd5b505afa15801561238a573d6000803e3d6000fd5b505050506040513d601f19601f820116820180604052508101906123ae91906138d8565b6001600160a01b031663c47f002783836040518363ffffffff1660e01b81526004016123db929190613fdf565b602060405180830381600087803b1580156123f557600080fd5b505af1158015612409573d6000803e3d6000fd5b505050506040513d601f19601f82011682018060405250810190610db19190613be7565b7f189ab7a9244df0848122154315af71fe140f3db0fe014031783b0946b8c9d2e36124588133611f81565b610b97578033610d62565b60006124967f360894a13ba1a3210667c828492db98dca3e2076cc3735a920a3ca505d382bbc546001600160a01b031690565b90506124a184612c8f565b6000835111806124ae5750815b156124bf576124bd8484612d44565b505b7f4910fdfa16fed3260ed0e7147f7cc6da11a60208b5b9406d12a635614ffd9143805460ff1661260b57805460ff191660011781556040516001600160a01b038316602482015261255790869060440160408051601f198184030181529190526020810180516001600160e01b03167f3659cfe600000000000000000000000000000000000000000000000000000000179052612d44565b50805460ff191681557f360894a13ba1a3210667c828492db98dca3e2076cc3735a920a3ca505d382bbc546001600160a01b038381169116146126025760405162461bcd60e51b815260206004820152602f60248201527f45524331393637557067726164653a207570677261646520627265616b73206660448201527f757274686572207570677261646573000000000000000000000000000000000060648201526084016107ff565b61260b85612e2f565b5050505050565b6001600160a01b0382166126685760405162461bcd60e51b815260206004820181905260248201527f4552433732313a206d696e7420746f20746865207a65726f206164647265737360448201526064016107ff565b600081815261016260205260409020546001600160a01b0316156126ce5760405162461bcd60e51b815260206004820152601c60248201527f4552433732313a20746f6b656e20616c7265616479206d696e7465640000000060448201526064016107ff565b6001600160a01b0382166000908152610163602052604081208054600192906126f8908490614119565b90915550506000818152610162602052604080822080546001600160a01b0319166001600160a01b03861690811790915590518392907fddf252ad1be2c89b69c2b068fc378daa952ba7f163c4a11628f55a4df523b3ef908290a45050565b610db184848484612e6f565b610db184848484613018565b610db18460405160240161278591815260200190565b60408051601f198184030181529190526020810180516001600160e01b03167faa3f9803000000000000000000000000000000000000000000000000000000001790526131bc565b60006117568383613248565b60006106f0825490565b600081815261012d6020526040902054156128405760405162461bcd60e51b815260206004820152601560248201527f436f6d6d697420616c726561647920657869737473000000000000000000000060448201526064016107ff565b600090815261012d60205260409020429055565b606061175683836040518060600160405280602781526020016142b060279139613272565b61288484848461212e565b61289084848484613346565b610db15760405162461bcd60e51b815260206004820152603260248201527f4552433732313a207472616e7366657220746f206e6f6e20455243373231526560448201527f63656976657220696d706c656d656e746572000000000000000000000000000060648201526084016107ff565b60608161294257505060408051808201909152600181527f3000000000000000000000000000000000000000000000000000000000000000602082015290565b8160005b811561296c5780612956816141c3565b91506129659050600a83614131565b9150612946565b60008167ffffffffffffffff81111561298757612987614260565b6040519080825280601f01601f1916602001820160405280156129b1576020820181803683370190505b5090505b8415612126576129c6600183614145565b91506129d3600a866141de565b6129de906030614119565b60f81b8183815181106129f3576129f361424a565b60200101907effffffffffffffffffffffffffffffffffffffffffffffffffffffffffffff1916908160001a905350612a2d600a86614131565b94506129b5565b600054610100900460ff1680612a4d575060005460ff16155b612ab05760405162461bcd60e51b815260206004820152602e60248201527f496e697469616c697a61626c653a20636f6e747261637420697320616c72656160448201526d191e481a5b9a5d1a585b1a5e995960921b60648201526084016107ff565b600054610100900460ff16158015611e9f576000805461ffff19166101011790558015610f30576000805461ff001916905550565b600054610100900460ff1680612afe575060005460ff16155b612b615760405162461bcd60e51b815260206004820152602e60248201527f496e697469616c697a61626c653a20636f6e747261637420697320616c72656160448201526d191e481a5b9a5d1a585b1a5e995960921b60648201526084016107ff565b600054610100900460ff16158015612b83576000805461ffff19166101011790555b8251612b97906101609060208601906136cd565b508151612bac906101619060208501906136cd565b508015610952576000805461ff0019169055505050565b612bf2826002811115612bd857612bd861421e565b60008581526101c4602052604090209060ff1683156134a9565b827f9aae0324e55c8e6801ea6ce0a07d77640a94e8a03658c6b34aa55d48a51ec4ef8383604051612c24929190613fae565b60405180910390a2505050565b61095283604051602401612c4791815260200190565b60408051601f198184030181529190526020810180516001600160e01b03167fb0162874000000000000000000000000000000000000000000000000000000001790526131bc565b803b612d035760405162461bcd60e51b815260206004820152602d60248201527f455243313936373a206e657720696d706c656d656e746174696f6e206973206e60448201527f6f74206120636f6e74726163740000000000000000000000000000000000000060648201526084016107ff565b7f360894a13ba1a3210667c828492db98dca3e2076cc3735a920a3ca505d382bbc80546001600160a01b0319166001600160a01b0392909216919091179055565b6060823b612da35760405162461bcd60e51b815260206004820152602660248201527f416464726573733a2064656c65676174652063616c6c20746f206e6f6e2d636f6044820152651b9d1c9858dd60d21b60648201526084016107ff565b600080846001600160a01b031684604051612dbe9190613da5565b600060405180830381855af49150503d8060008114612df9576040519150601f19603f3d011682016040523d82523d6000602084013e612dfe565b606091505b5091509150612e2682826040518060600160405280602781526020016142b0602791396134f8565b95945050505050565b612e3881612c8f565b6040516001600160a01b038216907fbc7cd75a20ee27fd9adebab32041f755214dbc6bffa90cc0225b39da2e5c2d3b90600090a250565b600080612e7b86610c22565b92505091508160001415612e9757612e9561022887613531565b505b6000805b8251821080612ea957508481105b1561300e578251821415612f0657612f008861022a6000898986612ecc816141c3565b9750818110612edd57612edd61424a565b90506020020135815260200190815260200160002061353190919063ffffffff16565b50612e9b565b80851415612f5857612f008861022a60008686612f22816141c3565b975081518110612f3457612f3461424a565b6020026020010151815260200190815260200160002061353d90919063ffffffff16565b858582818110612f6a57612f6a61424a565b90506020020135838381518110612f8357612f8361424a565b60200260200101511015612fa557612f008861022a60008686612f22816141c3565b858582818110612fb757612fb761424a565b90506020020135838381518110612fd057612fd061424a565b60200260200101511115612ff357612f008861022a6000898986612ecc816141c3565b612ffc826141c3565b9150613007816141c3565b9050612e9b565b5050505050505050565b61302484848484613549565b60008481526101f6602052604080822090516130439160010190613dc1565b6040805191829003909120855160208088019190912060008181526101f79092529290205490925060ff16156130e15760405162461bcd60e51b815260206004820152602b60248201527f4572726f723a206d657461646174612073686f756c64206265206120756e697160448201527f75652070726f706572747900000000000000000000000000000000000000000060648201526084016107ff565b60008181526101f7602090815260408083208054600160ff199182168117909255868552828520805490911690558984526101f690925282205461312491614119565b9050604051806060016040528082815260200187815260200186868080602002602001604051908101604052809392919081815260200183836020028082843760009201829052509390945250508981526101f660209081526040909120835181558382015180519193506131a09260018501929101906136cd565b50604082015180516113da916002840191602090910190613751565b6065546001600160a01b031615610f30576065546040517f3fa222c40000000000000000000000000000000000000000000000000000000081526001600160a01b0390911690633fa222c490613216908490600401613f9b565b600060405180830381600087803b15801561323057600080fd5b505af1925050508015613241575060015b610f305750565b600082600001828154811061325f5761325f61424a565b9060005260206000200154905092915050565b6060833b6132d15760405162461bcd60e51b815260206004820152602660248201527f416464726573733a2064656c65676174652063616c6c20746f206e6f6e2d636f6044820152651b9d1c9858dd60d21b60648201526084016107ff565b600080856001600160a01b0316856040516132ec9190613da5565b600060405180830381855af49150503d8060008114613327576040519150601f19603f3d011682016040523d82523d6000602084013e61332c565b606091505b509150915061333c8282866134f8565b9695505050505050565b60006001600160a01b0384163b1561349e57604051630a85bd0160e11b81526001600160a01b0385169063150b7a029061338a903390899088908890600401613f07565b602060405180830381600087803b1580156133a457600080fd5b505af19250505080156133d4575060408051601f3d908101601f191682019092526133d191810190613c1d565b60015b613484573d808015613402576040519150601f19603f3d011682016040523d82523d6000602084013e613407565b606091505b50805161347c5760405162461bcd60e51b815260206004820152603260248201527f4552433732313a207472616e7366657220746f206e6f6e20455243373231526560448201527f63656976657220696d706c656d656e746572000000000000000000000000000060648201526084016107ff565b805181602001fd5b6001600160e01b031916630a85bd0160e11b149050612126565b506001949350505050565b80156134d357600882901c60009081526020849052604090208054600160ff85161b179055505050565b600882901c60009081526020849052604090208054600160ff85161b19169055505050565b60608315613507575081611756565b8251156135175782518084602001fd5b8160405162461bcd60e51b81526004016107ff9190613f9b565b6000611756838361358b565b600061175683836135da565b837f808318fff0e666157af89dad699f694ddee6735f06dba7769a172a8251d34b3f84848460405161357d9392919061400e565b60405180910390a250505050565b60008181526001830160205260408120546135d2575081546001818101845560008481526020808220909301849055845484825282860190935260409020919091556106f0565b5060006106f0565b600081815260018301602052604081205480156136c35760006135fe600183614145565b855490915060009061361290600190614145565b90508181146136775760008660000182815481106136325761363261424a565b90600052602060002001549050808760000184815481106136555761365561424a565b6000918252602080832090910192909255918252600188019052604090208390555b855486908061368857613688614234565b6001900381819060005260206000200160009055905585600101600086815260200190815260200160002060009055600193505050506106f0565b60009150506106f0565b8280546136d990614188565b90600052602060002090601f0160209004810192826136fb5760008555613741565b82601f1061371457805160ff1916838001178555613741565b82800160010185558215613741579182015b82811115613741578251825591602001919060010190613726565b5061374d92915061378b565b5090565b8280548282559060005260206000209081019282156137415791602002820182811115613741578251825591602001919060010190613726565b5b8082111561374d576000815560010161378c565b60008083601f8401126137b257600080fd5b50813567ffffffffffffffff8111156137ca57600080fd5b6020830191508360208260051b85010111156137e557600080fd5b9250929050565b600082601f8301126137fd57600080fd5b813567ffffffffffffffff8082111561381857613818614260565b604051601f8301601f19908116603f0116810190828211818310171561384057613840614260565b8160405283815286602085880101111561385957600080fd5b836020870160208301376000602085830101528094505050505092915050565b60008083601f84011261388b57600080fd5b50813567ffffffffffffffff8111156138a357600080fd5b6020830191508360208285010111156137e557600080fd5b6000602082840312156138cd57600080fd5b813561175681614276565b6000602082840312156138ea57600080fd5b815161175681614276565b6000806040838503121561390857600080fd5b823561391381614276565b9150602083013561392381614276565b809150509250929050565b6000806000806000806080878903121561394757600080fd5b863561395281614276565b9550602087013561396281614276565b9450604087013567ffffffffffffffff8082111561397f57600080fd5b61398b8a838b01613879565b909650945060608901359150808211156139a457600080fd5b506139b189828a01613879565b979a9699509497509295939492505050565b6000806000606084860312156139d857600080fd5b83356139e381614276565b925060208401356139f381614276565b929592945050506040919091013590565b60008060008060808587031215613a1a57600080fd5b8435613a2581614276565b93506020850135613a3581614276565b925060408501359150606085013567ffffffffffffffff811115613a5857600080fd5b613a64878288016137ec565b91505092959194509250565b60008060408385031215613a8357600080fd5b8235613a8e81614276565b915060208301356139238161428b565b60008060408385031215613ab157600080fd5b8235613abc81614276565b9150602083013567ffffffffffffffff811115613ad857600080fd5b613ae4858286016137ec565b9150509250929050565b600080600060408486031215613b0357600080fd5b8335613b0e81614276565b9250602084013567ffffffffffffffff811115613b2a57600080fd5b613b3686828701613879565b9497909650939450505050565b60008060408385031215613b5657600080fd5b8235613b6181614276565b946020939093013593505050565b60008060208385031215613b8257600080fd5b823567ffffffffffffffff811115613b9957600080fd5b613ba5858286016137a0565b90969095509350505050565b600060208284031215613bc357600080fd5b81516117568161428b565b600060208284031215613be057600080fd5b5035919050565b600060208284031215613bf957600080fd5b5051919050565b600060208284031215613c1257600080fd5b813561175681614299565b600060208284031215613c2f57600080fd5b815161175681614299565b60008060008060008060808789031215613c5357600080fd5b863595506020870135613c6581614276565b9450604087013567ffffffffffffffff80821115613c8257600080fd5b613c8e8a838b01613879565b90965094506060890135915080821115613ca757600080fd5b506139b189828a016137a0565b60008060408385031215613cc757600080fd5b8235915060208301356003811061392357600080fd5b600080600080600060608688031215613cf557600080fd5b85359450602086013567ffffffffffffffff80821115613d1457600080fd5b613d2089838a01613879565b90965094506040880135915080821115613d3957600080fd5b50613d46888289016137a0565b969995985093965092949392505050565b60008060408385031215613d6a57600080fd5b50508035926020909101359150565b60008151808452613d9181602086016020860161415c565b601f01601f19169290920160200192915050565b60008251613db781846020870161415c565b9190910192915050565b600080835481600182811c915080831680613ddd57607f831692505b6020808410821415613dfd57634e487b7160e01b86526022600452602486fd5b818015613e115760018114613e2257613e4f565b60ff19861689528489019650613e4f565b60008a81526020902060005b86811015613e475781548b820152908501908301613e2e565b505084890196505b509498975050505050505050565b60008351613e6f81846020880161415c565b835190830190613e8381836020880161415c565b01949350505050565b8681526bffffffffffffffffffffffff198660601b16602082015283856034830137600084820160348101600081527f07ffffffffffffffffffffffffffffffffffffffffffffffffffffffffffffff851115613ee857600080fd5b8460051b80878337600092016034019182525098975050505050505050565b60006001600160a01b0380871683528086166020840152508360408301526080606083015261333c6080830184613d79565b6000602080830181845280855180835260408601915060408160051b870101925083870160005b82811015613f8e57603f19888603018452613f7c858351613d79565b94509285019290850190600101613f60565b5092979650505050505050565b6020815260006117566020830184613d79565b6040810160038410613fd057634e487b7160e01b600052602160045260246000fd5b92815290151560209091015290565b60208152816020820152818360408301376000818301604090810191909152601f909201601f19160101919050565b6040815260006140216040830186613d79565b82810360208401528381527f07ffffffffffffffffffffffffffffffffffffffffffffffffffffffffffffff84111561405957600080fd5b8360051b808660208401376000910160200190815295945050505050565b838152600060206060818401526140916060840186613d79565b838103604085015284518082528286019183019060005b818110156140c4578351835292840192918401916001016140a8565b509098975050505050505050565b6000808335601e198436030181126140e957600080fd5b83018035915067ffffffffffffffff82111561410457600080fd5b6020019150368190038213156137e557600080fd5b6000821982111561412c5761412c6141f2565b500190565b60008261414057614140614208565b500490565b600082821015614157576141576141f2565b500390565b60005b8381101561417757818101518382015260200161415f565b83811115610db15750506000910152565b600181811c9082168061419c57607f821691505b602082108114156141bd57634e487b7160e01b600052602260045260246000fd5b50919050565b60006000198214156141d7576141d76141f2565b5060010190565b6000826141ed576141ed614208565b500690565b634e487b7160e01b600052601160045260246000fd5b634e487b7160e01b600052601260045260246000fd5b634e487b7160e01b600052602160045260246000fd5b634e487b7160e01b600052603160045260246000fd5b634e487b7160e01b600052603260045260246000fd5b634e487b7160e01b600052604160045260246000fd5b6001600160a01b0381168114610f3057600080fd5b8015158114610f3057600080fd5b6001600160e01b031981168114610f3057600080fdfe416464726573733a206c6f772d6c6576656c2064656c65676174652063616c6c206661696c6564a26469706673582212205c0b0915e894ab373f60b363a2e1cc7fe66baea10d696dd7740ef3b1ae16a56f64736f6c63430008070033",
  "linkReferences": {},
  "deployedLinkReferences": {}
}