{
  "_format": "hh-sol-artifact-1",
  "contractName": "AgentRegistry",
  "sourceName": "contracts/components/agents/AgentRegistry.sol",
  "abi": [
    {
      "inputs": [],
      "stateMutability": "nonpayable",
      "type": "constructor"
    },
    {
      "anonymous": false,
      "inputs": [
        {
          "indexed": true,
          "internalType": "address",
          "name": "newAddressManager",
          "type": "address"
        }
      ],
      "name": "AccessManagerUpdated",
      "type": "event"
    },
    {
      "anonymous": false,
      "inputs": [
        {
          "indexed": false,
          "internalType": "address",
          "name": "previousAdmin",
          "type": "address"
        },
        {
          "indexed": false,
          "internalType": "address",
          "name": "newAdmin",
          "type": "address"
        }
      ],
      "name": "AdminChanged",
      "type": "event"
    },
    {
      "anonymous": false,
      "inputs": [
        {
          "indexed": true,
          "internalType": "bytes32",
          "name": "commit",
          "type": "bytes32"
        }
      ],
      "name": "AgentCommitted",
      "type": "event"
    },
    {
      "anonymous": false,
      "inputs": [
        {
          "indexed": true,
          "internalType": "uint256",
          "name": "agentId",
          "type": "uint256"
        },
        {
          "indexed": true,
          "internalType": "bool",
          "name": "enabled",
          "type": "bool"
        },
        {
          "indexed": false,
          "internalType": "enum AgentRegistryEnable.Permission",
          "name": "permission",
          "type": "uint8"
        },
        {
          "indexed": false,
          "internalType": "bool",
          "name": "value",
          "type": "bool"
        }
      ],
      "name": "AgentEnabled",
      "type": "event"
    },
    {
      "anonymous": false,
      "inputs": [
        {
          "indexed": true,
          "internalType": "uint256",
          "name": "agentId",
          "type": "uint256"
        },
        {
          "indexed": true,
          "internalType": "address",
          "name": "by",
          "type": "address"
        },
        {
          "indexed": false,
          "internalType": "string",
          "name": "metadata",
          "type": "string"
        },
        {
          "indexed": false,
          "internalType": "uint256[]",
          "name": "chainIds",
          "type": "uint256[]"
        }
      ],
      "name": "AgentUpdated",
      "type": "event"
    },
    {
      "anonymous": false,
      "inputs": [
        {
          "indexed": true,
          "internalType": "address",
          "name": "owner",
          "type": "address"
        },
        {
          "indexed": true,
          "internalType": "address",
          "name": "approved",
          "type": "address"
        },
        {
          "indexed": true,
          "internalType": "uint256",
          "name": "tokenId",
          "type": "uint256"
        }
      ],
      "name": "Approval",
      "type": "event"
    },
    {
      "anonymous": false,
      "inputs": [
        {
          "indexed": true,
          "internalType": "address",
          "name": "owner",
          "type": "address"
        },
        {
          "indexed": true,
          "internalType": "address",
          "name": "operator",
          "type": "address"
        },
        {
          "indexed": false,
          "internalType": "bool",
          "name": "approved",
          "type": "bool"
        }
      ],
      "name": "ApprovalForAll",
      "type": "event"
    },
    {
      "anonymous": false,
      "inputs": [
        {
          "indexed": true,
          "internalType": "address",
          "name": "beacon",
          "type": "address"
        }
      ],
      "name": "BeaconUpgraded",
      "type": "event"
    },
    {
      "anonymous": false,
      "inputs": [
        {
          "indexed": true,
          "internalType": "address",
          "name": "router",
          "type": "address"
        }
      ],
      "name": "RouterUpdated",
      "type": "event"
    },
    {
      "anonymous": false,
      "inputs": [
        {
          "indexed": true,
          "internalType": "address",
          "name": "from",
          "type": "address"
        },
        {
          "indexed": true,
          "internalType": "address",
          "name": "to",
          "type": "address"
        },
        {
          "indexed": true,
          "internalType": "uint256",
          "name": "tokenId",
          "type": "uint256"
        }
      ],
      "name": "Transfer",
      "type": "event"
    },
    {
      "anonymous": false,
      "inputs": [
        {
          "indexed": true,
          "internalType": "address",
          "name": "implementation",
          "type": "address"
        }
      ],
      "name": "Upgraded",
      "type": "event"
    },
    {
      "inputs": [],
      "name": "DEFAULT_ADMIN_ROLE",
      "outputs": [
        {
          "internalType": "bytes32",
          "name": "",
          "type": "bytes32"
        }
      ],
      "stateMutability": "view",
      "type": "function"
    },
    {
      "inputs": [
        {
          "internalType": "address",
          "name": "to",
          "type": "address"
        },
        {
          "internalType": "uint256",
          "name": "tokenId",
          "type": "uint256"
        }
      ],
      "name": "approve",
      "outputs": [],
      "stateMutability": "nonpayable",
      "type": "function"
    },
    {
      "inputs": [
        {
          "internalType": "address",
          "name": "owner",
          "type": "address"
        }
      ],
      "name": "balanceOf",
      "outputs": [
        {
          "internalType": "uint256",
          "name": "",
          "type": "uint256"
        }
      ],
      "stateMutability": "view",
      "type": "function"
    },
    {
      "inputs": [
        {
          "internalType": "uint256",
          "name": "agentId",
          "type": "uint256"
        },
        {
          "internalType": "address",
          "name": "owner",
          "type": "address"
        },
        {
          "internalType": "string",
          "name": "metadata",
          "type": "string"
        },
        {
          "internalType": "uint256[]",
          "name": "chainIds",
          "type": "uint256[]"
        }
      ],
      "name": "createAgent",
      "outputs": [],
      "stateMutability": "nonpayable",
      "type": "function"
    },
    {
      "inputs": [
        {
          "internalType": "uint256",
          "name": "agentId",
          "type": "uint256"
        },
        {
          "internalType": "enum AgentRegistryEnable.Permission",
          "name": "permission",
          "type": "uint8"
        }
      ],
      "name": "disableAgent",
      "outputs": [],
      "stateMutability": "nonpayable",
      "type": "function"
    },
    {
      "inputs": [
        {
          "internalType": "uint256",
          "name": "agentId",
          "type": "uint256"
        },
        {
          "internalType": "enum AgentRegistryEnable.Permission",
          "name": "permission",
          "type": "uint8"
        }
      ],
      "name": "enableAgent",
      "outputs": [],
      "stateMutability": "nonpayable",
      "type": "function"
    },
    {
      "inputs": [
        {
          "internalType": "uint256",
          "name": "agentId",
          "type": "uint256"
        }
      ],
      "name": "getAgent",
      "outputs": [
        {
          "internalType": "uint256",
          "name": "version",
          "type": "uint256"
        },
        {
          "internalType": "string",
          "name": "metadata",
          "type": "string"
        },
        {
          "internalType": "uint256[]",
          "name": "chainIds",
          "type": "uint256[]"
        }
      ],
      "stateMutability": "view",
      "type": "function"
    },
    {
      "inputs": [
        {
          "internalType": "uint256",
          "name": "chainId",
          "type": "uint256"
        },
        {
          "internalType": "uint256",
          "name": "index",
          "type": "uint256"
        }
      ],
      "name": "getAgentByChainAndIndex",
      "outputs": [
        {
          "internalType": "uint256",
          "name": "",
          "type": "uint256"
        }
      ],
      "stateMutability": "view",
      "type": "function"
    },
    {
      "inputs": [
        {
          "internalType": "uint256",
          "name": "index",
          "type": "uint256"
        }
      ],
      "name": "getAgentByIndex",
      "outputs": [
        {
          "internalType": "uint256",
          "name": "",
          "type": "uint256"
        }
      ],
      "stateMutability": "view",
      "type": "function"
    },
    {
      "inputs": [],
      "name": "getAgentCount",
      "outputs": [
        {
          "internalType": "uint256",
          "name": "",
          "type": "uint256"
        }
      ],
      "stateMutability": "view",
      "type": "function"
    },
    {
      "inputs": [
        {
          "internalType": "uint256",
          "name": "chainId",
          "type": "uint256"
        }
      ],
      "name": "getAgentCountByChain",
      "outputs": [
        {
          "internalType": "uint256",
          "name": "",
          "type": "uint256"
        }
      ],
      "stateMutability": "view",
      "type": "function"
    },
    {
      "inputs": [
        {
          "internalType": "uint256",
          "name": "tokenId",
          "type": "uint256"
        }
      ],
      "name": "getApproved",
      "outputs": [
        {
          "internalType": "address",
          "name": "",
          "type": "address"
        }
      ],
      "stateMutability": "view",
      "type": "function"
    },
    {
      "inputs": [
        {
          "internalType": "address",
          "name": "__manager",
          "type": "address"
        },
        {
          "internalType": "address",
          "name": "__router",
          "type": "address"
        },
        {
          "internalType": "string",
          "name": "__name",
          "type": "string"
        },
        {
          "internalType": "string",
          "name": "__symbol",
          "type": "string"
        }
      ],
      "name": "initialize",
      "outputs": [],
      "stateMutability": "nonpayable",
      "type": "function"
    },
    {
      "inputs": [
        {
          "internalType": "address",
          "name": "owner",
          "type": "address"
        },
        {
          "internalType": "address",
          "name": "operator",
          "type": "address"
        }
      ],
      "name": "isApprovedForAll",
      "outputs": [
        {
          "internalType": "bool",
          "name": "",
          "type": "bool"
        }
      ],
      "stateMutability": "view",
      "type": "function"
    },
    {
      "inputs": [
        {
          "internalType": "uint256",
          "name": "agentId",
          "type": "uint256"
        }
      ],
      "name": "isEnabled",
      "outputs": [
        {
          "internalType": "bool",
          "name": "",
          "type": "bool"
        }
      ],
      "stateMutability": "view",
      "type": "function"
    },
    {
      "inputs": [
        {
          "internalType": "bytes[]",
          "name": "data",
          "type": "bytes[]"
        }
      ],
      "name": "multicall",
      "outputs": [
        {
          "internalType": "bytes[]",
          "name": "results",
          "type": "bytes[]"
        }
      ],
      "stateMutability": "nonpayable",
      "type": "function"
    },
    {
      "inputs": [],
      "name": "name",
      "outputs": [
        {
          "internalType": "string",
          "name": "",
          "type": "string"
        }
      ],
      "stateMutability": "view",
      "type": "function"
    },
    {
      "inputs": [
        {
          "internalType": "uint256",
          "name": "tokenId",
          "type": "uint256"
        }
      ],
      "name": "ownerOf",
      "outputs": [
        {
          "internalType": "address",
          "name": "",
          "type": "address"
        }
      ],
      "stateMutability": "view",
      "type": "function"
    },
    {
      "inputs": [
        {
          "internalType": "bytes32",
          "name": "commit",
          "type": "bytes32"
        }
      ],
      "name": "prepareAgent",
      "outputs": [],
      "stateMutability": "nonpayable",
      "type": "function"
    },
    {
      "inputs": [
        {
          "internalType": "address",
          "name": "from",
          "type": "address"
        },
        {
          "internalType": "address",
          "name": "to",
          "type": "address"
        },
        {
          "internalType": "uint256",
          "name": "tokenId",
          "type": "uint256"
        }
      ],
      "name": "safeTransferFrom",
      "outputs": [],
      "stateMutability": "nonpayable",
      "type": "function"
    },
    {
      "inputs": [
        {
          "internalType": "address",
          "name": "from",
          "type": "address"
        },
        {
          "internalType": "address",
          "name": "to",
          "type": "address"
        },
        {
          "internalType": "uint256",
          "name": "tokenId",
          "type": "uint256"
        },
        {
          "internalType": "bytes",
          "name": "_data",
          "type": "bytes"
        }
      ],
      "name": "safeTransferFrom",
      "outputs": [],
      "stateMutability": "nonpayable",
      "type": "function"
    },
    {
      "inputs": [
        {
          "internalType": "address",
          "name": "newManager",
          "type": "address"
        }
      ],
      "name": "setAccessManager",
      "outputs": [],
      "stateMutability": "nonpayable",
      "type": "function"
    },
    {
      "inputs": [
        {
          "internalType": "address",
          "name": "operator",
          "type": "address"
        },
        {
          "internalType": "bool",
          "name": "approved",
          "type": "bool"
        }
      ],
      "name": "setApprovalForAll",
      "outputs": [],
      "stateMutability": "nonpayable",
      "type": "function"
    },
    {
      "inputs": [
        {
          "internalType": "address",
          "name": "ensRegistry",
          "type": "address"
        },
        {
          "internalType": "string",
          "name": "ensName",
          "type": "string"
        }
      ],
      "name": "setName",
      "outputs": [],
      "stateMutability": "nonpayable",
      "type": "function"
    },
    {
      "inputs": [
        {
          "internalType": "address",
          "name": "newRouter",
          "type": "address"
        }
      ],
      "name": "setRouter",
      "outputs": [],
      "stateMutability": "nonpayable",
      "type": "function"
    },
    {
      "inputs": [
        {
          "internalType": "bytes4",
          "name": "interfaceId",
          "type": "bytes4"
        }
      ],
      "name": "supportsInterface",
      "outputs": [
        {
          "internalType": "bool",
          "name": "",
          "type": "bool"
        }
      ],
      "stateMutability": "view",
      "type": "function"
    },
    {
      "inputs": [],
      "name": "symbol",
      "outputs": [
        {
          "internalType": "string",
          "name": "",
          "type": "string"
        }
      ],
      "stateMutability": "view",
      "type": "function"
    },
    {
      "inputs": [
        {
          "internalType": "uint256",
          "name": "tokenId",
          "type": "uint256"
        }
      ],
      "name": "tokenURI",
      "outputs": [
        {
          "internalType": "string",
          "name": "",
          "type": "string"
        }
      ],
      "stateMutability": "view",
      "type": "function"
    },
    {
      "inputs": [
        {
          "internalType": "address",
          "name": "from",
          "type": "address"
        },
        {
          "internalType": "address",
          "name": "to",
          "type": "address"
        },
        {
          "internalType": "uint256",
          "name": "tokenId",
          "type": "uint256"
        }
      ],
      "name": "transferFrom",
      "outputs": [],
      "stateMutability": "nonpayable",
      "type": "function"
    },
    {
      "inputs": [
        {
          "internalType": "uint256",
          "name": "agentId",
          "type": "uint256"
        },
        {
          "internalType": "string",
          "name": "metadata",
          "type": "string"
        },
        {
          "internalType": "uint256[]",
          "name": "chainIds",
          "type": "uint256[]"
        }
      ],
      "name": "updateAgent",
      "outputs": [],
      "stateMutability": "nonpayable",
      "type": "function"
    },
    {
      "inputs": [
        {
          "internalType": "address",
          "name": "newImplementation",
          "type": "address"
        }
      ],
      "name": "upgradeTo",
      "outputs": [],
      "stateMutability": "nonpayable",
      "type": "function"
    },
    {
      "inputs": [
        {
          "internalType": "address",
          "name": "newImplementation",
          "type": "address"
        },
        {
          "internalType": "bytes",
          "name": "data",
          "type": "bytes"
        }
      ],
      "name": "upgradeToAndCall",
      "outputs": [],
      "stateMutability": "payable",
      "type": "function"
    }
  ],
  "bytecode": "0x60a06040523060601b6080523480156200001857600080fd5b50600054610100900460ff168062000033575060005460ff16155b6200009b5760405162461bcd60e51b815260206004820152602e60248201527f496e697469616c697a61626c653a20636f6e747261637420697320616c72656160448201526d191e481a5b9a5d1a585b1a5e995960921b606482015260840160405180910390fd5b600054610100900460ff16158015620000be576000805461ffff19166101011790555b8015620000d1576000805461ff00191690555b5060805160601c6143b46200010660003960008181610dc201528181610e4701528181610f590152610fde01526143b46000f3fe6080604052600436106101e35760003560e01c80638eea276f11610102578063ac9650d811610095578063c87b56dd11610064578063c87b56dd146105af578063c9580804146105cf578063d0c6464b146105ef578063e985e9c51461060f57600080fd5b8063ac9650d814610508578063b88d4fde14610535578063c0d7865514610555578063c783034c1461057557600080fd5b8063a22cb465116100d1578063a22cb46514610488578063a8439d98146104a8578063aa9ac6c6146104c8578063ac388ff5146104e857600080fd5b80638eea276f1461042957806391cab63e1461044957806395d89b411461045e578063a217fddf1461047357600080fd5b80633121db1c1161017a5780636352211e116101495780636352211e1461039b57806370a08231146103bb5780637935d5b4146103e957806389432d401461040957600080fd5b80633121db1c146103285780633659cfe61461034857806342842e0e146103685780634f1ef2861461038857600080fd5b80632016a0d2116101b65780632016a0d21461029957806321095d65146102b957806323b872dd146102d95780632de5aaf7146102f957600080fd5b806301ffc9a7146101e857806306fdde031461021d578063081812fc1461023f578063095ea7b314610277575b600080fd5b3480156101f457600080fd5b50610208610203366004613c6a565b610659565b60405190151581526020015b60405180910390f35b34801561022957600080fd5b506102326106f6565b6040516102149190614043565b34801561024b57600080fd5b5061025f61025a366004613c38565b610789565b6040516001600160a01b039091168152602001610214565b34801561028357600080fd5b50610297610292366004613bad565b610825565b005b3480156102a557600080fd5b506102976102b4366004613998565b610957565b3480156102c557600080fd5b506102976102d4366004613d1e565b610a9d565b3480156102e557600080fd5b506102976102f4366004613a2d565b610b9b565b34801561030557600080fd5b50610319610314366004613c38565b610c22565b6040516102149392919061411f565b34801561033457600080fd5b50610297610343366004613b58565b610d30565b34801561035457600080fd5b50610297610363366004613925565b610db7565b34801561037457600080fd5b50610297610383366004613a2d565b610f33565b610297610396366004613b08565b610f4e565b3480156103a757600080fd5b5061025f6103b6366004613c38565b6110b7565b3480156103c757600080fd5b506103db6103d6366004613925565b611143565b604051908152602001610214565b3480156103f557600080fd5b50610297610404366004613ca4565b6111de565b34801561041557600080fd5b506103db610424366004613c38565b6113e6565b34801561043557600080fd5b506103db610444366004613c38565b6113f4565b34801561045557600080fd5b506103db61140c565b34801561046a57600080fd5b5061023261141e565b34801561047f57600080fd5b506103db600081565b34801561049457600080fd5b506102976104a3366004613ada565b61142e565b3480156104b457600080fd5b506102976104c3366004613c38565b6114f4565b3480156104d457600080fd5b506102976104e3366004613d47565b61152b565b3480156104f457600080fd5b506103db610503366004613dc1565b61177f565b34801561051457600080fd5b50610528610523366004613bd9565b61179f565b6040516102149190613fe1565b34801561054157600080fd5b50610297610550366004613a6e565b611894565b34801561056157600080fd5b50610297610570366004613925565b61191c565b34801561058157600080fd5b50610208610590366004613c38565b60009081526101c4602090815260408083208380529091529020541590565b3480156105bb57600080fd5b506102326105ca366004613c38565b61197e565b3480156105db57600080fd5b506102976105ea366004613925565b611a74565b3480156105fb57600080fd5b5061029761060a366004613d1e565b611ad6565b34801561061b57600080fd5b5061020861062a36600461395f565b6001600160a01b0391821660009081526101656020908152604080832093909416825291909152205460ff1690565b60006001600160e01b031982167f80ac58cd0000000000000000000000000000000000000000000000000000000014806106bc57506001600160e01b031982167f5b5e139f00000000000000000000000000000000000000000000000000000000145b806106f057507f01ffc9a7000000000000000000000000000000000000000000000000000000006001600160e01b03198316145b92915050565b6060610160805461070690614230565b80601f016020809104026020016040519081016040528092919081815260200182805461073290614230565b801561077f5780601f106107545761010080835404028352916020019161077f565b820191906000526020600020905b81548152906001019060200180831161076257829003601f168201915b5050505050905090565b600081815261016260205260408120546001600160a01b03166108085760405162461bcd60e51b815260206004820152602c60248201527f4552433732313a20617070726f76656420717565727920666f72206e6f6e657860448201526b34b9ba32b73a103a37b5b2b760a11b60648201526084015b60405180910390fd5b50600090815261016460205260409020546001600160a01b031690565b6000610830826110b7565b9050806001600160a01b0316836001600160a01b031614156108ba5760405162461bcd60e51b815260206004820152602160248201527f4552433732313a20617070726f76616c20746f2063757272656e74206f776e6560448201527f720000000000000000000000000000000000000000000000000000000000000060648201526084016107ff565b336001600160a01b03821614806108d657506108d6813361062a565b6109485760405162461bcd60e51b815260206004820152603860248201527f4552433732313a20617070726f76652063616c6c6572206973206e6f74206f7760448201527f6e6572206e6f7220617070726f76656420666f7220616c6c000000000000000060648201526084016107ff565b6109528383611bd0565b505050565b600054610100900460ff1680610970575060005460ff16155b6109d35760405162461bcd60e51b815260206004820152602e60248201527f496e697469616c697a61626c653a20636f6e747261637420697320616c72656160448201526d191e481a5b9a5d1a585b1a5e995960921b60648201526084016107ff565b600054610100900460ff161580156109f5576000805461ffff19166101011790555b6109fe87611c3f565b610a0786611d39565b610a0f611e33565b610a8285858080601f01602080910402602001604051908101604052809392919081815260200183838082843760009201919091525050604080516020601f89018190048102820181019092528781529250879150869081908401838280828437600092019190915250611ef592505050565b8015610a94576000805461ff00191690555b50505050505050565b6002816002811115610ab157610ab16142c6565b10610afe5760405162461bcd60e51b815260206004820152601760248201527f696e76616c6964207065726d697373696f6e20736c6f7400000000000000000060448201526064016107ff565b6000816002811115610b1257610b126142c6565b1415610b4b57610b427f2a32a1662c1214ad9d5a31a0a1cb01ef357b3d1954570b75c128485ad3931dbc33611fc3565b610b4b57600080fd5b6001816002811115610b5f57610b5f6142c6565b1415610b8b57610b6e826110b7565b6001600160a01b0316336001600160a01b031614610b8b57600080fd5b610b9782826000612061565b5050565b610ba53382612077565b610c175760405162461bcd60e51b815260206004820152603160248201527f4552433732313a207472616e736665722063616c6c6572206973206e6f74206f60448201527f776e6572206e6f7220617070726f76656400000000000000000000000000000060648201526084016107ff565b610952838383612170565b60008181526101f6602052604081208054600182018054606093849392916002909101908290610c5190614230565b80601f0160208091040260200160405190810160405280929190818152602001828054610c7d90614230565b8015610cca5780601f10610c9f57610100808354040283529160200191610cca565b820191906000526020600020905b815481529060010190602001808311610cad57829003601f168201915b5050505050915080805480602002602001604051908101604052809291908181526020018280548015610d1c57602002820191906000526020600020905b815481526020019060010190808311610d08575b505050505090509250925092509193909250565b7f664245c7af190fec316596e8231f724e8171b1966cfcd124347ac5a66c34f64a610d5b8133611fc3565b610da65780335b6040517f75000dc000000000000000000000000000000000000000000000000000000000815260048101929092526001600160a01b031660248201526044016107ff565b610db1848484612340565b50505050565b306001600160a01b037f0000000000000000000000000000000000000000000000000000000000000000161415610e455760405162461bcd60e51b815260206004820152602c60248201527f46756e6374696f6e206d7573742062652063616c6c6564207468726f7567682060448201526b19195b1959d85d1958d85b1b60a21b60648201526084016107ff565b7f00000000000000000000000000000000000000000000000000000000000000006001600160a01b0316610ea07f360894a13ba1a3210667c828492db98dca3e2076cc3735a920a3ca505d382bbc546001600160a01b031690565b6001600160a01b031614610f0b5760405162461bcd60e51b815260206004820152602c60248201527f46756e6374696f6e206d7573742062652063616c6c6564207468726f7567682060448201526b6163746976652070726f787960a01b60648201526084016107ff565b610f148161246f565b60408051600080825260208201909252610f30918391906124a5565b50565b61095283838360405180602001604052806000815250611894565b306001600160a01b037f0000000000000000000000000000000000000000000000000000000000000000161415610fdc5760405162461bcd60e51b815260206004820152602c60248201527f46756e6374696f6e206d7573742062652063616c6c6564207468726f7567682060448201526b19195b1959d85d1958d85b1b60a21b60648201526084016107ff565b7f00000000000000000000000000000000000000000000000000000000000000006001600160a01b03166110377f360894a13ba1a3210667c828492db98dca3e2076cc3735a920a3ca505d382bbc546001600160a01b031690565b6001600160a01b0316146110a25760405162461bcd60e51b815260206004820152602c60248201527f46756e6374696f6e206d7573742062652063616c6c6564207468726f7567682060448201526b6163746976652070726f787960a01b60648201526084016107ff565b6110ab8261246f565b610b97828260016124a5565b600081815261016260205260408120546001600160a01b0316806106f05760405162461bcd60e51b815260206004820152602960248201527f4552433732313a206f776e657220717565727920666f72206e6f6e657869737460448201527f656e7420746f6b656e000000000000000000000000000000000000000000000060648201526084016107ff565b60006001600160a01b0382166111c15760405162461bcd60e51b815260206004820152602a60248201527f4552433732313a2062616c616e636520717565727920666f7220746865207a6560448201527f726f20616464726573730000000000000000000000000000000000000000000060648201526084016107ff565b506001600160a01b03166000908152610163602052604090205490565b8181808060200260200160405190810160405280939291908181526020018383602002808284376000920191909152506001925050505b81518110156112b9578161122a6001836141ed565b8151811061123a5761123a6142f2565b6020026020010151828281518110611254576112546142f2565b6020026020010151116112a95760405162461bcd60e51b815260206004820152601560248201527f56616c756573206d75737420626520736f72746564000000000000000000000060448201526064016107ff565b6112b28161426b565b9050611215565b508686868686866040516020016112d596959493929190613f3c565b60408051601f198184030181529181528151602092830120600081815261012d90935290822080549083905590919061130e898b612654565b6113528a89898080601f0160208091040260200160405190810160405280939291908181526020018383808284376000920191909152508b92508a91506127999050565b6113968a89898080601f0160208091040260200160405190810160405280939291908181526020018383808284376000920191909152508b92508a91506127a59050565b6113da8a89898080601f0160208091040260200160405190810160405280939291908181526020018383808284376000920191909152508b92508a91506127b19050565b50505050505050505050565b60006106f06102288361280f565b600081815261022a602052604081206106f09061281b565b600061141961022861281b565b905090565b6060610161805461070690614230565b6001600160a01b0382163314156114875760405162461bcd60e51b815260206004820152601960248201527f4552433732313a20617070726f766520746f2063616c6c65720000000000000060448201526064016107ff565b336000818152610165602090815260408083206001600160a01b03871680855290835292819020805460ff191686151590811790915590519081529192917f17307eab39ab6107e8899845ad3d59bd9653f200f220920489ca2b5937696c31910160405180910390a35050565b6114fd81612825565b60405181907f43343771105cc71439fde05af6660ad660519c971ddc249e5d5cd9c29da46d3890600090a250565b84611535816110b7565b6001600160a01b0316336001600160a01b0316146115955760405162461bcd60e51b815260206004820152601960248201527f5265737472696374656420746f206167656e74206f776e65720000000000000060448201526064016107ff565b8282808060200260200160405190810160405280939291908181526020018383602002808284376000920191909152506001925050505b815181101561167057816115e16001836141ed565b815181106115f1576115f16142f2565b602002602001015182828151811061160b5761160b6142f2565b6020026020010151116116605760405162461bcd60e51b815260206004820152601560248201527f56616c756573206d75737420626520736f72746564000000000000000000000060448201526064016107ff565b6116698161426b565b90506115cc565b50868686868660405160200161168a959493929190613f82565b60408051601f198184030181528282528051602091820120600081815261012d8352838120805490829055601f8b0184900484028601840190945289855290939092916116f7918c918c908c90819084018382808284376000920191909152508c92508b91506127999050565b61173b8a8a8a8080601f0160208091040260200160405190810160405280939291908181526020018383808284376000920191909152508c92508b91506127a59050565b6113da8a8a8a8080601f0160208091040260200160405190810160405280939291908181526020018383808284376000920191909152508c92508b91506127b19050565b600082815261022a60205260408120611798908361280f565b9392505050565b60608167ffffffffffffffff8111156117ba576117ba614308565b6040519080825280602002602001820160405280156117ed57816020015b60608152602001906001900390816117d85790505b50905060005b8281101561188d5761185d30858584818110611811576118116142f2565b9050602002810190611823919061417a565b8080601f01602080910402602001604051908101604052809392919081815260200183838082843760009201919091525061289692505050565b82828151811061186f5761186f6142f2565b602002602001018190525080806118859061426b565b9150506117f3565b5092915050565b61189e3383612077565b6119105760405162461bcd60e51b815260206004820152603160248201527f4552433732313a207472616e736665722063616c6c6572206973206e6f74206f60448201527f776e6572206e6f7220617070726f76656400000000000000000000000000000060648201526084016107ff565b610db1848484846128bb565b60006119288133611fc3565b611933578033610d62565b606580546001600160a01b0319166001600160a01b0384169081179091556040517f7aed1d3e8155a07ccf395e44ea3109a0e2d6c9b29bbbe9f142d9790596f4dc8090600090a25050565b600081815261016260205260409020546060906001600160a01b0316611a0c5760405162461bcd60e51b815260206004820152602f60248201527f4552433732314d657461646174613a2055524920717565727920666f72206e6f60448201527f6e6578697374656e7420746f6b656e000000000000000000000000000000000060648201526084016107ff565b6000611a2360408051602081019091526000815290565b90506000815111611a435760405180602001604052806000815250611798565b80611a4d84612944565b604051602001611a5e929190613f0d565b6040516020818303038152906040529392505050565b6000611a808133611fc3565b611a8b578033610d62565b603380546001600160a01b0319166001600160a01b0384169081179091556040517fa5bc17e575e3b53b23d0e93e121a5a66d1de4d5edb4dfde6027b14d79b7f2b9c90600090a25050565b6002816002811115611aea57611aea6142c6565b10611b375760405162461bcd60e51b815260206004820152601760248201527f696e76616c6964207065726d697373696f6e20736c6f7400000000000000000060448201526064016107ff565b6000816002811115611b4b57611b4b6142c6565b1415611b8457611b7b7f2a32a1662c1214ad9d5a31a0a1cb01ef357b3d1954570b75c128485ad3931dbc33611fc3565b611b8457600080fd5b6001816002811115611b9857611b986142c6565b1415611bc457611ba7826110b7565b6001600160a01b0316336001600160a01b031614611bc457600080fd5b610b9782826001612061565b60008181526101646020526040902080546001600160a01b0319166001600160a01b0384169081179091558190611c06826110b7565b6001600160a01b03167f8c5be1e5ebec7d5bd14f71427d1e84f3dd0314c0f7b2291e5b200ac8c7c3b92560405160405180910390a45050565b600054610100900460ff1680611c58575060005460ff16155b611cbb5760405162461bcd60e51b815260206004820152602e60248201527f496e697469616c697a61626c653a20636f6e747261637420697320616c72656160448201526d191e481a5b9a5d1a585b1a5e995960921b60648201526084016107ff565b600054610100900460ff16158015611cdd576000805461ffff19166101011790555b603380546001600160a01b0319166001600160a01b0384169081179091556040517fa5bc17e575e3b53b23d0e93e121a5a66d1de4d5edb4dfde6027b14d79b7f2b9c90600090a28015610b97576000805461ff00191690555050565b600054610100900460ff1680611d52575060005460ff16155b611db55760405162461bcd60e51b815260206004820152602e60248201527f496e697469616c697a61626c653a20636f6e747261637420697320616c72656160448201526d191e481a5b9a5d1a585b1a5e995960921b60648201526084016107ff565b600054610100900460ff16158015611dd7576000805461ffff19166101011790555b606580546001600160a01b0319166001600160a01b0384169081179091556040517f7aed1d3e8155a07ccf395e44ea3109a0e2d6c9b29bbbe9f142d9790596f4dc8090600090a28015610b97576000805461ff00191690555050565b600054610100900460ff1680611e4c575060005460ff16155b611eaf5760405162461bcd60e51b815260206004820152602e60248201527f496e697469616c697a61626c653a20636f6e747261637420697320616c72656160448201526d191e481a5b9a5d1a585b1a5e995960921b60648201526084016107ff565b600054610100900460ff16158015611ed1576000805461ffff19166101011790555b611ed9612a76565b611ee1612a76565b8015610f30576000805461ff001916905550565b600054610100900460ff1680611f0e575060005460ff16155b611f715760405162461bcd60e51b815260206004820152602e60248201527f496e697469616c697a61626c653a20636f6e747261637420697320616c72656160448201526d191e481a5b9a5d1a585b1a5e995960921b60648201526084016107ff565b600054610100900460ff16158015611f93576000805461ffff19166101011790555b611f9b612a76565b611fa3612a76565b611fad8383612b27565b8015610952576000805461ff0019169055505050565b6033546040517f91d14854000000000000000000000000000000000000000000000000000000008152600481018490526001600160a01b03838116602483015260009216906391d148549060440160206040518083038186803b15801561202957600080fd5b505afa15801561203d573d6000803e3d6000fd5b505050506040513d601f19601f820116820180604052508101906117989190613c1b565b61206c838383612c05565b610952838383612c91565b600081815261016260205260408120546001600160a01b03166120f15760405162461bcd60e51b815260206004820152602c60248201527f4552433732313a206f70657261746f7220717565727920666f72206e6f6e657860448201526b34b9ba32b73a103a37b5b2b760a11b60648201526084016107ff565b60006120fc836110b7565b9050806001600160a01b0316846001600160a01b031614806121375750836001600160a01b031661212c84610789565b6001600160a01b0316145b8061216857506001600160a01b038082166000908152610165602090815260408083209388168352929052205460ff165b949350505050565b826001600160a01b0316612183826110b7565b6001600160a01b0316146121ff5760405162461bcd60e51b815260206004820152602960248201527f4552433732313a207472616e73666572206f6620746f6b656e2074686174206960448201527f73206e6f74206f776e000000000000000000000000000000000000000000000060648201526084016107ff565b6001600160a01b03821661227a5760405162461bcd60e51b8152602060048201526024808201527f4552433732313a207472616e7366657220746f20746865207a65726f2061646460448201527f726573730000000000000000000000000000000000000000000000000000000060648201526084016107ff565b612285600082611bd0565b6001600160a01b0383166000908152610163602052604081208054600192906122af9084906141ed565b90915550506001600160a01b0382166000908152610163602052604081208054600192906122de9084906141c1565b90915550506000818152610162602052604080822080546001600160a01b0319166001600160a01b0386811691821790925591518493918716917fddf252ad1be2c89b69c2b068fc378daa952ba7f163c4a11628f55a4df523b3ef91a4505050565b6040517f02571be30000000000000000000000000000000000000000000000000000000081527f91d1777781884d03a6757a803996e38de2a42967fb37eeaca72729271025a9e260048201526001600160a01b038416906302571be39060240160206040518083038186803b1580156123b857600080fd5b505afa1580156123cc573d6000803e3d6000fd5b505050506040513d601f19601f820116820180604052508101906123f09190613942565b6001600160a01b031663c47f002783836040518363ffffffff1660e01b815260040161241d929190614087565b602060405180830381600087803b15801561243757600080fd5b505af115801561244b573d6000803e3d6000fd5b505050506040513d601f19601f82011682018060405250810190610db19190613c51565b7f189ab7a9244df0848122154315af71fe140f3db0fe014031783b0946b8c9d2e361249a8133611fc3565b610b97578033610d62565b60006124d87f360894a13ba1a3210667c828492db98dca3e2076cc3735a920a3ca505d382bbc546001600160a01b031690565b90506124e384612cef565b6000835111806124f05750815b15612501576124ff8484612da4565b505b7f4910fdfa16fed3260ed0e7147f7cc6da11a60208b5b9406d12a635614ffd9143805460ff1661264d57805460ff191660011781556040516001600160a01b038316602482015261259990869060440160408051601f198184030181529190526020810180516001600160e01b03167f3659cfe600000000000000000000000000000000000000000000000000000000179052612da4565b50805460ff191681557f360894a13ba1a3210667c828492db98dca3e2076cc3735a920a3ca505d382bbc546001600160a01b038381169116146126445760405162461bcd60e51b815260206004820152602f60248201527f45524331393637557067726164653a207570677261646520627265616b73206660448201527f757274686572207570677261646573000000000000000000000000000000000060648201526084016107ff565b61264d85612e8f565b5050505050565b6001600160a01b0382166126aa5760405162461bcd60e51b815260206004820181905260248201527f4552433732313a206d696e7420746f20746865207a65726f206164647265737360448201526064016107ff565b600081815261016260205260409020546001600160a01b0316156127105760405162461bcd60e51b815260206004820152601c60248201527f4552433732313a20746f6b656e20616c7265616479206d696e7465640000000060448201526064016107ff565b6001600160a01b03821660009081526101636020526040812080546001929061273a9084906141c1565b90915550506000818152610162602052604080822080546001600160a01b0319166001600160a01b03861690811790915590518392907fddf252ad1be2c89b69c2b068fc378daa952ba7f163c4a11628f55a4df523b3ef908290a45050565b610db184848484612ecf565b610db184848484613078565b610db1846040516024016127c791815260200190565b60408051601f198184030181529190526020810180516001600160e01b03167faa3f98030000000000000000000000000000000000000000000000000000000017905261321c565b600061179883836132a8565b60006106f0825490565b600081815261012d6020526040902054156128825760405162461bcd60e51b815260206004820152601560248201527f436f6d6d697420616c726561647920657869737473000000000000000000000060448201526064016107ff565b600090815261012d60205260409020429055565b60606117988383604051806060016040528060278152602001614358602791396132d2565b6128c6848484612170565b6128d2848484846133a6565b610db15760405162461bcd60e51b815260206004820152603260248201527f4552433732313a207472616e7366657220746f206e6f6e20455243373231526560448201527f63656976657220696d706c656d656e746572000000000000000000000000000060648201526084016107ff565b60608161298457505060408051808201909152600181527f3000000000000000000000000000000000000000000000000000000000000000602082015290565b8160005b81156129ae57806129988161426b565b91506129a79050600a836141d9565b9150612988565b60008167ffffffffffffffff8111156129c9576129c9614308565b6040519080825280601f01601f1916602001820160405280156129f3576020820181803683370190505b5090505b841561216857612a086001836141ed565b9150612a15600a86614286565b612a209060306141c1565b60f81b818381518110612a3557612a356142f2565b60200101907effffffffffffffffffffffffffffffffffffffffffffffffffffffffffffff1916908160001a905350612a6f600a866141d9565b94506129f7565b600054610100900460ff1680612a8f575060005460ff16155b612af25760405162461bcd60e51b815260206004820152602e60248201527f496e697469616c697a61626c653a20636f6e747261637420697320616c72656160448201526d191e481a5b9a5d1a585b1a5e995960921b60648201526084016107ff565b600054610100900460ff16158015611ee1576000805461ffff19166101011790558015610f30576000805461ff001916905550565b600054610100900460ff1680612b40575060005460ff16155b612ba35760405162461bcd60e51b815260206004820152602e60248201527f496e697469616c697a61626c653a20636f6e747261637420697320616c72656160448201526d191e481a5b9a5d1a585b1a5e995960921b60648201526084016107ff565b600054610100900460ff16158015612bc5576000805461ffff19166101011790555b8251612bd990610160906020860190613737565b508151612bee90610161906020850190613737565b508015610952576000805461ff0019169055505050565b612c34826002811115612c1a57612c1a6142c6565b60008581526101c4602052604090209060ff168315613509565b60008381526101c460209081526040808320838052909152902054151515837fb3910705ae5b4ecc20f77ab0d947aafd48ed7328af2294ca08dea714b041d6418484604051612c84929190614056565b60405180910390a3505050565b61095283604051602401612ca791815260200190565b60408051601f198184030181529190526020810180516001600160e01b03167fb01628740000000000000000000000000000000000000000000000000000000017905261321c565b803b612d635760405162461bcd60e51b815260206004820152602d60248201527f455243313936373a206e657720696d706c656d656e746174696f6e206973206e60448201527f6f74206120636f6e74726163740000000000000000000000000000000000000060648201526084016107ff565b7f360894a13ba1a3210667c828492db98dca3e2076cc3735a920a3ca505d382bbc80546001600160a01b0319166001600160a01b0392909216919091179055565b6060823b612e035760405162461bcd60e51b815260206004820152602660248201527f416464726573733a2064656c65676174652063616c6c20746f206e6f6e2d636f6044820152651b9d1c9858dd60d21b60648201526084016107ff565b600080846001600160a01b031684604051612e1e9190613e55565b600060405180830381855af49150503d8060008114612e59576040519150601f19603f3d011682016040523d82523d6000602084013e612e5e565b606091505b5091509150612e86828260405180606001604052806027815260200161435860279139613558565b95945050505050565b612e9881612cef565b6040516001600160a01b038216907fbc7cd75a20ee27fd9adebab32041f755214dbc6bffa90cc0225b39da2e5c2d3b90600090a250565b600080612edb86610c22565b92505091508160001415612ef757612ef561022887613591565b505b6000805b8251821080612f0957508481105b1561306e578251821415612f6657612f608861022a6000898986612f2c8161426b565b9750818110612f3d57612f3d6142f2565b90506020020135815260200190815260200160002061359190919063ffffffff16565b50612efb565b80851415612fb857612f608861022a60008686612f828161426b565b975081518110612f9457612f946142f2565b6020026020010151815260200190815260200160002061359d90919063ffffffff16565b858582818110612fca57612fca6142f2565b90506020020135838381518110612fe357612fe36142f2565b6020026020010151101561300557612f608861022a60008686612f828161426b565b858582818110613017576130176142f2565b90506020020135838381518110613030576130306142f2565b6020026020010151111561305357612f608861022a6000898986612f2c8161426b565b61305c8261426b565b91506130678161426b565b9050612efb565b5050505050505050565b613084848484846135a9565b60008481526101f6602052604080822090516130a39160010190613e71565b6040805191829003909120855160208088019190912060008181526101f79092529290205490925060ff16156131415760405162461bcd60e51b815260206004820152602b60248201527f4572726f723a206d657461646174612073686f756c64206265206120756e697160448201527f75652070726f706572747900000000000000000000000000000000000000000060648201526084016107ff565b60008181526101f7602090815260408083208054600160ff199182168117909255868552828520805490911690558984526101f6909252822054613184916141c1565b9050604051806060016040528082815260200187815260200186868080602002602001604051908101604052809392919081815260200183836020028082843760009201829052509390945250508981526101f66020908152604090912083518155838201518051919350613200926001850192910190613737565b50604082015180516113da9160028401916020909101906137bb565b6065546001600160a01b031615610f30576065546040517f3fa222c40000000000000000000000000000000000000000000000000000000081526001600160a01b0390911690633fa222c490613276908490600401614043565b600060405180830381600087803b15801561329057600080fd5b505af19250505080156132a1575060015b610f305750565b60008260000182815481106132bf576132bf6142f2565b9060005260206000200154905092915050565b6060833b6133315760405162461bcd60e51b815260206004820152602660248201527f416464726573733a2064656c65676174652063616c6c20746f206e6f6e2d636f6044820152651b9d1c9858dd60d21b60648201526084016107ff565b600080856001600160a01b03168560405161334c9190613e55565b600060405180830381855af49150503d8060008114613387576040519150601f19603f3d011682016040523d82523d6000602084013e61338c565b606091505b509150915061339c828286613558565b9695505050505050565b60006001600160a01b0384163b156134fe57604051630a85bd0160e11b81526001600160a01b0385169063150b7a02906133ea903390899088908890600401613faf565b602060405180830381600087803b15801561340457600080fd5b505af1925050508015613434575060408051601f3d908101601f1916820190925261343191810190613c87565b60015b6134e4573d808015613462576040519150601f19603f3d011682016040523d82523d6000602084013e613467565b606091505b5080516134dc5760405162461bcd60e51b815260206004820152603260248201527f4552433732313a207472616e7366657220746f206e6f6e20455243373231526560448201527f63656976657220696d706c656d656e746572000000000000000000000000000060648201526084016107ff565b805181602001fd5b6001600160e01b031916630a85bd0160e11b149050612168565b506001949350505050565b801561353357600882901c60009081526020849052604090208054600160ff85161b179055505050565b600882901c60009081526020849052604090208054600160ff85161b19169055505050565b60608315613567575081611798565b8251156135775782518084602001fd5b8160405162461bcd60e51b81526004016107ff9190614043565b600061179883836135f5565b60006117988383613644565b336001600160a01b0316847f334f6d330b99b468cd5f1185b6926d611b5471d99134d7cd171f7541f2e6bff68585856040516135e7939291906140b6565b60405180910390a350505050565b600081815260018301602052604081205461363c575081546001818101845560008481526020808220909301849055845484825282860190935260409020919091556106f0565b5060006106f0565b6000818152600183016020526040812054801561372d5760006136686001836141ed565b855490915060009061367c906001906141ed565b90508181146136e157600086600001828154811061369c5761369c6142f2565b90600052602060002001549050808760000184815481106136bf576136bf6142f2565b6000918252602080832090910192909255918252600188019052604090208390555b85548690806136f2576136f26142dc565b6001900381819060005260206000200160009055905585600101600086815260200190815260200160002060009055600193505050506106f0565b60009150506106f0565b82805461374390614230565b90600052602060002090601f01602090048101928261376557600085556137ab565b82601f1061377e57805160ff19168380011785556137ab565b828001600101855582156137ab579182015b828111156137ab578251825591602001919060010190613790565b506137b79291506137f5565b5090565b8280548282559060005260206000209081019282156137ab57916020028201828111156137ab578251825591602001919060010190613790565b5b808211156137b757600081556001016137f6565b60008083601f84011261381c57600080fd5b50813567ffffffffffffffff81111561383457600080fd5b6020830191508360208260051b850101111561384f57600080fd5b9250929050565b600082601f83011261386757600080fd5b813567ffffffffffffffff8082111561388257613882614308565b604051601f8301601f19908116603f011681019082821181831017156138aa576138aa614308565b816040528381528660208588010111156138c357600080fd5b836020870160208301376000602085830101528094505050505092915050565b60008083601f8401126138f557600080fd5b50813567ffffffffffffffff81111561390d57600080fd5b60208301915083602082850101111561384f57600080fd5b60006020828403121561393757600080fd5b81356117988161431e565b60006020828403121561395457600080fd5b81516117988161431e565b6000806040838503121561397257600080fd5b823561397d8161431e565b9150602083013561398d8161431e565b809150509250929050565b600080600080600080608087890312156139b157600080fd5b86356139bc8161431e565b955060208701356139cc8161431e565b9450604087013567ffffffffffffffff808211156139e957600080fd5b6139f58a838b016138e3565b90965094506060890135915080821115613a0e57600080fd5b50613a1b89828a016138e3565b979a9699509497509295939492505050565b600080600060608486031215613a4257600080fd5b8335613a4d8161431e565b92506020840135613a5d8161431e565b929592945050506040919091013590565b60008060008060808587031215613a8457600080fd5b8435613a8f8161431e565b93506020850135613a9f8161431e565b925060408501359150606085013567ffffffffffffffff811115613ac257600080fd5b613ace87828801613856565b91505092959194509250565b60008060408385031215613aed57600080fd5b8235613af88161431e565b9150602083013561398d81614333565b60008060408385031215613b1b57600080fd5b8235613b268161431e565b9150602083013567ffffffffffffffff811115613b4257600080fd5b613b4e85828601613856565b9150509250929050565b600080600060408486031215613b6d57600080fd5b8335613b788161431e565b9250602084013567ffffffffffffffff811115613b9457600080fd5b613ba0868287016138e3565b9497909650939450505050565b60008060408385031215613bc057600080fd5b8235613bcb8161431e565b946020939093013593505050565b60008060208385031215613bec57600080fd5b823567ffffffffffffffff811115613c0357600080fd5b613c0f8582860161380a565b90969095509350505050565b600060208284031215613c2d57600080fd5b815161179881614333565b600060208284031215613c4a57600080fd5b5035919050565b600060208284031215613c6357600080fd5b5051919050565b600060208284031215613c7c57600080fd5b813561179881614341565b600060208284031215613c9957600080fd5b815161179881614341565b60008060008060008060808789031215613cbd57600080fd5b863595506020870135613ccf8161431e565b9450604087013567ffffffffffffffff80821115613cec57600080fd5b613cf88a838b016138e3565b90965094506060890135915080821115613d1157600080fd5b50613a1b89828a0161380a565b60008060408385031215613d3157600080fd5b8235915060208301356003811061398d57600080fd5b600080600080600060608688031215613d5f57600080fd5b85359450602086013567ffffffffffffffff80821115613d7e57600080fd5b613d8a89838a016138e3565b90965094506040880135915080821115613da357600080fd5b50613db08882890161380a565b969995985093965092949392505050565b60008060408385031215613dd457600080fd5b50508035926020909101359150565b60007f07ffffffffffffffffffffffffffffffffffffffffffffffffffffffffffffff831115613e1257600080fd5b8260051b8083863760009401938452509192915050565b60008151808452613e41816020860160208601614204565b601f01601f19169290920160200192915050565b60008251613e67818460208701614204565b9190910192915050565b600080835481600182811c915080831680613e8d57607f831692505b6020808410821415613ead57634e487b7160e01b86526022600452602486fd5b818015613ec15760018114613ed257613eff565b60ff19861689528489019650613eff565b60008a81526020902060005b86811015613ef75781548b820152908501908301613ede565b505084890196505b509498975050505050505050565b60008351613f1f818460208801614204565b835190830190613f33818360208801614204565b01949350505050565b8681526bffffffffffffffffffffffff198660601b16602082015283856034830137600060348583010160008152613f75818587613de3565b9998505050505050505050565b85815283856020830137600060208583010160008152613fa3818587613de3565b98975050505050505050565b60006001600160a01b0380871683528086166020840152508360408301526080606083015261339c6080830184613e29565b6000602080830181845280855180835260408601915060408160051b870101925083870160005b8281101561403657603f19888603018452614024858351613e29565b94509285019290850190600101614008565b5092979650505050505050565b6020815260006117986020830184613e29565b604081016003841061407857634e487b7160e01b600052602160045260246000fd5b92815290151560209091015290565b60208152816020820152818360408301376000818301604090810191909152601f909201601f19160101919050565b6040815260006140c96040830186613e29565b82810360208401528381527f07ffffffffffffffffffffffffffffffffffffffffffffffffffffffffffffff84111561410157600080fd5b8360051b808660208401376000910160200190815295945050505050565b838152600060206060818401526141396060840186613e29565b838103604085015284518082528286019183019060005b8181101561416c57835183529284019291840191600101614150565b509098975050505050505050565b6000808335601e1984360301811261419157600080fd5b83018035915067ffffffffffffffff8211156141ac57600080fd5b60200191503681900382131561384f57600080fd5b600082198211156141d4576141d461429a565b500190565b6000826141e8576141e86142b0565b500490565b6000828210156141ff576141ff61429a565b500390565b60005b8381101561421f578181015183820152602001614207565b83811115610db15750506000910152565b600181811c9082168061424457607f821691505b6020821081141561426557634e487b7160e01b600052602260045260246000fd5b50919050565b600060001982141561427f5761427f61429a565b5060010190565b600082614295576142956142b0565b500690565b634e487b7160e01b600052601160045260246000fd5b634e487b7160e01b600052601260045260246000fd5b634e487b7160e01b600052602160045260246000fd5b634e487b7160e01b600052603160045260246000fd5b634e487b7160e01b600052603260045260246000fd5b634e487b7160e01b600052604160045260246000fd5b6001600160a01b0381168114610f3057600080fd5b8015158114610f3057600080fd5b6001600160e01b031981168114610f3057600080fdfe416464726573733a206c6f772d6c6576656c2064656c65676174652063616c6c206661696c6564a26469706673582212203f82fd47757932f89528ee43a86311a36f3e6c30b9cdcf929cf4b5485063e3e164736f6c63430008070033",
  "linkReferences": {},
  "deployedLinkReferences": {}
}