{
  "_format": "hh-sol-artifact-1",
  "contractName": "Dispatch",
  "sourceName": "contracts/components/dispatch/Dispatch.sol",
  "abi": [
    {
      "inputs": [],
      "stateMutability": "nonpayable",
      "type": "constructor"
    },
    {
      "anonymous": false,
      "inputs": [
        {
          "indexed": true,
          "internalType": "address",
          "name": "newAddressManager",
          "type": "address"
        }
      ],
      "name": "AccessManagerUpdated",
      "type": "event"
    },
    {
      "anonymous": false,
      "inputs": [
        {
          "indexed": false,
          "internalType": "address",
          "name": "previousAdmin",
          "type": "address"
        },
        {
          "indexed": false,
          "internalType": "address",
          "name": "newAdmin",
          "type": "address"
        }
      ],
      "name": "AdminChanged",
      "type": "event"
    },
    {
      "anonymous": false,
      "inputs": [
        {
          "indexed": true,
          "internalType": "address",
          "name": "beacon",
          "type": "address"
        }
      ],
      "name": "BeaconUpgraded",
      "type": "event"
    },
    {
      "anonymous": false,
      "inputs": [
        {
          "indexed": false,
          "internalType": "uint256",
          "name": "agentId",
          "type": "uint256"
        },
        {
          "indexed": false,
          "internalType": "uint256",
          "name": "scannerId",
          "type": "uint256"
        },
        {
          "indexed": false,
          "internalType": "bool",
          "name": "enable",
          "type": "bool"
        }
      ],
      "name": "Link",
      "type": "event"
    },
    {
      "anonymous": false,
      "inputs": [
        {
          "indexed": true,
          "internalType": "address",
          "name": "router",
          "type": "address"
        }
      ],
      "name": "RouterUpdated",
      "type": "event"
    },
    {
      "anonymous": false,
      "inputs": [
        {
          "indexed": true,
          "internalType": "address",
          "name": "implementation",
          "type": "address"
        }
      ],
      "name": "Upgraded",
      "type": "event"
    },
    {
      "inputs": [],
      "name": "DEFAULT_ADMIN_ROLE",
      "outputs": [
        {
          "internalType": "bytes32",
          "name": "",
          "type": "bytes32"
        }
      ],
      "stateMutability": "view",
      "type": "function"
    },
    {
      "inputs": [
        {
          "internalType": "uint256",
          "name": "agentId",
          "type": "uint256"
        }
      ],
      "name": "agentHash",
      "outputs": [
        {
          "internalType": "uint256",
          "name": "length",
          "type": "uint256"
        },
        {
          "internalType": "bytes32",
          "name": "manifest",
          "type": "bytes32"
        }
      ],
      "stateMutability": "view",
      "type": "function"
    },
    {
      "inputs": [
        {
          "internalType": "uint256",
          "name": "scannerId",
          "type": "uint256"
        },
        {
          "internalType": "uint256",
          "name": "pos",
          "type": "uint256"
        }
      ],
      "name": "agentRefAt",
      "outputs": [
        {
          "internalType": "uint256",
          "name": "agentId",
          "type": "uint256"
        },
        {
          "internalType": "bool",
          "name": "enabled",
          "type": "bool"
        },
        {
          "internalType": "uint256",
          "name": "version",
          "type": "uint256"
        },
        {
          "internalType": "string",
          "name": "metadata",
          "type": "string"
        },
        {
          "internalType": "uint256[]",
          "name": "chainIds",
          "type": "uint256[]"
        }
      ],
      "stateMutability": "view",
      "type": "function"
    },
    {
      "inputs": [],
      "name": "agentRegistry",
      "outputs": [
        {
          "internalType": "contract AgentRegistry",
          "name": "",
          "type": "address"
        }
      ],
      "stateMutability": "view",
      "type": "function"
    },
    {
      "inputs": [
        {
          "internalType": "uint256",
          "name": "scannerId",
          "type": "uint256"
        },
        {
          "internalType": "uint256",
          "name": "pos",
          "type": "uint256"
        }
      ],
      "name": "agentsAt",
      "outputs": [
        {
          "internalType": "uint256",
          "name": "",
          "type": "uint256"
        }
      ],
      "stateMutability": "view",
      "type": "function"
    },
    {
      "inputs": [
        {
          "internalType": "uint256",
          "name": "scannerId",
          "type": "uint256"
        }
      ],
      "name": "agentsFor",
      "outputs": [
        {
          "internalType": "uint256",
          "name": "",
          "type": "uint256"
        }
      ],
      "stateMutability": "view",
      "type": "function"
    },
    {
      "inputs": [
        {
          "internalType": "address",
          "name": "__manager",
          "type": "address"
        },
        {
          "internalType": "address",
          "name": "__router",
          "type": "address"
        },
        {
          "internalType": "address",
          "name": "__agents",
          "type": "address"
        },
        {
          "internalType": "address",
          "name": "__scanners",
          "type": "address"
        }
      ],
      "name": "initialize",
      "outputs": [],
      "stateMutability": "nonpayable",
      "type": "function"
    },
    {
      "inputs": [
        {
          "internalType": "uint256",
          "name": "agentId",
          "type": "uint256"
        },
        {
          "internalType": "uint256",
          "name": "scannerId",
          "type": "uint256"
        }
      ],
      "name": "link",
      "outputs": [],
      "stateMutability": "nonpayable",
      "type": "function"
    },
    {
      "inputs": [
        {
          "internalType": "bytes[]",
          "name": "data",
          "type": "bytes[]"
        }
      ],
      "name": "multicall",
      "outputs": [
        {
          "internalType": "bytes[]",
          "name": "results",
          "type": "bytes[]"
        }
      ],
      "stateMutability": "nonpayable",
      "type": "function"
    },
    {
      "inputs": [
        {
          "internalType": "uint256",
          "name": "scannerId",
          "type": "uint256"
        }
      ],
      "name": "scannerHash",
      "outputs": [
        {
          "internalType": "uint256",
          "name": "length",
          "type": "uint256"
        },
        {
          "internalType": "bytes32",
          "name": "manifest",
          "type": "bytes32"
        }
      ],
      "stateMutability": "view",
      "type": "function"
    },
    {
      "inputs": [
        {
          "internalType": "uint256",
          "name": "agentId",
          "type": "uint256"
        },
        {
          "internalType": "uint256",
          "name": "pos",
          "type": "uint256"
        }
      ],
      "name": "scannerRefAt",
      "outputs": [
        {
          "internalType": "uint256",
          "name": "scannerId",
          "type": "uint256"
        },
        {
          "internalType": "bool",
          "name": "enabled",
          "type": "bool"
        }
      ],
      "stateMutability": "view",
      "type": "function"
    },
    {
      "inputs": [],
      "name": "scannerRegistry",
      "outputs": [
        {
          "internalType": "contract ScannerRegistry",
          "name": "",
          "type": "address"
        }
      ],
      "stateMutability": "view",
      "type": "function"
    },
    {
      "inputs": [
        {
          "internalType": "uint256",
          "name": "agentId",
          "type": "uint256"
        },
        {
          "internalType": "uint256",
          "name": "pos",
          "type": "uint256"
        }
      ],
      "name": "scannersAt",
      "outputs": [
        {
          "internalType": "uint256",
          "name": "",
          "type": "uint256"
        }
      ],
      "stateMutability": "view",
      "type": "function"
    },
    {
      "inputs": [
        {
          "internalType": "uint256",
          "name": "agentId",
          "type": "uint256"
        }
      ],
      "name": "scannersFor",
      "outputs": [
        {
          "internalType": "uint256",
          "name": "",
          "type": "uint256"
        }
      ],
      "stateMutability": "view",
      "type": "function"
    },
    {
      "inputs": [
        {
          "internalType": "address",
          "name": "newManager",
          "type": "address"
        }
      ],
      "name": "setAccessManager",
      "outputs": [],
      "stateMutability": "nonpayable",
      "type": "function"
    },
    {
      "inputs": [
        {
          "internalType": "address",
          "name": "newAgentRegistry",
          "type": "address"
        }
      ],
      "name": "setAgentRegistry",
      "outputs": [],
      "stateMutability": "nonpayable",
      "type": "function"
    },
    {
      "inputs": [
        {
          "internalType": "address",
          "name": "ensRegistry",
          "type": "address"
        },
        {
          "internalType": "string",
          "name": "ensName",
          "type": "string"
        }
      ],
      "name": "setName",
      "outputs": [],
      "stateMutability": "nonpayable",
      "type": "function"
    },
    {
      "inputs": [
        {
          "internalType": "address",
          "name": "newRouter",
          "type": "address"
        }
      ],
      "name": "setRouter",
      "outputs": [],
      "stateMutability": "nonpayable",
      "type": "function"
    },
    {
      "inputs": [
        {
          "internalType": "address",
          "name": "newScannerRegistry",
          "type": "address"
        }
      ],
      "name": "setScannerRegistry",
      "outputs": [],
      "stateMutability": "nonpayable",
      "type": "function"
    },
    {
      "inputs": [
        {
          "internalType": "uint256",
          "name": "agentId",
          "type": "uint256"
        },
        {
          "internalType": "uint256",
          "name": "scannerId",
          "type": "uint256"
        }
      ],
      "name": "unlink",
      "outputs": [],
      "stateMutability": "nonpayable",
      "type": "function"
    },
    {
      "inputs": [
        {
          "internalType": "address",
          "name": "newImplementation",
          "type": "address"
        }
      ],
      "name": "upgradeTo",
      "outputs": [],
      "stateMutability": "nonpayable",
      "type": "function"
    },
    {
      "inputs": [
        {
          "internalType": "address",
          "name": "newImplementation",
          "type": "address"
        },
        {
          "internalType": "bytes",
          "name": "data",
          "type": "bytes"
        }
      ],
      "name": "upgradeToAndCall",
      "outputs": [],
      "stateMutability": "payable",
      "type": "function"
    }
  ],
  "bytecode": "0x60a06040523060601b60805234801561001757600080fd5b50600054610100900460ff1680610031575060005460ff16155b6100985760405162461bcd60e51b815260206004820152602e60248201527f496e697469616c697a61626c653a20636f6e747261637420697320616c72656160448201526d191e481a5b9a5d1a585b1a5e995960921b606482015260840160405180910390fd5b600054610100900460ff161580156100ba576000805461ffff19166101011790555b80156100cc576000805461ff00191690555b5060805160601c612858620001016000396000818161093a015281816109bf01528181610ab60152610b3b01526128586000f3fe6080604052600436106101755760003560e01c806386cf48e7116100cb578063c0d786551161007f578063ded838c711610059578063ded838c714610431578063e323cba514610451578063f8c8765e1461047157600080fd5b8063c0d78655146103d1578063c2c2e46a146103f1578063c95808041461041157600080fd5b8063a217fddf116100b0578063a217fddf1461035a578063ac9650d81461036f578063b1774f9d1461039c57600080fd5b806386cf48e7146103055780638b2e98d61461032557600080fd5b80633121db1c1161012d5780634f1ef286116101075780634f1ef286146102b35780635e9f88b1146102c65780636b254492146102e557600080fd5b80633121db1c1461024257806332dee2f6146102625780633659cfe61461029357600080fd5b80630c65b39d1161015e5780630c65b39d146101cd5780630d1cfcae146101ef57806328342ecf1461022257600080fd5b806308eb7d4f1461017a5780630a2bc370146101ad575b600080fd5b34801561018657600080fd5b5061019a61019536600461234d565b610491565b6040519081526020015b60405180910390f35b3480156101b957600080fd5b5061019a6101c836600461247e565b6104af565b3480156101d957600080fd5b506101ed6101e836600461247e565b6104cf565b005b3480156101fb57600080fd5b5061012d546001600160a01b03165b6040516001600160a01b0390911681526020016101a4565b34801561022e57600080fd5b506101ed61023d3660046120ef565b610772565b34801561024e57600080fd5b506101ed61025d366004612218565b6107ad565b34801561026e57600080fd5b5061028261027d36600461247e565b6107f4565b6040516101a495949392919061261e565b34801561029f57600080fd5b506101ed6102ae3660046120ef565b61092f565b6101ed6102c1366004612185565b610aab565b3480156102d257600080fd5b5061012e546001600160a01b031661020a565b3480156102f157600080fd5b506101ed6103003660046120ef565b610c18565b34801561031157600080fd5b506101ed61032036600461247e565b610c53565b34801561033157600080fd5b5061034561034036600461247e565b610ea8565b604080519283529015156020830152016101a4565b34801561036657600080fd5b5061019a600081565b34801561037b57600080fd5b5061038f61038a36600461229d565b610f3c565b6040516101a4919061257a565b3480156103a857600080fd5b506103bc6103b736600461234d565b611031565b604080519283526020830191909152016101a4565b3480156103dd57600080fd5b506101ed6103ec3660046120ef565b6112bb565b3480156103fd57600080fd5b506103bc61040c36600461234d565b61131d565b34801561041d57600080fd5b506101ed61042c3660046120ef565b611498565b34801561043d57600080fd5b5061019a61044c36600461234d565b6114fa565b34801561045d57600080fd5b5061019a61046c36600461247e565b611512565b34801561047d57600080fd5b506101ed61048c366004612129565b61152b565b6000818152610130602052604081206104a990611626565b92915050565b6000828152610130602052604081206104c89083611630565b9392505050565b7ffbd38eecf51668fdbc772b204dc63dd28c3a3cf32e3025f52a80aa807359f50c6104fa813361163c565b61054a5780335b6040517f75000dc000000000000000000000000000000000000000000000000000000000815260048101929092526001600160a01b031660248201526044015b60405180910390fd5b61012d546040516331a9108f60e11b8152600481018590526000916001600160a01b031690636352211e9060240160206040518083038186803b15801561059057600080fd5b505afa1580156105a4573d6000803e3d6000fd5b505050506040513d601f19601f820116820180604052508101906105c8919061210c565b6001600160a01b0316141561061f5760405162461bcd60e51b815260206004820152601060248201527f696e76616c6964206167656e74206964000000000000000000000000000000006044820152606401610541565b61012e546040516331a9108f60e11b8152600481018490526000916001600160a01b031690636352211e9060240160206040518083038186803b15801561066557600080fd5b505afa158015610679573d6000803e3d6000fd5b505050506040513d601f19601f8201168201806040525081019061069d919061210c565b6001600160a01b031614156106f45760405162461bcd60e51b815260206004820152601260248201527f696e76616c6964207363616e6e657220696400000000000000000000000000006044820152606401610541565b600082815261012f6020526040902061070d90846116da565b5060008381526101306020526040902061072790836116da565b5060408051848152602081018490526000918101919091527ff1b8cb2c3105270e747f9df25ec991871d6732bb7c7b86a088fe7d59c9272bbf906060015b60405180910390a1505050565b600061077e813361163c565b610789578033610501565b5061012d80546001600160a01b0319166001600160a01b0392909216919091179055565b7f664245c7af190fec316596e8231f724e8171b1966cfcd124347ac5a66c34f64a6107d8813361163c565b6107e3578033610501565b6107ee8484846116e6565b50505050565b60008060006060806108068787611512565b61012d546040516331e0c0d360e21b8152600481018390529196506001600160a01b03169063c783034c9060240160206040518083038186803b15801561084c57600080fd5b505afa158015610860573d6000803e3d6000fd5b505050506040513d601f19601f820116820180604052508101906108849190612312565b61012d546040517f2de5aaf7000000000000000000000000000000000000000000000000000000008152600481018890529195506001600160a01b031690632de5aaf79060240160006040518083038186803b1580156108e357600080fd5b505afa1580156108f7573d6000803e3d6000fd5b505050506040513d6000823e601f3d908101601f1916820160405261091f9190810190612366565b9699959850909650949392505050565b306001600160a01b037f00000000000000000000000000000000000000000000000000000000000000001614156109bd5760405162461bcd60e51b815260206004820152602c60248201527f46756e6374696f6e206d7573742062652063616c6c6564207468726f7567682060448201526b19195b1959d85d1958d85b1b60a21b6064820152608401610541565b7f00000000000000000000000000000000000000000000000000000000000000006001600160a01b0316610a187f360894a13ba1a3210667c828492db98dca3e2076cc3735a920a3ca505d382bbc546001600160a01b031690565b6001600160a01b031614610a835760405162461bcd60e51b815260206004820152602c60248201527f46756e6374696f6e206d7573742062652063616c6c6564207468726f7567682060448201526b6163746976652070726f787960a01b6064820152608401610541565b610a8c81611815565b60408051600080825260208201909252610aa89183919061184b565b50565b306001600160a01b037f0000000000000000000000000000000000000000000000000000000000000000161415610b395760405162461bcd60e51b815260206004820152602c60248201527f46756e6374696f6e206d7573742062652063616c6c6564207468726f7567682060448201526b19195b1959d85d1958d85b1b60a21b6064820152608401610541565b7f00000000000000000000000000000000000000000000000000000000000000006001600160a01b0316610b947f360894a13ba1a3210667c828492db98dca3e2076cc3735a920a3ca505d382bbc546001600160a01b031690565b6001600160a01b031614610bff5760405162461bcd60e51b815260206004820152602c60248201527f46756e6374696f6e206d7573742062652063616c6c6564207468726f7567682060448201526b6163746976652070726f787960a01b6064820152608401610541565b610c0882611815565b610c148282600161184b565b5050565b6000610c24813361163c565b610c2f578033610501565b5061012e80546001600160a01b0319166001600160a01b0392909216919091179055565b7ffbd38eecf51668fdbc772b204dc63dd28c3a3cf32e3025f52a80aa807359f50c610c7e813361163c565b610c89578033610501565b61012d546040516331a9108f60e11b8152600481018590526000916001600160a01b031690636352211e9060240160206040518083038186803b158015610ccf57600080fd5b505afa158015610ce3573d6000803e3d6000fd5b505050506040513d601f19601f82011682018060405250810190610d07919061210c565b6001600160a01b03161415610d5e5760405162461bcd60e51b815260206004820152601060248201527f696e76616c6964206167656e74206964000000000000000000000000000000006044820152606401610541565b61012e546040516331a9108f60e11b8152600481018490526000916001600160a01b031690636352211e9060240160206040518083038186803b158015610da457600080fd5b505afa158015610db8573d6000803e3d6000fd5b505050506040513d601f19601f82011682018060405250810190610ddc919061210c565b6001600160a01b03161415610e335760405162461bcd60e51b815260206004820152601260248201527f696e76616c6964207363616e6e657220696400000000000000000000000000006044820152606401610541565b600082815261012f60205260409020610e4c9084611a08565b50600083815261013060205260409020610e669083611a08565b5060408051848152602081018490526001918101919091527ff1b8cb2c3105270e747f9df25ec991871d6732bb7c7b86a088fe7d59c9272bbf90606001610765565b600080610eb58484611512565b61012e546040516331e0c0d360e21b8152600481018790529193506001600160a01b03169063c783034c9060240160206040518083038186803b158015610efb57600080fd5b505afa158015610f0f573d6000803e3d6000fd5b505050506040513d601f19601f82011682018060405250810190610f339190612312565b90509250929050565b60608167ffffffffffffffff811115610f5757610f576127d0565b604051908082528060200260200182016040528015610f8a57816020015b6060815260200190600190039081610f755790505b50905060005b8281101561102a57610ffa30858584818110610fae57610fae6127ba565b9050602002810190610fc09190612689565b8080601f016020809104026020016040519081016040528093929190818152602001838380828437600092019190915250611a1492505050565b82828151811061100c5761100c6127ba565b6020026020010181905250808061102290612773565b915050610f90565b5092915050565b600081815261012f602052604081208190819061104d90611a39565b90506000815167ffffffffffffffff81111561106b5761106b6127d0565b604051908082528060200260200182016040528015611094578160200160208202803683370190505b5090506000825167ffffffffffffffff8111156110b3576110b36127d0565b6040519080825280602002602001820160405280156110dc578160200160208202803683370190505b50905060005b83518110156112815761012d5484516001600160a01b0390911690632de5aaf790869084908110611115576111156127ba565b60200260200101516040518263ffffffff1660e01b815260040161113b91815260200190565b60006040518083038186803b15801561115357600080fd5b505afa158015611167573d6000803e3d6000fd5b505050506040513d6000823e601f3d908101601f1916820160405261118f9190810190612366565b9050508382815181106111a4576111a46127ba565b602090810291909101015261012d5484516001600160a01b039091169063c783034c908690849081106111d9576111d96127ba565b60200260200101516040518263ffffffff1660e01b81526004016111ff91815260200190565b60206040518083038186803b15801561121757600080fd5b505afa15801561122b573d6000803e3d6000fd5b505050506040513d601f19601f8201168201806040525081019061124f9190612312565b828281518110611261576112616127ba565b9115156020928302919091019091015261127a81612773565b90506110e2565b50825183838360405160200161129993929190612546565b6040516020818303038152906040528051906020012094509450505050915091565b60006112c7813361163c565b6112d2578033610501565b606580546001600160a01b0319166001600160a01b0384169081179091556040517f7aed1d3e8155a07ccf395e44ea3109a0e2d6c9b29bbbe9f142d9790596f4dc8090600090a25050565b6000818152610130602052604081208190819061133990611a39565b90506000815167ffffffffffffffff811115611357576113576127d0565b604051908082528060200260200182016040528015611380578160200160208202803683370190505b50905060005b82518110156114615761012e5483516001600160a01b039091169063c783034c908590849081106113b9576113b96127ba565b60200260200101516040518263ffffffff1660e01b81526004016113df91815260200190565b60206040518083038186803b1580156113f757600080fd5b505afa15801561140b573d6000803e3d6000fd5b505050506040513d601f19601f8201168201806040525081019061142f9190612312565b828281518110611441576114416127ba565b9115156020928302919091019091015261145a81612773565b9050611386565b5081518282604051602001611477929190612529565b60405160208183030381529060405280519060200120935093505050915091565b60006114a4813361163c565b6114af578033610501565b603380546001600160a01b0319166001600160a01b0384169081179091556040517fa5bc17e575e3b53b23d0e93e121a5a66d1de4d5edb4dfde6027b14d79b7f2b9c90600090a25050565b600081815261012f602052604081206104a990611626565b600082815261012f602052604081206104c89083611630565b600054610100900460ff1680611544575060005460ff16155b6115a75760405162461bcd60e51b815260206004820152602e60248201527f496e697469616c697a61626c653a20636f6e747261637420697320616c72656160448201526d191e481a5b9a5d1a585b1a5e995960921b6064820152608401610541565b600054610100900460ff161580156115c9576000805461ffff19166101011790555b6115d285611a46565b6115db84611b40565b61012d80546001600160a01b038086166001600160a01b03199283161790925561012e805492851692909116919091179055801561161f576000805461ff00191690555b5050505050565b60006104a9825490565b60006104c88383611c3a565b6033546040517f91d14854000000000000000000000000000000000000000000000000000000008152600481018490526001600160a01b03838116602483015260009216906391d148549060440160206040518083038186803b1580156116a257600080fd5b505afa1580156116b6573d6000803e3d6000fd5b505050506040513d601f19601f820116820180604052508101906104c89190612312565b60006104c88383611c64565b6040517f02571be30000000000000000000000000000000000000000000000000000000081527f91d1777781884d03a6757a803996e38de2a42967fb37eeaca72729271025a9e260048201526001600160a01b038416906302571be39060240160206040518083038186803b15801561175e57600080fd5b505afa158015611772573d6000803e3d6000fd5b505050506040513d601f19601f82011682018060405250810190611796919061210c565b6001600160a01b031663c47f002783836040518363ffffffff1660e01b81526004016117c39291906125dc565b602060405180830381600087803b1580156117dd57600080fd5b505af11580156117f1573d6000803e3d6000fd5b505050506040513d601f19601f820116820180604052508101906107ee9190612334565b7f189ab7a9244df0848122154315af71fe140f3db0fe014031783b0946b8c9d2e3611840813361163c565b610c14578033610501565b600061187e7f360894a13ba1a3210667c828492db98dca3e2076cc3735a920a3ca505d382bbc546001600160a01b031690565b905061188984611d57565b6000835111806118965750815b156118a7576118a58484611e0c565b505b7f4910fdfa16fed3260ed0e7147f7cc6da11a60208b5b9406d12a635614ffd9143805460ff1661161f57805460ff191660011781556040516001600160a01b038316602482015261195490869060440160408051601f198184030181529190526020810180517bffffffffffffffffffffffffffffffffffffffffffffffffffffffff167f3659cfe600000000000000000000000000000000000000000000000000000000179052611e0c565b50805460ff191681557f360894a13ba1a3210667c828492db98dca3e2076cc3735a920a3ca505d382bbc546001600160a01b038381169116146119ff5760405162461bcd60e51b815260206004820152602f60248201527f45524331393637557067726164653a207570677261646520627265616b73206660448201527f75727468657220757067726164657300000000000000000000000000000000006064820152608401610541565b61161f85611ef7565b60006104c88383611f37565b60606104c883836040518060600160405280602781526020016127fc60279139611f86565b606060006104c88361205a565b600054610100900460ff1680611a5f575060005460ff16155b611ac25760405162461bcd60e51b815260206004820152602e60248201527f496e697469616c697a61626c653a20636f6e747261637420697320616c72656160448201526d191e481a5b9a5d1a585b1a5e995960921b6064820152608401610541565b600054610100900460ff16158015611ae4576000805461ffff19166101011790555b603380546001600160a01b0319166001600160a01b0384169081179091556040517fa5bc17e575e3b53b23d0e93e121a5a66d1de4d5edb4dfde6027b14d79b7f2b9c90600090a28015610c14576000805461ff00191690555050565b600054610100900460ff1680611b59575060005460ff16155b611bbc5760405162461bcd60e51b815260206004820152602e60248201527f496e697469616c697a61626c653a20636f6e747261637420697320616c72656160448201526d191e481a5b9a5d1a585b1a5e995960921b6064820152608401610541565b600054610100900460ff16158015611bde576000805461ffff19166101011790555b606580546001600160a01b0319166001600160a01b0384169081179091556040517f7aed1d3e8155a07ccf395e44ea3109a0e2d6c9b29bbbe9f142d9790596f4dc8090600090a28015610c14576000805461ff00191690555050565b6000826000018281548110611c5157611c516127ba565b9060005260206000200154905092915050565b60008181526001830160205260408120548015611d4d576000611c88600183612730565b8554909150600090611c9c90600190612730565b9050818114611d01576000866000018281548110611cbc57611cbc6127ba565b9060005260206000200154905080876000018481548110611cdf57611cdf6127ba565b6000918252602080832090910192909255918252600188019052604090208390555b8554869080611d1257611d126127a4565b6001900381819060005260206000200160009055905585600101600086815260200190815260200160002060009055600193505050506104a9565b60009150506104a9565b803b611dcb5760405162461bcd60e51b815260206004820152602d60248201527f455243313936373a206e657720696d706c656d656e746174696f6e206973206e60448201527f6f74206120636f6e7472616374000000000000000000000000000000000000006064820152608401610541565b7f360894a13ba1a3210667c828492db98dca3e2076cc3735a920a3ca505d382bbc80546001600160a01b0319166001600160a01b0392909216919091179055565b6060823b611e6b5760405162461bcd60e51b815260206004820152602660248201527f416464726573733a2064656c65676174652063616c6c20746f206e6f6e2d636f6044820152651b9d1c9858dd60d21b6064820152608401610541565b600080846001600160a01b031684604051611e86919061255e565b600060405180830381855af49150503d8060008114611ec1576040519150601f19603f3d011682016040523d82523d6000602084013e611ec6565b606091505b5091509150611eee82826040518060600160405280602781526020016127fc602791396120b6565b95945050505050565b611f0081611d57565b6040516001600160a01b038216907fbc7cd75a20ee27fd9adebab32041f755214dbc6bffa90cc0225b39da2e5c2d3b90600090a250565b6000818152600183016020526040812054611f7e575081546001818101845560008481526020808220909301849055845484825282860190935260409020919091556104a9565b5060006104a9565b6060833b611fe55760405162461bcd60e51b815260206004820152602660248201527f416464726573733a2064656c65676174652063616c6c20746f206e6f6e2d636f6044820152651b9d1c9858dd60d21b6064820152608401610541565b600080856001600160a01b031685604051612000919061255e565b600060405180830381855af49150503d806000811461203b576040519150601f19603f3d011682016040523d82523d6000602084013e612040565b606091505b50915091506120508282866120b6565b9695505050505050565b6060816000018054806020026020016040519081016040528092919081815260200182805480156120aa57602002820191906000526020600020905b815481526020019060010190808311612096575b50505050509050919050565b606083156120c55750816104c8565b8251156120d55782518084602001fd5b8160405162461bcd60e51b8152600401610541919061260b565b60006020828403121561210157600080fd5b81356104c8816127e6565b60006020828403121561211e57600080fd5b81516104c8816127e6565b6000806000806080858703121561213f57600080fd5b843561214a816127e6565b9350602085013561215a816127e6565b9250604085013561216a816127e6565b9150606085013561217a816127e6565b939692955090935050565b6000806040838503121561219857600080fd5b82356121a3816127e6565b9150602083013567ffffffffffffffff8111156121bf57600080fd5b8301601f810185136121d057600080fd5b80356121e36121de82612708565b6126d7565b8181528660208385010111156121f857600080fd5b816020840160208301376000602083830101528093505050509250929050565b60008060006040848603121561222d57600080fd5b8335612238816127e6565b9250602084013567ffffffffffffffff8082111561225557600080fd5b818601915086601f83011261226957600080fd5b81358181111561227857600080fd5b87602082850101111561228a57600080fd5b6020830194508093505050509250925092565b600080602083850312156122b057600080fd5b823567ffffffffffffffff808211156122c857600080fd5b818501915085601f8301126122dc57600080fd5b8135818111156122eb57600080fd5b8660208260051b850101111561230057600080fd5b60209290920196919550909350505050565b60006020828403121561232457600080fd5b815180151581146104c857600080fd5b60006020828403121561234657600080fd5b5051919050565b60006020828403121561235f57600080fd5b5035919050565b60008060006060848603121561237b57600080fd5b8351925060208085015167ffffffffffffffff8082111561239b57600080fd5b818701915087601f8301126123af57600080fd5b81516123bd6121de82612708565b81815289858386010111156123d157600080fd5b6123e082868301878701612747565b6040890151909650925050808211156123f857600080fd5b818701915087601f83011261240c57600080fd5b81518181111561241e5761241e6127d0565b8060051b915061242f8483016126d7565b8181528481019084860184860187018c101561244a57600080fd5b600095505b8386101561246d57805183526001959095019491860191860161244f565b508096505050505050509250925092565b6000806040838503121561249157600080fd5b50508035926020909101359150565b60008151602080840160005b838110156124ca5781511515875295820195908201906001016124ac565b509495945050505050565b60008151602080840160005b838110156124ca578151875295820195908201906001016124e1565b60008151808452612515816020860160208601612747565b601f01601f19169290920160200192915050565b600061253e61253883866124d5565b846124a0565b949350505050565b6000611eee61253861255884886124d5565b866124d5565b60008251612570818460208701612747565b9190910192915050565b6000602080830181845280855180835260408601915060408160051b870101925083870160005b828110156125cf57603f198886030184526125bd8583516124fd565b945092850192908501906001016125a1565b5092979650505050505050565b60208152816020820152818360408301376000818301604090810191909152601f909201601f19160101919050565b6020815260006104c860208301846124fd565b858152600060208615158184015285604084015260a0606084015261264660a08401866124fd565b838103608085015284518082528286019183019060005b818110156126795783518352928401929184019160010161265d565b50909a9950505050505050505050565b6000808335601e198436030181126126a057600080fd5b83018035915067ffffffffffffffff8211156126bb57600080fd5b6020019150368190038213156126d057600080fd5b9250929050565b604051601f8201601f1916810167ffffffffffffffff81118282101715612700576127006127d0565b604052919050565b600067ffffffffffffffff821115612722576127226127d0565b50601f01601f191660200190565b6000828210156127425761274261278e565b500390565b60005b8381101561276257818101518382015260200161274a565b838111156107ee5750506000910152565b60006000198214156127875761278761278e565b5060010190565b634e487b7160e01b600052601160045260246000fd5b634e487b7160e01b600052603160045260246000fd5b634e487b7160e01b600052603260045260246000fd5b634e487b7160e01b600052604160045260246000fd5b6001600160a01b0381168114610aa857600080fdfe416464726573733a206c6f772d6c6576656c2064656c65676174652063616c6c206661696c6564a2646970667358221220a7fb9592956f8db68b5166f6b77ecc4fd85b7a9cb8b8830c502fd6db92950caa64736f6c63430008070033",
  "linkReferences": {},
  "deployedLinkReferences": {}
}