{
  "_format": "hh-sol-artifact-1",
  "contractName": "Dispatch",
  "sourceName": "contracts/components/dispatch/Dispatch.sol",
  "abi": [
    {
      "inputs": [],
      "stateMutability": "nonpayable",
      "type": "constructor"
    },
    {
      "anonymous": false,
      "inputs": [
        {
          "indexed": true,
          "internalType": "address",
          "name": "newAddressManager",
          "type": "address"
        }
      ],
      "name": "AccessManagerUpdated",
      "type": "event"
    },
    {
      "anonymous": false,
      "inputs": [
        {
          "indexed": false,
          "internalType": "address",
          "name": "previousAdmin",
          "type": "address"
        },
        {
          "indexed": false,
          "internalType": "address",
          "name": "newAdmin",
          "type": "address"
        }
      ],
      "name": "AdminChanged",
      "type": "event"
    },
    {
      "anonymous": false,
      "inputs": [
        {
          "indexed": true,
          "internalType": "address",
          "name": "beacon",
          "type": "address"
        }
      ],
      "name": "BeaconUpgraded",
      "type": "event"
    },
    {
      "anonymous": false,
      "inputs": [
        {
          "indexed": false,
          "internalType": "uint256",
          "name": "agentId",
          "type": "uint256"
        },
        {
          "indexed": false,
          "internalType": "uint256",
          "name": "scannerId",
          "type": "uint256"
        },
        {
          "indexed": false,
          "internalType": "bool",
          "name": "enable",
          "type": "bool"
        }
      ],
      "name": "Link",
      "type": "event"
    },
    {
      "anonymous": false,
      "inputs": [
        {
          "indexed": true,
          "internalType": "address",
          "name": "router",
          "type": "address"
        }
      ],
      "name": "RouterUpdated",
      "type": "event"
    },
    {
      "anonymous": false,
      "inputs": [
        {
          "indexed": true,
          "internalType": "address",
          "name": "implementation",
          "type": "address"
        }
      ],
      "name": "Upgraded",
      "type": "event"
    },
    {
      "inputs": [],
      "name": "DEFAULT_ADMIN_ROLE",
      "outputs": [
        {
          "internalType": "bytes32",
          "name": "",
          "type": "bytes32"
        }
      ],
      "stateMutability": "view",
      "type": "function"
    },
    {
      "inputs": [],
      "name": "agentRegistry",
      "outputs": [
        {
          "internalType": "contract AgentRegistry",
          "name": "",
          "type": "address"
        }
      ],
      "stateMutability": "view",
      "type": "function"
    },
    {
      "inputs": [
        {
          "internalType": "uint256",
          "name": "scannerId",
          "type": "uint256"
        },
        {
          "internalType": "uint256",
          "name": "pos",
          "type": "uint256"
        }
      ],
      "name": "agentsAt",
      "outputs": [
        {
          "internalType": "uint256",
          "name": "",
          "type": "uint256"
        }
      ],
      "stateMutability": "view",
      "type": "function"
    },
    {
      "inputs": [
        {
          "internalType": "uint256",
          "name": "scannerId",
          "type": "uint256"
        }
      ],
      "name": "agentsFor",
      "outputs": [
        {
          "internalType": "uint256",
          "name": "",
          "type": "uint256"
        }
      ],
      "stateMutability": "view",
      "type": "function"
    },
    {
      "inputs": [
        {
          "internalType": "address",
          "name": "__manager",
          "type": "address"
        },
        {
          "internalType": "address",
          "name": "__router",
          "type": "address"
        },
        {
          "internalType": "address",
          "name": "__agents",
          "type": "address"
        },
        {
          "internalType": "address",
          "name": "__scanners",
          "type": "address"
        }
      ],
      "name": "initialize",
      "outputs": [],
      "stateMutability": "nonpayable",
      "type": "function"
    },
    {
      "inputs": [
        {
          "internalType": "uint256",
          "name": "agentId",
          "type": "uint256"
        },
        {
          "internalType": "uint256",
          "name": "scannerId",
          "type": "uint256"
        }
      ],
      "name": "link",
      "outputs": [],
      "stateMutability": "nonpayable",
      "type": "function"
    },
    {
      "inputs": [
        {
          "internalType": "bytes[]",
          "name": "data",
          "type": "bytes[]"
        }
      ],
      "name": "multicall",
      "outputs": [
        {
          "internalType": "bytes[]",
          "name": "results",
          "type": "bytes[]"
        }
      ],
      "stateMutability": "nonpayable",
      "type": "function"
    },
    {
      "inputs": [],
      "name": "scannerRegistry",
      "outputs": [
        {
          "internalType": "contract ScannerRegistry",
          "name": "",
          "type": "address"
        }
      ],
      "stateMutability": "view",
      "type": "function"
    },
    {
      "inputs": [
        {
          "internalType": "uint256",
          "name": "agentId",
          "type": "uint256"
        },
        {
          "internalType": "uint256",
          "name": "pos",
          "type": "uint256"
        }
      ],
      "name": "scannersAt",
      "outputs": [
        {
          "internalType": "uint256",
          "name": "",
          "type": "uint256"
        }
      ],
      "stateMutability": "view",
      "type": "function"
    },
    {
      "inputs": [
        {
          "internalType": "uint256",
          "name": "agentId",
          "type": "uint256"
        }
      ],
      "name": "scannersFor",
      "outputs": [
        {
          "internalType": "uint256",
          "name": "",
          "type": "uint256"
        }
      ],
      "stateMutability": "view",
      "type": "function"
    },
    {
      "inputs": [
        {
          "internalType": "address",
          "name": "newManager",
          "type": "address"
        }
      ],
      "name": "setAccessManager",
      "outputs": [],
      "stateMutability": "nonpayable",
      "type": "function"
    },
    {
      "inputs": [
        {
          "internalType": "address",
          "name": "newAgentRegistry",
          "type": "address"
        }
      ],
      "name": "setAgentRegistry",
      "outputs": [],
      "stateMutability": "nonpayable",
      "type": "function"
    },
    {
      "inputs": [
        {
          "internalType": "address",
          "name": "ensRegistry",
          "type": "address"
        },
        {
          "internalType": "string",
          "name": "ensName",
          "type": "string"
        }
      ],
      "name": "setName",
      "outputs": [],
      "stateMutability": "nonpayable",
      "type": "function"
    },
    {
      "inputs": [
        {
          "internalType": "address",
          "name": "newRouter",
          "type": "address"
        }
      ],
      "name": "setRouter",
      "outputs": [],
      "stateMutability": "nonpayable",
      "type": "function"
    },
    {
      "inputs": [
        {
          "internalType": "address",
          "name": "newScannerRegistry",
          "type": "address"
        }
      ],
      "name": "setScannerRegistry",
      "outputs": [],
      "stateMutability": "nonpayable",
      "type": "function"
    },
    {
      "inputs": [
        {
          "internalType": "uint256",
          "name": "agentId",
          "type": "uint256"
        },
        {
          "internalType": "uint256",
          "name": "scannerId",
          "type": "uint256"
        }
      ],
      "name": "unlink",
      "outputs": [],
      "stateMutability": "nonpayable",
      "type": "function"
    },
    {
      "inputs": [
        {
          "internalType": "address",
          "name": "newImplementation",
          "type": "address"
        }
      ],
      "name": "upgradeTo",
      "outputs": [],
      "stateMutability": "nonpayable",
      "type": "function"
    },
    {
      "inputs": [
        {
          "internalType": "address",
          "name": "newImplementation",
          "type": "address"
        },
        {
          "internalType": "bytes",
          "name": "data",
          "type": "bytes"
        }
      ],
      "name": "upgradeToAndCall",
      "outputs": [],
      "stateMutability": "payable",
      "type": "function"
    }
  ],
  "bytecode": "0x60a06040523060601b60805234801561001757600080fd5b50600054610100900460ff1680610031575060005460ff16155b6100985760405162461bcd60e51b815260206004820152602e60248201527f496e697469616c697a61626c653a20636f6e747261637420697320616c72656160448201526d191e481a5b9a5d1a585b1a5e995960921b606482015260840160405180910390fd5b600054610100900460ff161580156100ba576000805461ffff19166101011790555b80156100cc576000805461ff00191690555b5060805160601c611ed7610100600039600081816106f80152818161077d0152818161087401526108f90152611ed76000f3fe6080604052600436106101295760003560e01c80636b254492116100a5578063c0d7865511610074578063ded838c711610059578063ded838c71461032a578063e323cba51461034a578063f8c8765e1461036a57600080fd5b8063c0d78655146102ea578063c95808041461030a57600080fd5b80636b2544921461026857806386cf48e714610288578063a217fddf146102a8578063ac9650d8146102bd57600080fd5b806328342ecf116100fc5780633659cfe6116100e15780633659cfe6146102165780634f1ef286146102365780635e9f88b11461024957600080fd5b806328342ecf146101d65780633121db1c146101f657600080fd5b806308eb7d4f1461012e5780630a2bc370146101615780630c65b39d146101815780630d1cfcae146101a3575b600080fd5b34801561013a57600080fd5b5061014e610149366004611c3a565b61038a565b6040519081526020015b60405180910390f35b34801561016d57600080fd5b5061014e61017c366004611c53565b6103a8565b34801561018d57600080fd5b506101a161019c366004611c53565b6103c8565b005b3480156101af57600080fd5b5061012d546001600160a01b03165b6040516001600160a01b039091168152602001610158565b3480156101e257600080fd5b506101a16101f13660046119ab565b61066b565b34801561020257600080fd5b506101a1610211366004611b05565b6106a6565b34801561022257600080fd5b506101a16102313660046119ab565b6106ed565b6101a1610244366004611a41565b610869565b34801561025557600080fd5b5061012e546001600160a01b03166101be565b34801561027457600080fd5b506101a16102833660046119ab565b6109d6565b34801561029457600080fd5b506101a16102a3366004611c53565b610a11565b3480156102b457600080fd5b5061014e600081565b3480156102c957600080fd5b506102dd6102d8366004611b8a565b610c66565b6040516101589190611cbd565b3480156102f657600080fd5b506101a16103053660046119ab565b610d5b565b34801561031657600080fd5b506101a16103253660046119ab565b610dbd565b34801561033657600080fd5b5061014e610345366004611c3a565b610e1f565b34801561035657600080fd5b5061014e610365366004611c53565b610e37565b34801561037657600080fd5b506101a16103853660046119e5565b610e50565b6000818152610130602052604081206103a290610f4b565b92915050565b6000828152610130602052604081206103c19083610f55565b9392505050565b7ffbd38eecf51668fdbc772b204dc63dd28c3a3cf32e3025f52a80aa807359f50c6103f38133610f61565b6104435780335b6040517f75000dc000000000000000000000000000000000000000000000000000000000815260048101929092526001600160a01b031660248201526044015b60405180910390fd5b61012d546040516331a9108f60e11b8152600481018590526000916001600160a01b031690636352211e9060240160206040518083038186803b15801561048957600080fd5b505afa15801561049d573d6000803e3d6000fd5b505050506040513d601f19601f820116820180604052508101906104c191906119c8565b6001600160a01b031614156105185760405162461bcd60e51b815260206004820152601060248201527f696e76616c6964206167656e7420696400000000000000000000000000000000604482015260640161043a565b61012e546040516331a9108f60e11b8152600481018490526000916001600160a01b031690636352211e9060240160206040518083038186803b15801561055e57600080fd5b505afa158015610572573d6000803e3d6000fd5b505050506040513d601f19601f8201168201806040525081019061059691906119c8565b6001600160a01b031614156105ed5760405162461bcd60e51b815260206004820152601260248201527f696e76616c6964207363616e6e65722069640000000000000000000000000000604482015260640161043a565b600082815261012f602052604090206106069084610fff565b506000838152610130602052604090206106209083610fff565b5060408051848152602081018490526000918101919091527ff1b8cb2c3105270e747f9df25ec991871d6732bb7c7b86a088fe7d59c9272bbf906060015b60405180910390a1505050565b60006106778133610f61565b6106825780336103fa565b5061012d80546001600160a01b0319166001600160a01b0392909216919091179055565b7f664245c7af190fec316596e8231f724e8171b1966cfcd124347ac5a66c34f64a6106d18133610f61565b6106dc5780336103fa565b6106e784848461100b565b50505050565b306001600160a01b037f000000000000000000000000000000000000000000000000000000000000000016141561077b5760405162461bcd60e51b815260206004820152602c60248201527f46756e6374696f6e206d7573742062652063616c6c6564207468726f7567682060448201526b19195b1959d85d1958d85b1b60a21b606482015260840161043a565b7f00000000000000000000000000000000000000000000000000000000000000006001600160a01b03166107d67f360894a13ba1a3210667c828492db98dca3e2076cc3735a920a3ca505d382bbc546001600160a01b031690565b6001600160a01b0316146108415760405162461bcd60e51b815260206004820152602c60248201527f46756e6374696f6e206d7573742062652063616c6c6564207468726f7567682060448201526b6163746976652070726f787960a01b606482015260840161043a565b61084a8161113a565b6040805160008082526020820190925261086691839190611170565b50565b306001600160a01b037f00000000000000000000000000000000000000000000000000000000000000001614156108f75760405162461bcd60e51b815260206004820152602c60248201527f46756e6374696f6e206d7573742062652063616c6c6564207468726f7567682060448201526b19195b1959d85d1958d85b1b60a21b606482015260840161043a565b7f00000000000000000000000000000000000000000000000000000000000000006001600160a01b03166109527f360894a13ba1a3210667c828492db98dca3e2076cc3735a920a3ca505d382bbc546001600160a01b031690565b6001600160a01b0316146109bd5760405162461bcd60e51b815260206004820152602c60248201527f46756e6374696f6e206d7573742062652063616c6c6564207468726f7567682060448201526b6163746976652070726f787960a01b606482015260840161043a565b6109c68261113a565b6109d282826001611170565b5050565b60006109e28133610f61565b6109ed5780336103fa565b5061012e80546001600160a01b0319166001600160a01b0392909216919091179055565b7ffbd38eecf51668fdbc772b204dc63dd28c3a3cf32e3025f52a80aa807359f50c610a3c8133610f61565b610a475780336103fa565b61012d546040516331a9108f60e11b8152600481018590526000916001600160a01b031690636352211e9060240160206040518083038186803b158015610a8d57600080fd5b505afa158015610aa1573d6000803e3d6000fd5b505050506040513d601f19601f82011682018060405250810190610ac591906119c8565b6001600160a01b03161415610b1c5760405162461bcd60e51b815260206004820152601060248201527f696e76616c6964206167656e7420696400000000000000000000000000000000604482015260640161043a565b61012e546040516331a9108f60e11b8152600481018490526000916001600160a01b031690636352211e9060240160206040518083038186803b158015610b6257600080fd5b505afa158015610b76573d6000803e3d6000fd5b505050506040513d601f19601f82011682018060405250810190610b9a91906119c8565b6001600160a01b03161415610bf15760405162461bcd60e51b815260206004820152601260248201527f696e76616c6964207363616e6e65722069640000000000000000000000000000604482015260640161043a565b600082815261012f60205260409020610c0a908461132d565b50600083815261013060205260409020610c24908361132d565b5060408051848152602081018490526001918101919091527ff1b8cb2c3105270e747f9df25ec991871d6732bb7c7b86a088fe7d59c9272bbf9060600161065e565b60608167ffffffffffffffff811115610c8157610c81611e4f565b604051908082528060200260200182016040528015610cb457816020015b6060815260200190600190039081610c9f5790505b50905060005b82811015610d5457610d2430858584818110610cd857610cd8611e39565b9050602002810190610cea9190611d61565b8080601f01602080910402602001604051908101604052809392919081815260200183838082843760009201919091525061133992505050565b828281518110610d3657610d36611e39565b60200260200101819052508080610d4c90611df2565b915050610cba565b5092915050565b6000610d678133610f61565b610d725780336103fa565b606580546001600160a01b0319166001600160a01b0384169081179091556040517f7aed1d3e8155a07ccf395e44ea3109a0e2d6c9b29bbbe9f142d9790596f4dc8090600090a25050565b6000610dc98133610f61565b610dd45780336103fa565b603380546001600160a01b0319166001600160a01b0384169081179091556040517fa5bc17e575e3b53b23d0e93e121a5a66d1de4d5edb4dfde6027b14d79b7f2b9c90600090a25050565b600081815261012f602052604081206103a290610f4b565b600082815261012f602052604081206103c19083610f55565b600054610100900460ff1680610e69575060005460ff16155b610ecc5760405162461bcd60e51b815260206004820152602e60248201527f496e697469616c697a61626c653a20636f6e747261637420697320616c72656160448201526d191e481a5b9a5d1a585b1a5e995960921b606482015260840161043a565b600054610100900460ff16158015610eee576000805461ffff19166101011790555b610ef78561135e565b610f0084611458565b61012d80546001600160a01b038086166001600160a01b03199283161790925561012e8054928516929091169190911790558015610f44576000805461ff00191690555b5050505050565b60006103a2825490565b60006103c18383611552565b6033546040517f91d14854000000000000000000000000000000000000000000000000000000008152600481018490526001600160a01b03838116602483015260009216906391d148549060440160206040518083038186803b158015610fc757600080fd5b505afa158015610fdb573d6000803e3d6000fd5b505050506040513d601f19601f820116820180604052508101906103c19190611bff565b60006103c1838361157c565b6040517f02571be30000000000000000000000000000000000000000000000000000000081527f91d1777781884d03a6757a803996e38de2a42967fb37eeaca72729271025a9e260048201526001600160a01b038416906302571be39060240160206040518083038186803b15801561108357600080fd5b505afa158015611097573d6000803e3d6000fd5b505050506040513d601f19601f820116820180604052508101906110bb91906119c8565b6001600160a01b031663c47f002783836040518363ffffffff1660e01b81526004016110e8929190611d1f565b602060405180830381600087803b15801561110257600080fd5b505af1158015611116573d6000803e3d6000fd5b505050506040513d601f19601f820116820180604052508101906106e79190611c21565b7f189ab7a9244df0848122154315af71fe140f3db0fe014031783b0946b8c9d2e36111658133610f61565b6109d25780336103fa565b60006111a37f360894a13ba1a3210667c828492db98dca3e2076cc3735a920a3ca505d382bbc546001600160a01b031690565b90506111ae8461166f565b6000835111806111bb5750815b156111cc576111ca8484611724565b505b7f4910fdfa16fed3260ed0e7147f7cc6da11a60208b5b9406d12a635614ffd9143805460ff16610f4457805460ff191660011781556040516001600160a01b038316602482015261127990869060440160408051601f198184030181529190526020810180517bffffffffffffffffffffffffffffffffffffffffffffffffffffffff167f3659cfe600000000000000000000000000000000000000000000000000000000179052611724565b50805460ff191681557f360894a13ba1a3210667c828492db98dca3e2076cc3735a920a3ca505d382bbc546001600160a01b038381169116146113245760405162461bcd60e51b815260206004820152602f60248201527f45524331393637557067726164653a207570677261646520627265616b73206660448201527f7572746865722075706772616465730000000000000000000000000000000000606482015260840161043a565b610f448561180f565b60006103c1838361184f565b60606103c18383604051806060016040528060278152602001611e7b6027913961189e565b600054610100900460ff1680611377575060005460ff16155b6113da5760405162461bcd60e51b815260206004820152602e60248201527f496e697469616c697a61626c653a20636f6e747261637420697320616c72656160448201526d191e481a5b9a5d1a585b1a5e995960921b606482015260840161043a565b600054610100900460ff161580156113fc576000805461ffff19166101011790555b603380546001600160a01b0319166001600160a01b0384169081179091556040517fa5bc17e575e3b53b23d0e93e121a5a66d1de4d5edb4dfde6027b14d79b7f2b9c90600090a280156109d2576000805461ff00191690555050565b600054610100900460ff1680611471575060005460ff16155b6114d45760405162461bcd60e51b815260206004820152602e60248201527f496e697469616c697a61626c653a20636f6e747261637420697320616c72656160448201526d191e481a5b9a5d1a585b1a5e995960921b606482015260840161043a565b600054610100900460ff161580156114f6576000805461ffff19166101011790555b606580546001600160a01b0319166001600160a01b0384169081179091556040517f7aed1d3e8155a07ccf395e44ea3109a0e2d6c9b29bbbe9f142d9790596f4dc8090600090a280156109d2576000805461ff00191690555050565b600082600001828154811061156957611569611e39565b9060005260206000200154905092915050565b600081815260018301602052604081205480156116655760006115a0600183611daf565b85549091506000906115b490600190611daf565b90508181146116195760008660000182815481106115d4576115d4611e39565b90600052602060002001549050808760000184815481106115f7576115f7611e39565b6000918252602080832090910192909255918252600188019052604090208390555b855486908061162a5761162a611e23565b6001900381819060005260206000200160009055905585600101600086815260200190815260200160002060009055600193505050506103a2565b60009150506103a2565b803b6116e35760405162461bcd60e51b815260206004820152602d60248201527f455243313936373a206e657720696d706c656d656e746174696f6e206973206e60448201527f6f74206120636f6e747261637400000000000000000000000000000000000000606482015260840161043a565b7f360894a13ba1a3210667c828492db98dca3e2076cc3735a920a3ca505d382bbc80546001600160a01b0319166001600160a01b0392909216919091179055565b6060823b6117835760405162461bcd60e51b815260206004820152602660248201527f416464726573733a2064656c65676174652063616c6c20746f206e6f6e2d636f6044820152651b9d1c9858dd60d21b606482015260840161043a565b600080846001600160a01b03168460405161179e9190611ca1565b600060405180830381855af49150503d80600081146117d9576040519150601f19603f3d011682016040523d82523d6000602084013e6117de565b606091505b50915091506118068282604051806060016040528060278152602001611e7b60279139611972565b95945050505050565b6118188161166f565b6040516001600160a01b038216907fbc7cd75a20ee27fd9adebab32041f755214dbc6bffa90cc0225b39da2e5c2d3b90600090a250565b6000818152600183016020526040812054611896575081546001818101845560008481526020808220909301849055845484825282860190935260409020919091556103a2565b5060006103a2565b6060833b6118fd5760405162461bcd60e51b815260206004820152602660248201527f416464726573733a2064656c65676174652063616c6c20746f206e6f6e2d636f6044820152651b9d1c9858dd60d21b606482015260840161043a565b600080856001600160a01b0316856040516119189190611ca1565b600060405180830381855af49150503d8060008114611953576040519150601f19603f3d011682016040523d82523d6000602084013e611958565b606091505b5091509150611968828286611972565b9695505050505050565b606083156119815750816103c1565b8251156119915782518084602001fd5b8160405162461bcd60e51b815260040161043a9190611d4e565b6000602082840312156119bd57600080fd5b81356103c181611e65565b6000602082840312156119da57600080fd5b81516103c181611e65565b600080600080608085870312156119fb57600080fd5b8435611a0681611e65565b93506020850135611a1681611e65565b92506040850135611a2681611e65565b91506060850135611a3681611e65565b939692955090935050565b60008060408385031215611a5457600080fd5b8235611a5f81611e65565b9150602083013567ffffffffffffffff80821115611a7c57600080fd5b818501915085601f830112611a9057600080fd5b813581811115611aa257611aa2611e4f565b604051601f8201601f19908116603f01168101908382118183101715611aca57611aca611e4f565b81604052828152886020848701011115611ae357600080fd5b8260208601602083013760006020848301015280955050505050509250929050565b600080600060408486031215611b1a57600080fd5b8335611b2581611e65565b9250602084013567ffffffffffffffff80821115611b4257600080fd5b818601915086601f830112611b5657600080fd5b813581811115611b6557600080fd5b876020828501011115611b7757600080fd5b6020830194508093505050509250925092565b60008060208385031215611b9d57600080fd5b823567ffffffffffffffff80821115611bb557600080fd5b818501915085601f830112611bc957600080fd5b813581811115611bd857600080fd5b8660208260051b8501011115611bed57600080fd5b60209290920196919550909350505050565b600060208284031215611c1157600080fd5b815180151581146103c157600080fd5b600060208284031215611c3357600080fd5b5051919050565b600060208284031215611c4c57600080fd5b5035919050565b60008060408385031215611c6657600080fd5b50508035926020909101359150565b60008151808452611c8d816020860160208601611dc6565b601f01601f19169290920160200192915050565b60008251611cb3818460208701611dc6565b9190910192915050565b6000602080830181845280855180835260408601915060408160051b870101925083870160005b82811015611d1257603f19888603018452611d00858351611c75565b94509285019290850190600101611ce4565b5092979650505050505050565b60208152816020820152818360408301376000818301604090810191909152601f909201601f19160101919050565b6020815260006103c16020830184611c75565b6000808335601e19843603018112611d7857600080fd5b83018035915067ffffffffffffffff821115611d9357600080fd5b602001915036819003821315611da857600080fd5b9250929050565b600082821015611dc157611dc1611e0d565b500390565b60005b83811015611de1578181015183820152602001611dc9565b838111156106e75750506000910152565b6000600019821415611e0657611e06611e0d565b5060010190565b634e487b7160e01b600052601160045260246000fd5b634e487b7160e01b600052603160045260246000fd5b634e487b7160e01b600052603260045260246000fd5b634e487b7160e01b600052604160045260246000fd5b6001600160a01b038116811461086657600080fdfe416464726573733a206c6f772d6c6576656c2064656c65676174652063616c6c206661696c6564a26469706673582212201871c2c0e2d64ff7e7d329071e7ff069048285cb50e9c2d34712bd82999583c064736f6c63430008070033",
  "linkReferences": {},
  "deployedLinkReferences": {}
}