{
  "_format": "hh-sol-artifact-1",
  "contractName": "ScannerRegistry",
  "sourceName": "contracts/components/scanners/ScannerRegistry.sol",
  "abi": [
    {
      "inputs": [],
      "stateMutability": "nonpayable",
      "type": "constructor"
    },
    {
      "anonymous": false,
      "inputs": [
        {
          "indexed": true,
          "internalType": "address",
          "name": "newAddressManager",
          "type": "address"
        }
      ],
      "name": "AccessManagerUpdated",
      "type": "event"
    },
    {
      "anonymous": false,
      "inputs": [
        {
          "indexed": false,
          "internalType": "address",
          "name": "previousAdmin",
          "type": "address"
        },
        {
          "indexed": false,
          "internalType": "address",
          "name": "newAdmin",
          "type": "address"
        }
      ],
      "name": "AdminChanged",
      "type": "event"
    },
    {
      "anonymous": false,
      "inputs": [
        {
          "indexed": true,
          "internalType": "address",
          "name": "owner",
          "type": "address"
        },
        {
          "indexed": true,
          "internalType": "address",
          "name": "approved",
          "type": "address"
        },
        {
          "indexed": true,
          "internalType": "uint256",
          "name": "tokenId",
          "type": "uint256"
        }
      ],
      "name": "Approval",
      "type": "event"
    },
    {
      "anonymous": false,
      "inputs": [
        {
          "indexed": true,
          "internalType": "address",
          "name": "owner",
          "type": "address"
        },
        {
          "indexed": true,
          "internalType": "address",
          "name": "operator",
          "type": "address"
        },
        {
          "indexed": false,
          "internalType": "bool",
          "name": "approved",
          "type": "bool"
        }
      ],
      "name": "ApprovalForAll",
      "type": "event"
    },
    {
      "anonymous": false,
      "inputs": [
        {
          "indexed": true,
          "internalType": "address",
          "name": "beacon",
          "type": "address"
        }
      ],
      "name": "BeaconUpgraded",
      "type": "event"
    },
    {
      "anonymous": false,
      "inputs": [
        {
          "indexed": true,
          "internalType": "uint256",
          "name": "scannerId",
          "type": "uint256"
        },
        {
          "indexed": true,
          "internalType": "address",
          "name": "manager",
          "type": "address"
        },
        {
          "indexed": false,
          "internalType": "bool",
          "name": "enabled",
          "type": "bool"
        }
      ],
      "name": "ManagerEnabled",
      "type": "event"
    },
    {
      "anonymous": false,
      "inputs": [
        {
          "indexed": true,
          "internalType": "address",
          "name": "router",
          "type": "address"
        }
      ],
      "name": "RouterUpdated",
      "type": "event"
    },
    {
      "anonymous": false,
      "inputs": [
        {
          "indexed": true,
          "internalType": "uint256",
          "name": "scannerId",
          "type": "uint256"
        },
        {
          "indexed": false,
          "internalType": "enum ScannerRegistryEnable.Permission",
          "name": "permission",
          "type": "uint8"
        },
        {
          "indexed": false,
          "internalType": "bool",
          "name": "enabled",
          "type": "bool"
        }
      ],
      "name": "ScannerEnabled",
      "type": "event"
    },
    {
      "anonymous": false,
      "inputs": [
        {
          "indexed": true,
          "internalType": "address",
          "name": "from",
          "type": "address"
        },
        {
          "indexed": true,
          "internalType": "address",
          "name": "to",
          "type": "address"
        },
        {
          "indexed": true,
          "internalType": "uint256",
          "name": "tokenId",
          "type": "uint256"
        }
      ],
      "name": "Transfer",
      "type": "event"
    },
    {
      "anonymous": false,
      "inputs": [
        {
          "indexed": true,
          "internalType": "address",
          "name": "implementation",
          "type": "address"
        }
      ],
      "name": "Upgraded",
      "type": "event"
    },
    {
      "inputs": [],
      "name": "DEFAULT_ADMIN_ROLE",
      "outputs": [
        {
          "internalType": "bytes32",
          "name": "",
          "type": "bytes32"
        }
      ],
      "stateMutability": "view",
      "type": "function"
    },
    {
      "inputs": [
        {
          "internalType": "uint256",
          "name": "scannerId",
          "type": "uint256"
        },
        {
          "internalType": "address",
          "name": "owner",
          "type": "address"
        }
      ],
      "name": "adminRegister",
      "outputs": [],
      "stateMutability": "nonpayable",
      "type": "function"
    },
    {
      "inputs": [
        {
          "internalType": "address",
          "name": "to",
          "type": "address"
        },
        {
          "internalType": "uint256",
          "name": "tokenId",
          "type": "uint256"
        }
      ],
      "name": "approve",
      "outputs": [],
      "stateMutability": "nonpayable",
      "type": "function"
    },
    {
      "inputs": [
        {
          "internalType": "address",
          "name": "owner",
          "type": "address"
        }
      ],
      "name": "balanceOf",
      "outputs": [
        {
          "internalType": "uint256",
          "name": "",
          "type": "uint256"
        }
      ],
      "stateMutability": "view",
      "type": "function"
    },
    {
      "inputs": [
        {
          "internalType": "uint256",
          "name": "scannerId",
          "type": "uint256"
        },
        {
          "internalType": "enum ScannerRegistryEnable.Permission",
          "name": "permission",
          "type": "uint8"
        }
      ],
      "name": "disableScanner",
      "outputs": [],
      "stateMutability": "nonpayable",
      "type": "function"
    },
    {
      "inputs": [
        {
          "internalType": "uint256",
          "name": "scannerId",
          "type": "uint256"
        },
        {
          "internalType": "enum ScannerRegistryEnable.Permission",
          "name": "permission",
          "type": "uint8"
        }
      ],
      "name": "enableScanner",
      "outputs": [],
      "stateMutability": "nonpayable",
      "type": "function"
    },
    {
      "inputs": [
        {
          "internalType": "uint256",
          "name": "tokenId",
          "type": "uint256"
        }
      ],
      "name": "getApproved",
      "outputs": [
        {
          "internalType": "address",
          "name": "",
          "type": "address"
        }
      ],
      "stateMutability": "view",
      "type": "function"
    },
    {
      "inputs": [
        {
          "internalType": "uint256",
          "name": "scannerId",
          "type": "uint256"
        },
        {
          "internalType": "uint256",
          "name": "index",
          "type": "uint256"
        }
      ],
      "name": "getManagerAt",
      "outputs": [
        {
          "internalType": "address",
          "name": "",
          "type": "address"
        }
      ],
      "stateMutability": "view",
      "type": "function"
    },
    {
      "inputs": [
        {
          "internalType": "uint256",
          "name": "scannerId",
          "type": "uint256"
        }
      ],
      "name": "getManagerCount",
      "outputs": [
        {
          "internalType": "uint256",
          "name": "",
          "type": "uint256"
        }
      ],
      "stateMutability": "view",
      "type": "function"
    },
    {
      "inputs": [
        {
          "internalType": "address",
          "name": "__manager",
          "type": "address"
        },
        {
          "internalType": "address",
          "name": "__router",
          "type": "address"
        },
        {
          "internalType": "string",
          "name": "__name",
          "type": "string"
        },
        {
          "internalType": "string",
          "name": "__symbol",
          "type": "string"
        }
      ],
      "name": "initialize",
      "outputs": [],
      "stateMutability": "nonpayable",
      "type": "function"
    },
    {
      "inputs": [
        {
          "internalType": "address",
          "name": "owner",
          "type": "address"
        },
        {
          "internalType": "address",
          "name": "operator",
          "type": "address"
        }
      ],
      "name": "isApprovedForAll",
      "outputs": [
        {
          "internalType": "bool",
          "name": "",
          "type": "bool"
        }
      ],
      "stateMutability": "view",
      "type": "function"
    },
    {
      "inputs": [
        {
          "internalType": "uint256",
          "name": "scannerId",
          "type": "uint256"
        }
      ],
      "name": "isEnabled",
      "outputs": [
        {
          "internalType": "bool",
          "name": "",
          "type": "bool"
        }
      ],
      "stateMutability": "view",
      "type": "function"
    },
    {
      "inputs": [
        {
          "internalType": "uint256",
          "name": "scannerId",
          "type": "uint256"
        },
        {
          "internalType": "address",
          "name": "manager",
          "type": "address"
        }
      ],
      "name": "isManager",
      "outputs": [
        {
          "internalType": "bool",
          "name": "",
          "type": "bool"
        }
      ],
      "stateMutability": "view",
      "type": "function"
    },
    {
      "inputs": [
        {
          "internalType": "bytes[]",
          "name": "data",
          "type": "bytes[]"
        }
      ],
      "name": "multicall",
      "outputs": [
        {
          "internalType": "bytes[]",
          "name": "results",
          "type": "bytes[]"
        }
      ],
      "stateMutability": "nonpayable",
      "type": "function"
    },
    {
      "inputs": [],
      "name": "name",
      "outputs": [
        {
          "internalType": "string",
          "name": "",
          "type": "string"
        }
      ],
      "stateMutability": "view",
      "type": "function"
    },
    {
      "inputs": [
        {
          "internalType": "uint256",
          "name": "tokenId",
          "type": "uint256"
        }
      ],
      "name": "ownerOf",
      "outputs": [
        {
          "internalType": "address",
          "name": "",
          "type": "address"
        }
      ],
      "stateMutability": "view",
      "type": "function"
    },
    {
      "inputs": [
        {
          "internalType": "address",
          "name": "owner",
          "type": "address"
        }
      ],
      "name": "register",
      "outputs": [],
      "stateMutability": "nonpayable",
      "type": "function"
    },
    {
      "inputs": [
        {
          "internalType": "address",
          "name": "from",
          "type": "address"
        },
        {
          "internalType": "address",
          "name": "to",
          "type": "address"
        },
        {
          "internalType": "uint256",
          "name": "tokenId",
          "type": "uint256"
        }
      ],
      "name": "safeTransferFrom",
      "outputs": [],
      "stateMutability": "nonpayable",
      "type": "function"
    },
    {
      "inputs": [
        {
          "internalType": "address",
          "name": "from",
          "type": "address"
        },
        {
          "internalType": "address",
          "name": "to",
          "type": "address"
        },
        {
          "internalType": "uint256",
          "name": "tokenId",
          "type": "uint256"
        },
        {
          "internalType": "bytes",
          "name": "_data",
          "type": "bytes"
        }
      ],
      "name": "safeTransferFrom",
      "outputs": [],
      "stateMutability": "nonpayable",
      "type": "function"
    },
    {
      "inputs": [
        {
          "internalType": "address",
          "name": "newManager",
          "type": "address"
        }
      ],
      "name": "setAccessManager",
      "outputs": [],
      "stateMutability": "nonpayable",
      "type": "function"
    },
    {
      "inputs": [
        {
          "internalType": "address",
          "name": "operator",
          "type": "address"
        },
        {
          "internalType": "bool",
          "name": "approved",
          "type": "bool"
        }
      ],
      "name": "setApprovalForAll",
      "outputs": [],
      "stateMutability": "nonpayable",
      "type": "function"
    },
    {
      "inputs": [
        {
          "internalType": "uint256",
          "name": "scannerId",
          "type": "uint256"
        },
        {
          "internalType": "address",
          "name": "manager",
          "type": "address"
        },
        {
          "internalType": "bool",
          "name": "enable",
          "type": "bool"
        }
      ],
      "name": "setManager",
      "outputs": [],
      "stateMutability": "nonpayable",
      "type": "function"
    },
    {
      "inputs": [
        {
          "internalType": "address",
          "name": "ensRegistry",
          "type": "address"
        },
        {
          "internalType": "string",
          "name": "ensName",
          "type": "string"
        }
      ],
      "name": "setName",
      "outputs": [],
      "stateMutability": "nonpayable",
      "type": "function"
    },
    {
      "inputs": [
        {
          "internalType": "address",
          "name": "newRouter",
          "type": "address"
        }
      ],
      "name": "setRouter",
      "outputs": [],
      "stateMutability": "nonpayable",
      "type": "function"
    },
    {
      "inputs": [
        {
          "internalType": "bytes4",
          "name": "interfaceId",
          "type": "bytes4"
        }
      ],
      "name": "supportsInterface",
      "outputs": [
        {
          "internalType": "bool",
          "name": "",
          "type": "bool"
        }
      ],
      "stateMutability": "view",
      "type": "function"
    },
    {
      "inputs": [],
      "name": "symbol",
      "outputs": [
        {
          "internalType": "string",
          "name": "",
          "type": "string"
        }
      ],
      "stateMutability": "view",
      "type": "function"
    },
    {
      "inputs": [
        {
          "internalType": "uint256",
          "name": "tokenId",
          "type": "uint256"
        }
      ],
      "name": "tokenURI",
      "outputs": [
        {
          "internalType": "string",
          "name": "",
          "type": "string"
        }
      ],
      "stateMutability": "view",
      "type": "function"
    },
    {
      "inputs": [
        {
          "internalType": "address",
          "name": "from",
          "type": "address"
        },
        {
          "internalType": "address",
          "name": "to",
          "type": "address"
        },
        {
          "internalType": "uint256",
          "name": "tokenId",
          "type": "uint256"
        }
      ],
      "name": "transferFrom",
      "outputs": [],
      "stateMutability": "nonpayable",
      "type": "function"
    },
    {
      "inputs": [
        {
          "internalType": "address",
          "name": "newImplementation",
          "type": "address"
        }
      ],
      "name": "upgradeTo",
      "outputs": [],
      "stateMutability": "nonpayable",
      "type": "function"
    },
    {
      "inputs": [
        {
          "internalType": "address",
          "name": "newImplementation",
          "type": "address"
        },
        {
          "internalType": "bytes",
          "name": "data",
          "type": "bytes"
        }
      ],
      "name": "upgradeToAndCall",
      "outputs": [],
      "stateMutability": "payable",
      "type": "function"
    }
  ],
  "bytecode": "0x60a06040523060601b6080523480156200001857600080fd5b50600054610100900460ff168062000033575060005460ff16155b6200009b5760405162461bcd60e51b815260206004820152602e60248201527f496e697469616c697a61626c653a20636f6e747261637420697320616c72656160448201526d191e481a5b9a5d1a585b1a5e995960921b606482015260840160405180910390fd5b600054610100900460ff16158015620000be576000805461ffff19166101011790555b8015620000d1576000805461ff00191690555b5060805160601c6138b16200010660003960008181610b5c01528181610be101528181610f030152610f8801526138b16000f3fe6080604052600436106101cd5760003560e01c80636352211e116100f7578063ac9650d811610095578063c87b56dd11610064578063c87b56dd14610555578063c958080414610575578063e11cf71e14610595578063e985e9c5146105b557600080fd5b8063ac9650d8146104ae578063b88d4fde146104db578063c0d78655146104fb578063c783034c1461051b57600080fd5b80638e79a369116100d15780638e79a3691461044457806395d89b4114610464578063a217fddf14610479578063a22cb4651461048e57600080fd5b80636352211e146103d657806370a08231146103f6578063773ed13c1461042457600080fd5b80633659cfe61161016f5780634629f4271161013e5780634629f427146103635780634f1ef2861461038357806359238297146103965780635a74fc29146103b657600080fd5b80633659cfe6146102e35780633c4fe8301461030357806342842e0e146103235780634420e4861461034357600080fd5b8063095ea7b3116101ab578063095ea7b3146102615780632016a0d21461028357806323b872dd146102a35780633121db1c146102c357600080fd5b806301ffc9a7146101d257806306fdde0314610207578063081812fc14610229575b600080fd5b3480156101de57600080fd5b506101f26101ed3660046133f4565b6105ff565b60405190151581526020015b60405180910390f35b34801561021357600080fd5b5061021c61069c565b6040516101fe9190613604565b34801561023557600080fd5b5061024961024436600461342e565b61072f565b6040516001600160a01b0390911681526020016101fe565b34801561026d57600080fd5b5061028161027c36600461331d565b6107cb565b005b34801561028f57600080fd5b5061028161029e366004613108565b6108fd565b3480156102af57600080fd5b506102816102be36600461319d565b610a43565b3480156102cf57600080fd5b506102816102de3660046132c8565b610aca565b3480156102ef57600080fd5b506102816102fe366004613095565b610b51565b34801561030f57600080fd5b5061028161031e366004613447565b610ccd565b34801561032f57600080fd5b5061028161033e36600461319d565b610d6b565b34801561034f57600080fd5b5061028161035e366004613095565b610d86565b34801561036f57600080fd5b5061028161037e3660046134ae565b610dab565b610281610391366004613278565b610ef8565b3480156103a257600080fd5b506102816103b13660046134ae565b611061565b3480156103c257600080fd5b506102816103d136600461346c565b6111ae565b3480156103e257600080fd5b506102496103f136600461342e565b6112a4565b34801561040257600080fd5b50610416610411366004613095565b611330565b6040519081526020016101fe565b34801561043057600080fd5b506101f261043f366004613447565b6113cb565b34801561045057600080fd5b5061024961045f3660046134d7565b6113eb565b34801561047057600080fd5b5061021c611404565b34801561048557600080fd5b50610416600081565b34801561049a57600080fd5b506102816104a936600461324a565b611414565b3480156104ba57600080fd5b506104ce6104c9366004613349565b6114da565b6040516101fe91906135a2565b3480156104e757600080fd5b506102816104f63660046131de565b6115cf565b34801561050757600080fd5b50610281610516366004613095565b611657565b34801561052757600080fd5b506101f261053636600461342e565b60009081526101f5602090815260408083208380529091529020541590565b34801561056157600080fd5b5061021c61057036600461342e565b6116b9565b34801561058157600080fd5b50610281610590366004613095565b6117af565b3480156105a157600080fd5b506104166105b036600461342e565b611811565b3480156105c157600080fd5b506101f26105d03660046130cf565b6001600160a01b0391821660009081526101646020908152604080832093909416825291909152205460ff1690565b60006001600160e01b031982167f80ac58cd00000000000000000000000000000000000000000000000000000000148061066257506001600160e01b031982167f5b5e139f00000000000000000000000000000000000000000000000000000000145b8061069657507f01ffc9a7000000000000000000000000000000000000000000000000000000006001600160e01b03198316145b92915050565b606061015f80546106ac9061372d565b80601f01602080910402602001604051908101604052809291908181526020018280546106d89061372d565b80156107255780601f106106fa57610100808354040283529160200191610725565b820191906000526020600020905b81548152906001019060200180831161070857829003601f168201915b5050505050905090565b600081815261016160205260408120546001600160a01b03166107ae5760405162461bcd60e51b815260206004820152602c60248201527f4552433732313a20617070726f76656420717565727920666f72206e6f6e657860448201526b34b9ba32b73a103a37b5b2b760a11b60648201526084015b60405180910390fd5b50600090815261016360205260409020546001600160a01b031690565b60006107d6826112a4565b9050806001600160a01b0316836001600160a01b031614156108605760405162461bcd60e51b815260206004820152602160248201527f4552433732313a20617070726f76616c20746f2063757272656e74206f776e6560448201527f720000000000000000000000000000000000000000000000000000000000000060648201526084016107a5565b336001600160a01b038216148061087c575061087c81336105d0565b6108ee5760405162461bcd60e51b815260206004820152603860248201527f4552433732313a20617070726f76652063616c6c6572206973206e6f74206f7760448201527f6e6572206e6f7220617070726f76656420666f7220616c6c000000000000000060648201526084016107a5565b6108f88383611829565b505050565b600054610100900460ff1680610916575060005460ff16155b6109795760405162461bcd60e51b815260206004820152602e60248201527f496e697469616c697a61626c653a20636f6e747261637420697320616c72656160448201526d191e481a5b9a5d1a585b1a5e995960921b60648201526084016107a5565b600054610100900460ff1615801561099b576000805461ffff19166101011790555b6109a487611898565b6109ad86611992565b6109b5611a8c565b610a2885858080601f01602080910402602001604051908101604052809392919081815260200183838082843760009201919091525050604080516020601f89018190048102820181019092528781529250879150869081908401838280828437600092019190915250611b4e92505050565b8015610a3a576000805461ff00191690555b50505050505050565b610a4d3382611c1c565b610abf5760405162461bcd60e51b815260206004820152603160248201527f4552433732313a207472616e736665722063616c6c6572206973206e6f74206f60448201527f776e6572206e6f7220617070726f76656400000000000000000000000000000060648201526084016107a5565b6108f8838383611d15565b7f664245c7af190fec316596e8231f724e8171b1966cfcd124347ac5a66c34f64a610af58133611ee5565b610b405780335b6040517f75000dc000000000000000000000000000000000000000000000000000000000815260048101929092526001600160a01b031660248201526044016107a5565b610b4b848484611f83565b50505050565b306001600160a01b037f0000000000000000000000000000000000000000000000000000000000000000161415610bdf5760405162461bcd60e51b815260206004820152602c60248201527f46756e6374696f6e206d7573742062652063616c6c6564207468726f7567682060448201526b19195b1959d85d1958d85b1b60a21b60648201526084016107a5565b7f00000000000000000000000000000000000000000000000000000000000000006001600160a01b0316610c3a7f360894a13ba1a3210667c828492db98dca3e2076cc3735a920a3ca505d382bbc546001600160a01b031690565b6001600160a01b031614610ca55760405162461bcd60e51b815260206004820152602c60248201527f46756e6374696f6e206d7573742062652063616c6c6564207468726f7567682060448201526b6163746976652070726f787960a01b60648201526084016107a5565b610cae816120b2565b60408051600080825260208201909252610cca918391906120e8565b50565b7f2a32a1662c1214ad9d5a31a0a1cb01ef357b3d1954570b75c128485ad3931dbc610cf88133611ee5565b610d03578033610afc565b610d0d8284612297565b6108f883604051602401610d2391815260200190565b60408051601f198184030181529190526020810180516001600160e01b03167f6af77a89000000000000000000000000000000000000000000000000000000001790526123dc565b6108f8838383604051806020016040528060008152506115cf565b33610d918282612297565b610da781604051602401610d2391815260200190565b5050565b6004816004811115610dbf57610dbf6137c3565b10610e0c5760405162461bcd60e51b815260206004820152601760248201527f696e76616c6964207065726d697373696f6e20736c6f7400000000000000000060448201526064016107a5565b6000816004811115610e2057610e206137c3565b1415610e5957610e507f2a32a1662c1214ad9d5a31a0a1cb01ef357b3d1954570b75c128485ad3931dbc33611ee5565b610e5957600080fd5b6001816004811115610e6d57610e6d6137c3565b1415610e7f57338214610e7f57600080fd5b6002816004811115610e9357610e936137c3565b1415610ebf57610ea2826112a4565b6001600160a01b0316336001600160a01b031614610ebf57600080fd5b6003816004811115610ed357610ed36137c3565b1415610eec57610ee382336113cb565b610eec57600080fd5b610da782826001612468565b306001600160a01b037f0000000000000000000000000000000000000000000000000000000000000000161415610f865760405162461bcd60e51b815260206004820152602c60248201527f46756e6374696f6e206d7573742062652063616c6c6564207468726f7567682060448201526b19195b1959d85d1958d85b1b60a21b60648201526084016107a5565b7f00000000000000000000000000000000000000000000000000000000000000006001600160a01b0316610fe17f360894a13ba1a3210667c828492db98dca3e2076cc3735a920a3ca505d382bbc546001600160a01b031690565b6001600160a01b03161461104c5760405162461bcd60e51b815260206004820152602c60248201527f46756e6374696f6e206d7573742062652063616c6c6564207468726f7567682060448201526b6163746976652070726f787960a01b60648201526084016107a5565b611055826120b2565b610da7828260016120e8565b6004816004811115611075576110756137c3565b106110c25760405162461bcd60e51b815260206004820152601760248201527f696e76616c6964207065726d697373696f6e20736c6f7400000000000000000060448201526064016107a5565b60008160048111156110d6576110d66137c3565b141561110f576111067f2a32a1662c1214ad9d5a31a0a1cb01ef357b3d1954570b75c128485ad3931dbc33611ee5565b61110f57600080fd5b6001816004811115611123576111236137c3565b14156111355733821461113557600080fd5b6002816004811115611149576111496137c3565b141561117557611158826112a4565b6001600160a01b0316336001600160a01b03161461117557600080fd5b6003816004811115611189576111896137c3565b14156111a25761119982336113cb565b6111a257600080fd5b610da782826000612468565b826111b8816112a4565b6001600160a01b0316336001600160a01b0316146112185760405162461bcd60e51b815260206004820152601b60248201527f5265737472696374656420746f207363616e6e6572206f776e6572000000000060448201526064016107a5565b811561123d5760008481526101c360205260409020611237908461247e565b50611258565b60008481526101c3602052604090206112569084612493565b505b826001600160a01b0316847f538b6537a6fe8f0deae9f3b86ad1924d5e5b3d5a683055276b2824f918be043e84604051611296911515815260200190565b60405180910390a350505050565b600081815261016160205260408120546001600160a01b0316806106965760405162461bcd60e51b815260206004820152602960248201527f4552433732313a206f776e657220717565727920666f72206e6f6e657869737460448201527f656e7420746f6b656e000000000000000000000000000000000000000000000060648201526084016107a5565b60006001600160a01b0382166113ae5760405162461bcd60e51b815260206004820152602a60248201527f4552433732313a2062616c616e636520717565727920666f7220746865207a6560448201527f726f20616464726573730000000000000000000000000000000000000000000060648201526084016107a5565b506001600160a01b03166000908152610162602052604090205490565b60008281526101c3602052604081206113e490836124a8565b9392505050565b60008281526101c3602052604081206113e490836124ca565b606061016080546106ac9061372d565b6001600160a01b03821633141561146d5760405162461bcd60e51b815260206004820152601960248201527f4552433732313a20617070726f766520746f2063616c6c65720000000000000060448201526064016107a5565b336000818152610164602090815260408083206001600160a01b03871680855290835292819020805460ff191686151590811790915590519081529192917f17307eab39ab6107e8899845ad3d59bd9653f200f220920489ca2b5937696c31910160405180910390a35050565b60608167ffffffffffffffff8111156114f5576114f5613805565b60405190808252806020026020018201604052801561152857816020015b60608152602001906001900390816115135790505b50905060005b828110156115c8576115983085858481811061154c5761154c6137ef565b905060200281019061155e9190613677565b8080601f0160208091040260200160405190810160405280939291908181526020018383808284376000920191909152506124d692505050565b8282815181106115aa576115aa6137ef565b602002602001018190525080806115c090613768565b91505061152e565b5092915050565b6115d93383611c1c565b61164b5760405162461bcd60e51b815260206004820152603160248201527f4552433732313a207472616e736665722063616c6c6572206973206e6f74206f60448201527f776e6572206e6f7220617070726f76656400000000000000000000000000000060648201526084016107a5565b610b4b848484846124fb565b60006116638133611ee5565b61166e578033610afc565b606580546001600160a01b0319166001600160a01b0384169081179091556040517f7aed1d3e8155a07ccf395e44ea3109a0e2d6c9b29bbbe9f142d9790596f4dc8090600090a25050565b600081815261016160205260409020546060906001600160a01b03166117475760405162461bcd60e51b815260206004820152602f60248201527f4552433732314d657461646174613a2055524920717565727920666f72206e6f60448201527f6e6578697374656e7420746f6b656e000000000000000000000000000000000060648201526084016107a5565b600061175e60408051602081019091526000815290565b9050600081511161177e57604051806020016040528060008152506113e4565b8061178884612584565b604051602001611799929190613541565b6040516020818303038152906040529392505050565b60006117bb8133611ee5565b6117c6578033610afc565b603380546001600160a01b0319166001600160a01b0384169081179091556040517fa5bc17e575e3b53b23d0e93e121a5a66d1de4d5edb4dfde6027b14d79b7f2b9c90600090a25050565b60008181526101c360205260408120610696906126b6565b60008181526101636020526040902080546001600160a01b0319166001600160a01b038416908117909155819061185f826112a4565b6001600160a01b03167f8c5be1e5ebec7d5bd14f71427d1e84f3dd0314c0f7b2291e5b200ac8c7c3b92560405160405180910390a45050565b600054610100900460ff16806118b1575060005460ff16155b6119145760405162461bcd60e51b815260206004820152602e60248201527f496e697469616c697a61626c653a20636f6e747261637420697320616c72656160448201526d191e481a5b9a5d1a585b1a5e995960921b60648201526084016107a5565b600054610100900460ff16158015611936576000805461ffff19166101011790555b603380546001600160a01b0319166001600160a01b0384169081179091556040517fa5bc17e575e3b53b23d0e93e121a5a66d1de4d5edb4dfde6027b14d79b7f2b9c90600090a28015610da7576000805461ff00191690555050565b600054610100900460ff16806119ab575060005460ff16155b611a0e5760405162461bcd60e51b815260206004820152602e60248201527f496e697469616c697a61626c653a20636f6e747261637420697320616c72656160448201526d191e481a5b9a5d1a585b1a5e995960921b60648201526084016107a5565b600054610100900460ff16158015611a30576000805461ffff19166101011790555b606580546001600160a01b0319166001600160a01b0384169081179091556040517f7aed1d3e8155a07ccf395e44ea3109a0e2d6c9b29bbbe9f142d9790596f4dc8090600090a28015610da7576000805461ff00191690555050565b600054610100900460ff1680611aa5575060005460ff16155b611b085760405162461bcd60e51b815260206004820152602e60248201527f496e697469616c697a61626c653a20636f6e747261637420697320616c72656160448201526d191e481a5b9a5d1a585b1a5e995960921b60648201526084016107a5565b600054610100900460ff16158015611b2a576000805461ffff19166101011790555b611b326126c0565b611b3a6126c0565b8015610cca576000805461ff001916905550565b600054610100900460ff1680611b67575060005460ff16155b611bca5760405162461bcd60e51b815260206004820152602e60248201527f496e697469616c697a61626c653a20636f6e747261637420697320616c72656160448201526d191e481a5b9a5d1a585b1a5e995960921b60648201526084016107a5565b600054610100900460ff16158015611bec576000805461ffff19166101011790555b611bf46126c0565b611bfc6126c0565b611c068383612771565b80156108f8576000805461ff0019169055505050565b600081815261016160205260408120546001600160a01b0316611c965760405162461bcd60e51b815260206004820152602c60248201527f4552433732313a206f70657261746f7220717565727920666f72206e6f6e657860448201526b34b9ba32b73a103a37b5b2b760a11b60648201526084016107a5565b6000611ca1836112a4565b9050806001600160a01b0316846001600160a01b03161480611cdc5750836001600160a01b0316611cd18461072f565b6001600160a01b0316145b80611d0d57506001600160a01b038082166000908152610164602090815260408083209388168352929052205460ff165b949350505050565b826001600160a01b0316611d28826112a4565b6001600160a01b031614611da45760405162461bcd60e51b815260206004820152602960248201527f4552433732313a207472616e73666572206f6620746f6b656e2074686174206960448201527f73206e6f74206f776e000000000000000000000000000000000000000000000060648201526084016107a5565b6001600160a01b038216611e1f5760405162461bcd60e51b8152602060048201526024808201527f4552433732313a207472616e7366657220746f20746865207a65726f2061646460448201527f726573730000000000000000000000000000000000000000000000000000000060648201526084016107a5565b611e2a600082611829565b6001600160a01b038316600090815261016260205260408120805460019290611e549084906136ea565b90915550506001600160a01b038216600090815261016260205260408120805460019290611e839084906136be565b90915550506000818152610161602052604080822080546001600160a01b0319166001600160a01b0386811691821790925591518493918716917fddf252ad1be2c89b69c2b068fc378daa952ba7f163c4a11628f55a4df523b3ef91a4505050565b6033546040517f91d14854000000000000000000000000000000000000000000000000000000008152600481018490526001600160a01b03838116602483015260009216906391d148549060440160206040518083038186803b158015611f4b57600080fd5b505afa158015611f5f573d6000803e3d6000fd5b505050506040513d601f19601f820116820180604052508101906113e491906133be565b6040517f02571be30000000000000000000000000000000000000000000000000000000081527f91d1777781884d03a6757a803996e38de2a42967fb37eeaca72729271025a9e260048201526001600160a01b038416906302571be39060240160206040518083038186803b158015611ffb57600080fd5b505afa15801561200f573d6000803e3d6000fd5b505050506040513d601f19601f8201168201806040525081019061203391906130b2565b6001600160a01b031663c47f002783836040518363ffffffff1660e01b8152600401612060929190613648565b602060405180830381600087803b15801561207a57600080fd5b505af115801561208e573d6000803e3d6000fd5b505050506040513d601f19601f82011682018060405250810190610b4b91906133db565b7f189ab7a9244df0848122154315af71fe140f3db0fe014031783b0946b8c9d2e36120dd8133611ee5565b610da7578033610afc565b600061211b7f360894a13ba1a3210667c828492db98dca3e2076cc3735a920a3ca505d382bbc546001600160a01b031690565b90506121268461284f565b6000835111806121335750815b15612144576121428484612904565b505b7f4910fdfa16fed3260ed0e7147f7cc6da11a60208b5b9406d12a635614ffd9143805460ff1661229057805460ff191660011781556040516001600160a01b03831660248201526121dc90869060440160408051601f198184030181529190526020810180516001600160e01b03167f3659cfe600000000000000000000000000000000000000000000000000000000179052612904565b50805460ff191681557f360894a13ba1a3210667c828492db98dca3e2076cc3735a920a3ca505d382bbc546001600160a01b038381169116146122875760405162461bcd60e51b815260206004820152602f60248201527f45524331393637557067726164653a207570677261646520627265616b73206660448201527f757274686572207570677261646573000000000000000000000000000000000060648201526084016107a5565b612290856129ef565b5050505050565b6001600160a01b0382166122ed5760405162461bcd60e51b815260206004820181905260248201527f4552433732313a206d696e7420746f20746865207a65726f206164647265737360448201526064016107a5565b600081815261016160205260409020546001600160a01b0316156123535760405162461bcd60e51b815260206004820152601c60248201527f4552433732313a20746f6b656e20616c7265616479206d696e7465640000000060448201526064016107a5565b6001600160a01b03821660009081526101626020526040812080546001929061237d9084906136be565b90915550506000818152610161602052604080822080546001600160a01b0319166001600160a01b03861690811790915590518392907fddf252ad1be2c89b69c2b068fc378daa952ba7f163c4a11628f55a4df523b3ef908290a45050565b6065546001600160a01b031615610cca576065546040517f3fa222c40000000000000000000000000000000000000000000000000000000081526001600160a01b0390911690633fa222c490612436908490600401613604565b600060405180830381600087803b15801561245057600080fd5b505af1925050508015612461575060015b610cca5750565b612473838383612a2f565b6108f8838383612a9d565b60006113e4836001600160a01b038416612afb565b60006113e4836001600160a01b038416612b4a565b6001600160a01b038116600090815260018301602052604081205415156113e4565b60006113e48383612c3d565b60606113e4838360405180606001604052806027815260200161385560279139612c67565b612506848484611d15565b61251284848484612d3b565b610b4b5760405162461bcd60e51b815260206004820152603260248201527f4552433732313a207472616e7366657220746f206e6f6e20455243373231526560448201527f63656976657220696d706c656d656e746572000000000000000000000000000060648201526084016107a5565b6060816125c457505060408051808201909152600181527f3000000000000000000000000000000000000000000000000000000000000000602082015290565b8160005b81156125ee57806125d881613768565b91506125e79050600a836136d6565b91506125c8565b60008167ffffffffffffffff81111561260957612609613805565b6040519080825280601f01601f191660200182016040528015612633576020820181803683370190505b5090505b8415611d0d576126486001836136ea565b9150612655600a86613783565b6126609060306136be565b60f81b818381518110612675576126756137ef565b60200101907effffffffffffffffffffffffffffffffffffffffffffffffffffffffffffff1916908160001a9053506126af600a866136d6565b9450612637565b6000610696825490565b600054610100900460ff16806126d9575060005460ff16155b61273c5760405162461bcd60e51b815260206004820152602e60248201527f496e697469616c697a61626c653a20636f6e747261637420697320616c72656160448201526d191e481a5b9a5d1a585b1a5e995960921b60648201526084016107a5565b600054610100900460ff16158015611b3a576000805461ffff19166101011790558015610cca576000805461ff001916905550565b600054610100900460ff168061278a575060005460ff16155b6127ed5760405162461bcd60e51b815260206004820152602e60248201527f496e697469616c697a61626c653a20636f6e747261637420697320616c72656160448201526d191e481a5b9a5d1a585b1a5e995960921b60648201526084016107a5565b600054610100900460ff1615801561280f576000805461ffff19166101011790555b82516128239061015f906020860190612f26565b50815161283890610160906020850190612f26565b5080156108f8576000805461ff0019169055505050565b803b6128c35760405162461bcd60e51b815260206004820152602d60248201527f455243313936373a206e657720696d706c656d656e746174696f6e206973206e60448201527f6f74206120636f6e74726163740000000000000000000000000000000000000060648201526084016107a5565b7f360894a13ba1a3210667c828492db98dca3e2076cc3735a920a3ca505d382bbc80546001600160a01b0319166001600160a01b0392909216919091179055565b6060823b6129635760405162461bcd60e51b815260206004820152602660248201527f416464726573733a2064656c65676174652063616c6c20746f206e6f6e2d636f6044820152651b9d1c9858dd60d21b60648201526084016107a5565b600080846001600160a01b03168460405161297e9190613525565b600060405180830381855af49150503d80600081146129b9576040519150601f19603f3d011682016040523d82523d6000602084013e6129be565b606091505b50915091506129e6828260405180606001604052806027815260200161385560279139612e9e565b95945050505050565b6129f88161284f565b6040516001600160a01b038216907fbc7cd75a20ee27fd9adebab32041f755214dbc6bffa90cc0225b39da2e5c2d3b90600090a250565b612a5e826004811115612a4457612a446137c3565b60008581526101f5602052604090209060ff168315612ed7565b827fa8c48d6a8680cc945d8835aeb5819a0cbbb0ffc060aa808369c7ede093c876428383604051612a90929190613617565b60405180910390a2505050565b6108f883604051602401612ab391815260200190565b60408051601f198184030181529190526020810180516001600160e01b03167f4ba50cc6000000000000000000000000000000000000000000000000000000001790526123dc565b6000818152600183016020526040812054612b4257508154600181810184556000848152602080822090930184905584548482528286019093526040902091909155610696565b506000610696565b60008181526001830160205260408120548015612c33576000612b6e6001836136ea565b8554909150600090612b82906001906136ea565b9050818114612be7576000866000018281548110612ba257612ba26137ef565b9060005260206000200154905080876000018481548110612bc557612bc56137ef565b6000918252602080832090910192909255918252600188019052604090208390555b8554869080612bf857612bf86137d9565b600190038181906000526020600020016000905590558560010160008681526020019081526020016000206000905560019350505050610696565b6000915050610696565b6000826000018281548110612c5457612c546137ef565b9060005260206000200154905092915050565b6060833b612cc65760405162461bcd60e51b815260206004820152602660248201527f416464726573733a2064656c65676174652063616c6c20746f206e6f6e2d636f6044820152651b9d1c9858dd60d21b60648201526084016107a5565b600080856001600160a01b031685604051612ce19190613525565b600060405180830381855af49150503d8060008114612d1c576040519150601f19603f3d011682016040523d82523d6000602084013e612d21565b606091505b5091509150612d31828286612e9e565b9695505050505050565b60006001600160a01b0384163b15612e9357604051630a85bd0160e11b81526001600160a01b0385169063150b7a0290612d7f903390899088908890600401613570565b602060405180830381600087803b158015612d9957600080fd5b505af1925050508015612dc9575060408051601f3d908101601f19168201909252612dc691810190613411565b60015b612e79573d808015612df7576040519150601f19603f3d011682016040523d82523d6000602084013e612dfc565b606091505b508051612e715760405162461bcd60e51b815260206004820152603260248201527f4552433732313a207472616e7366657220746f206e6f6e20455243373231526560448201527f63656976657220696d706c656d656e746572000000000000000000000000000060648201526084016107a5565b805181602001fd5b6001600160e01b031916630a85bd0160e11b149050611d0d565b506001949350505050565b60608315612ead5750816113e4565b825115612ebd5782518084602001fd5b8160405162461bcd60e51b81526004016107a59190613604565b8015612f0157600882901c60009081526020849052604090208054600160ff85161b179055505050565b600882901c60009081526020849052604090208054600160ff85161b19169055505050565b828054612f329061372d565b90600052602060002090601f016020900481019282612f545760008555612f9a565b82601f10612f6d57805160ff1916838001178555612f9a565b82800160010185558215612f9a579182015b82811115612f9a578251825591602001919060010190612f7f565b50612fa6929150612faa565b5090565b5b80821115612fa65760008155600101612fab565b600082601f830112612fd057600080fd5b813567ffffffffffffffff80821115612feb57612feb613805565b604051601f8301601f19908116603f0116810190828211818310171561301357613013613805565b8160405283815286602085880101111561302c57600080fd5b836020870160208301376000602085830101528094505050505092915050565b60008083601f84011261305e57600080fd5b50813567ffffffffffffffff81111561307657600080fd5b60208301915083602082850101111561308e57600080fd5b9250929050565b6000602082840312156130a757600080fd5b81356113e48161381b565b6000602082840312156130c457600080fd5b81516113e48161381b565b600080604083850312156130e257600080fd5b82356130ed8161381b565b915060208301356130fd8161381b565b809150509250929050565b6000806000806000806080878903121561312157600080fd5b863561312c8161381b565b9550602087013561313c8161381b565b9450604087013567ffffffffffffffff8082111561315957600080fd5b6131658a838b0161304c565b9096509450606089013591508082111561317e57600080fd5b5061318b89828a0161304c565b979a9699509497509295939492505050565b6000806000606084860312156131b257600080fd5b83356131bd8161381b565b925060208401356131cd8161381b565b929592945050506040919091013590565b600080600080608085870312156131f457600080fd5b84356131ff8161381b565b9350602085013561320f8161381b565b925060408501359150606085013567ffffffffffffffff81111561323257600080fd5b61323e87828801612fbf565b91505092959194509250565b6000806040838503121561325d57600080fd5b82356132688161381b565b915060208301356130fd81613830565b6000806040838503121561328b57600080fd5b82356132968161381b565b9150602083013567ffffffffffffffff8111156132b257600080fd5b6132be85828601612fbf565b9150509250929050565b6000806000604084860312156132dd57600080fd5b83356132e88161381b565b9250602084013567ffffffffffffffff81111561330457600080fd5b6133108682870161304c565b9497909650939450505050565b6000806040838503121561333057600080fd5b823561333b8161381b565b946020939093013593505050565b6000806020838503121561335c57600080fd5b823567ffffffffffffffff8082111561337457600080fd5b818501915085601f83011261338857600080fd5b81358181111561339757600080fd5b8660208260051b85010111156133ac57600080fd5b60209290920196919550909350505050565b6000602082840312156133d057600080fd5b81516113e481613830565b6000602082840312156133ed57600080fd5b5051919050565b60006020828403121561340657600080fd5b81356113e48161383e565b60006020828403121561342357600080fd5b81516113e48161383e565b60006020828403121561344057600080fd5b5035919050565b6000806040838503121561345a57600080fd5b8235915060208301356130fd8161381b565b60008060006060848603121561348157600080fd5b8335925060208401356134938161381b565b915060408401356134a381613830565b809150509250925092565b600080604083850312156134c157600080fd5b823591506020830135600581106130fd57600080fd5b600080604083850312156134ea57600080fd5b50508035926020909101359150565b60008151808452613511816020860160208601613701565b601f01601f19169290920160200192915050565b60008251613537818460208701613701565b9190910192915050565b60008351613553818460208801613701565b835190830190613567818360208801613701565b01949350505050565b60006001600160a01b03808716835280861660208401525083604083015260806060830152612d3160808301846134f9565b6000602080830181845280855180835260408601915060408160051b870101925083870160005b828110156135f757603f198886030184526135e58583516134f9565b945092850192908501906001016135c9565b5092979650505050505050565b6020815260006113e460208301846134f9565b604081016005841061363957634e487b7160e01b600052602160045260246000fd5b92815290151560209091015290565b60208152816020820152818360408301376000818301604090810191909152601f909201601f19160101919050565b6000808335601e1984360301811261368e57600080fd5b83018035915067ffffffffffffffff8211156136a957600080fd5b60200191503681900382131561308e57600080fd5b600082198211156136d1576136d1613797565b500190565b6000826136e5576136e56137ad565b500490565b6000828210156136fc576136fc613797565b500390565b60005b8381101561371c578181015183820152602001613704565b83811115610b4b5750506000910152565b600181811c9082168061374157607f821691505b6020821081141561376257634e487b7160e01b600052602260045260246000fd5b50919050565b600060001982141561377c5761377c613797565b5060010190565b600082613792576137926137ad565b500690565b634e487b7160e01b600052601160045260246000fd5b634e487b7160e01b600052601260045260246000fd5b634e487b7160e01b600052602160045260246000fd5b634e487b7160e01b600052603160045260246000fd5b634e487b7160e01b600052603260045260246000fd5b634e487b7160e01b600052604160045260246000fd5b6001600160a01b0381168114610cca57600080fd5b8015158114610cca57600080fd5b6001600160e01b031981168114610cca57600080fdfe416464726573733a206c6f772d6c6576656c2064656c65676174652063616c6c206661696c6564a2646970667358221220f42b192c883dcb4cd6f5006f51fbcf02ddf59cb37d9c74780a9dc73512e6b62d64736f6c63430008070033",
  "linkReferences": {},
  "deployedLinkReferences": {}
}