{
  "_format": "hh-sol-artifact-1",
  "contractName": "ScannerRegistry",
  "sourceName": "contracts/components/scanners/ScannerRegistry.sol",
  "abi": [
    {
      "inputs": [],
      "stateMutability": "nonpayable",
      "type": "constructor"
    },
    {
      "anonymous": false,
      "inputs": [
        {
          "indexed": true,
          "internalType": "address",
          "name": "newAddressManager",
          "type": "address"
        }
      ],
      "name": "AccessManagerUpdated",
      "type": "event"
    },
    {
      "anonymous": false,
      "inputs": [
        {
          "indexed": false,
          "internalType": "address",
          "name": "previousAdmin",
          "type": "address"
        },
        {
          "indexed": false,
          "internalType": "address",
          "name": "newAdmin",
          "type": "address"
        }
      ],
      "name": "AdminChanged",
      "type": "event"
    },
    {
      "anonymous": false,
      "inputs": [
        {
          "indexed": true,
          "internalType": "address",
          "name": "owner",
          "type": "address"
        },
        {
          "indexed": true,
          "internalType": "address",
          "name": "approved",
          "type": "address"
        },
        {
          "indexed": true,
          "internalType": "uint256",
          "name": "tokenId",
          "type": "uint256"
        }
      ],
      "name": "Approval",
      "type": "event"
    },
    {
      "anonymous": false,
      "inputs": [
        {
          "indexed": true,
          "internalType": "address",
          "name": "owner",
          "type": "address"
        },
        {
          "indexed": true,
          "internalType": "address",
          "name": "operator",
          "type": "address"
        },
        {
          "indexed": false,
          "internalType": "bool",
          "name": "approved",
          "type": "bool"
        }
      ],
      "name": "ApprovalForAll",
      "type": "event"
    },
    {
      "anonymous": false,
      "inputs": [
        {
          "indexed": true,
          "internalType": "address",
          "name": "beacon",
          "type": "address"
        }
      ],
      "name": "BeaconUpgraded",
      "type": "event"
    },
    {
      "anonymous": false,
      "inputs": [
        {
          "indexed": true,
          "internalType": "uint256",
          "name": "scannerId",
          "type": "uint256"
        },
        {
          "indexed": true,
          "internalType": "address",
          "name": "manager",
          "type": "address"
        },
        {
          "indexed": false,
          "internalType": "bool",
          "name": "enabled",
          "type": "bool"
        }
      ],
      "name": "ManagerEnabled",
      "type": "event"
    },
    {
      "anonymous": false,
      "inputs": [
        {
          "indexed": true,
          "internalType": "address",
          "name": "router",
          "type": "address"
        }
      ],
      "name": "RouterUpdated",
      "type": "event"
    },
    {
      "anonymous": false,
      "inputs": [
        {
          "indexed": true,
          "internalType": "uint256",
          "name": "scannerId",
          "type": "uint256"
        },
        {
          "indexed": true,
          "internalType": "bool",
          "name": "enabled",
          "type": "bool"
        },
        {
          "indexed": false,
          "internalType": "enum ScannerRegistryEnable.Permission",
          "name": "permission",
          "type": "uint8"
        },
        {
          "indexed": false,
          "internalType": "bool",
          "name": "value",
          "type": "bool"
        }
      ],
      "name": "ScannerEnabled",
      "type": "event"
    },
    {
      "anonymous": false,
      "inputs": [
        {
          "indexed": true,
          "internalType": "uint256",
          "name": "scannerId",
          "type": "uint256"
        },
        {
          "indexed": true,
          "internalType": "uint256",
          "name": "chainId",
          "type": "uint256"
        }
      ],
      "name": "ScannerUpdated",
      "type": "event"
    },
    {
      "anonymous": false,
      "inputs": [
        {
          "indexed": true,
          "internalType": "address",
          "name": "from",
          "type": "address"
        },
        {
          "indexed": true,
          "internalType": "address",
          "name": "to",
          "type": "address"
        },
        {
          "indexed": true,
          "internalType": "uint256",
          "name": "tokenId",
          "type": "uint256"
        }
      ],
      "name": "Transfer",
      "type": "event"
    },
    {
      "anonymous": false,
      "inputs": [
        {
          "indexed": true,
          "internalType": "address",
          "name": "implementation",
          "type": "address"
        }
      ],
      "name": "Upgraded",
      "type": "event"
    },
    {
      "inputs": [],
      "name": "DEFAULT_ADMIN_ROLE",
      "outputs": [
        {
          "internalType": "bytes32",
          "name": "",
          "type": "bytes32"
        }
      ],
      "stateMutability": "view",
      "type": "function"
    },
    {
      "inputs": [
        {
          "internalType": "uint256",
          "name": "scannerId",
          "type": "uint256"
        },
        {
          "internalType": "address",
          "name": "owner",
          "type": "address"
        },
        {
          "internalType": "uint256",
          "name": "chainId",
          "type": "uint256"
        }
      ],
      "name": "adminRegister",
      "outputs": [],
      "stateMutability": "nonpayable",
      "type": "function"
    },
    {
      "inputs": [
        {
          "internalType": "address",
          "name": "to",
          "type": "address"
        },
        {
          "internalType": "uint256",
          "name": "tokenId",
          "type": "uint256"
        }
      ],
      "name": "approve",
      "outputs": [],
      "stateMutability": "nonpayable",
      "type": "function"
    },
    {
      "inputs": [
        {
          "internalType": "address",
          "name": "owner",
          "type": "address"
        }
      ],
      "name": "balanceOf",
      "outputs": [
        {
          "internalType": "uint256",
          "name": "",
          "type": "uint256"
        }
      ],
      "stateMutability": "view",
      "type": "function"
    },
    {
      "inputs": [
        {
          "internalType": "uint256",
          "name": "scannerId",
          "type": "uint256"
        },
        {
          "internalType": "enum ScannerRegistryEnable.Permission",
          "name": "permission",
          "type": "uint8"
        }
      ],
      "name": "disableScanner",
      "outputs": [],
      "stateMutability": "nonpayable",
      "type": "function"
    },
    {
      "inputs": [
        {
          "internalType": "uint256",
          "name": "scannerId",
          "type": "uint256"
        },
        {
          "internalType": "enum ScannerRegistryEnable.Permission",
          "name": "permission",
          "type": "uint8"
        }
      ],
      "name": "enableScanner",
      "outputs": [],
      "stateMutability": "nonpayable",
      "type": "function"
    },
    {
      "inputs": [
        {
          "internalType": "uint256",
          "name": "tokenId",
          "type": "uint256"
        }
      ],
      "name": "getApproved",
      "outputs": [
        {
          "internalType": "address",
          "name": "",
          "type": "address"
        }
      ],
      "stateMutability": "view",
      "type": "function"
    },
    {
      "inputs": [
        {
          "internalType": "uint256",
          "name": "scannerId",
          "type": "uint256"
        },
        {
          "internalType": "uint256",
          "name": "index",
          "type": "uint256"
        }
      ],
      "name": "getManagerAt",
      "outputs": [
        {
          "internalType": "address",
          "name": "",
          "type": "address"
        }
      ],
      "stateMutability": "view",
      "type": "function"
    },
    {
      "inputs": [
        {
          "internalType": "uint256",
          "name": "scannerId",
          "type": "uint256"
        }
      ],
      "name": "getManagerCount",
      "outputs": [
        {
          "internalType": "uint256",
          "name": "",
          "type": "uint256"
        }
      ],
      "stateMutability": "view",
      "type": "function"
    },
    {
      "inputs": [
        {
          "internalType": "uint256",
          "name": "scannerId",
          "type": "uint256"
        }
      ],
      "name": "getScanner",
      "outputs": [
        {
          "internalType": "uint256",
          "name": "chainIds",
          "type": "uint256"
        }
      ],
      "stateMutability": "view",
      "type": "function"
    },
    {
      "inputs": [
        {
          "internalType": "address",
          "name": "__manager",
          "type": "address"
        },
        {
          "internalType": "address",
          "name": "__router",
          "type": "address"
        },
        {
          "internalType": "string",
          "name": "__name",
          "type": "string"
        },
        {
          "internalType": "string",
          "name": "__symbol",
          "type": "string"
        }
      ],
      "name": "initialize",
      "outputs": [],
      "stateMutability": "nonpayable",
      "type": "function"
    },
    {
      "inputs": [
        {
          "internalType": "address",
          "name": "owner",
          "type": "address"
        },
        {
          "internalType": "address",
          "name": "operator",
          "type": "address"
        }
      ],
      "name": "isApprovedForAll",
      "outputs": [
        {
          "internalType": "bool",
          "name": "",
          "type": "bool"
        }
      ],
      "stateMutability": "view",
      "type": "function"
    },
    {
      "inputs": [
        {
          "internalType": "uint256",
          "name": "scannerId",
          "type": "uint256"
        }
      ],
      "name": "isEnabled",
      "outputs": [
        {
          "internalType": "bool",
          "name": "",
          "type": "bool"
        }
      ],
      "stateMutability": "view",
      "type": "function"
    },
    {
      "inputs": [
        {
          "internalType": "uint256",
          "name": "scannerId",
          "type": "uint256"
        },
        {
          "internalType": "address",
          "name": "manager",
          "type": "address"
        }
      ],
      "name": "isManager",
      "outputs": [
        {
          "internalType": "bool",
          "name": "",
          "type": "bool"
        }
      ],
      "stateMutability": "view",
      "type": "function"
    },
    {
      "inputs": [
        {
          "internalType": "bytes[]",
          "name": "data",
          "type": "bytes[]"
        }
      ],
      "name": "multicall",
      "outputs": [
        {
          "internalType": "bytes[]",
          "name": "results",
          "type": "bytes[]"
        }
      ],
      "stateMutability": "nonpayable",
      "type": "function"
    },
    {
      "inputs": [],
      "name": "name",
      "outputs": [
        {
          "internalType": "string",
          "name": "",
          "type": "string"
        }
      ],
      "stateMutability": "view",
      "type": "function"
    },
    {
      "inputs": [
        {
          "internalType": "uint256",
          "name": "tokenId",
          "type": "uint256"
        }
      ],
      "name": "ownerOf",
      "outputs": [
        {
          "internalType": "address",
          "name": "",
          "type": "address"
        }
      ],
      "stateMutability": "view",
      "type": "function"
    },
    {
      "inputs": [
        {
          "internalType": "address",
          "name": "owner",
          "type": "address"
        },
        {
          "internalType": "uint256",
          "name": "chainId",
          "type": "uint256"
        }
      ],
      "name": "register",
      "outputs": [],
      "stateMutability": "nonpayable",
      "type": "function"
    },
    {
      "inputs": [
        {
          "internalType": "address",
          "name": "from",
          "type": "address"
        },
        {
          "internalType": "address",
          "name": "to",
          "type": "address"
        },
        {
          "internalType": "uint256",
          "name": "tokenId",
          "type": "uint256"
        }
      ],
      "name": "safeTransferFrom",
      "outputs": [],
      "stateMutability": "nonpayable",
      "type": "function"
    },
    {
      "inputs": [
        {
          "internalType": "address",
          "name": "from",
          "type": "address"
        },
        {
          "internalType": "address",
          "name": "to",
          "type": "address"
        },
        {
          "internalType": "uint256",
          "name": "tokenId",
          "type": "uint256"
        },
        {
          "internalType": "bytes",
          "name": "_data",
          "type": "bytes"
        }
      ],
      "name": "safeTransferFrom",
      "outputs": [],
      "stateMutability": "nonpayable",
      "type": "function"
    },
    {
      "inputs": [
        {
          "internalType": "address",
          "name": "newManager",
          "type": "address"
        }
      ],
      "name": "setAccessManager",
      "outputs": [],
      "stateMutability": "nonpayable",
      "type": "function"
    },
    {
      "inputs": [
        {
          "internalType": "address",
          "name": "operator",
          "type": "address"
        },
        {
          "internalType": "bool",
          "name": "approved",
          "type": "bool"
        }
      ],
      "name": "setApprovalForAll",
      "outputs": [],
      "stateMutability": "nonpayable",
      "type": "function"
    },
    {
      "inputs": [
        {
          "internalType": "uint256",
          "name": "scannerId",
          "type": "uint256"
        },
        {
          "internalType": "address",
          "name": "manager",
          "type": "address"
        },
        {
          "internalType": "bool",
          "name": "enable",
          "type": "bool"
        }
      ],
      "name": "setManager",
      "outputs": [],
      "stateMutability": "nonpayable",
      "type": "function"
    },
    {
      "inputs": [
        {
          "internalType": "address",
          "name": "ensRegistry",
          "type": "address"
        },
        {
          "internalType": "string",
          "name": "ensName",
          "type": "string"
        }
      ],
      "name": "setName",
      "outputs": [],
      "stateMutability": "nonpayable",
      "type": "function"
    },
    {
      "inputs": [
        {
          "internalType": "address",
          "name": "newRouter",
          "type": "address"
        }
      ],
      "name": "setRouter",
      "outputs": [],
      "stateMutability": "nonpayable",
      "type": "function"
    },
    {
      "inputs": [
        {
          "internalType": "bytes4",
          "name": "interfaceId",
          "type": "bytes4"
        }
      ],
      "name": "supportsInterface",
      "outputs": [
        {
          "internalType": "bool",
          "name": "",
          "type": "bool"
        }
      ],
      "stateMutability": "view",
      "type": "function"
    },
    {
      "inputs": [],
      "name": "symbol",
      "outputs": [
        {
          "internalType": "string",
          "name": "",
          "type": "string"
        }
      ],
      "stateMutability": "view",
      "type": "function"
    },
    {
      "inputs": [
        {
          "internalType": "uint256",
          "name": "tokenId",
          "type": "uint256"
        }
      ],
      "name": "tokenURI",
      "outputs": [
        {
          "internalType": "string",
          "name": "",
          "type": "string"
        }
      ],
      "stateMutability": "view",
      "type": "function"
    },
    {
      "inputs": [
        {
          "internalType": "address",
          "name": "from",
          "type": "address"
        },
        {
          "internalType": "address",
          "name": "to",
          "type": "address"
        },
        {
          "internalType": "uint256",
          "name": "tokenId",
          "type": "uint256"
        }
      ],
      "name": "transferFrom",
      "outputs": [],
      "stateMutability": "nonpayable",
      "type": "function"
    },
    {
      "inputs": [
        {
          "internalType": "address",
          "name": "newImplementation",
          "type": "address"
        }
      ],
      "name": "upgradeTo",
      "outputs": [],
      "stateMutability": "nonpayable",
      "type": "function"
    },
    {
      "inputs": [
        {
          "internalType": "address",
          "name": "newImplementation",
          "type": "address"
        },
        {
          "internalType": "bytes",
          "name": "data",
          "type": "bytes"
        }
      ],
      "name": "upgradeToAndCall",
      "outputs": [],
      "stateMutability": "payable",
      "type": "function"
    }
  ],
  "bytecode": "0x60a06040523060601b6080523480156200001857600080fd5b50600054610100900460ff168062000033575060005460ff16155b6200009b5760405162461bcd60e51b815260206004820152602e60248201527f496e697469616c697a61626c653a20636f6e747261637420697320616c72656160448201526d191e481a5b9a5d1a585b1a5e995960921b606482015260840160405180910390fd5b600054610100900460ff16158015620000be576000805461ffff19166101011790555b8015620000d1576000805461ff00191690555b5060805160601c6139a86200010660003960008181610b9501528181610c1a01528181610ed10152610f5601526139a86000f3fe6080604052600436106101d85760003560e01c80636d705ebb11610102578063ac9650d811610095578063c87b56dd11610064578063c87b56dd1461058e578063c9580804146105ae578063e11cf71e146105ce578063e985e9c5146105ee57600080fd5b8063ac9650d8146104e7578063b88d4fde14610514578063c0d7865514610534578063c783034c1461055457600080fd5b806395d89b41116100d157806395d89b411461046f578063a217fddf14610484578063a22cb46514610499578063a97fe43e146104b957600080fd5b80636d705ebb146103e157806370a0823114610401578063773ed13c1461042f5780638e79a3691461044f57600080fd5b80633659cfe61161017a5780634f1ef286116101495780634f1ef2861461036e57806359238297146103815780635a74fc29146103a15780636352211e146103c157600080fd5b80633659cfe6146102ee57806342842e0e1461030e5780634629f4271461032e5780634b4eb81a1461034e57600080fd5b8063095ea7b3116101b6578063095ea7b31461026c5780632016a0d21461028e57806323b872dd146102ae5780633121db1c146102ce57600080fd5b806301ffc9a7146101dd57806306fdde0314610212578063081812fc14610234575b600080fd5b3480156101e957600080fd5b506101fd6101f83660046134c4565b610638565b60405190151581526020015b60405180910390f35b34801561021e57600080fd5b506102276106d5565b60405161020991906136fb565b34801561024057600080fd5b5061025461024f3660046134fe565b610768565b6040516001600160a01b039091168152602001610209565b34801561027857600080fd5b5061028c6102873660046133ed565b610804565b005b34801561029a57600080fd5b5061028c6102a93660046131d8565b610936565b3480156102ba57600080fd5b5061028c6102c936600461326d565b610a7c565b3480156102da57600080fd5b5061028c6102e9366004613398565b610b03565b3480156102fa57600080fd5b5061028c610309366004613165565b610b8a565b34801561031a57600080fd5b5061028c61032936600461326d565b610d06565b34801561033a57600080fd5b5061028c6103493660046135a5565b610d21565b34801561035a57600080fd5b5061028c61036936600461357e565b610e72565b61028c61037c366004613348565b610ec6565b34801561038d57600080fd5b5061028c61039c3660046135a5565b61102f565b3480156103ad57600080fd5b5061028c6103bc36600461353c565b61117c565b3480156103cd57600080fd5b506102546103dc3660046134fe565b611272565b3480156103ed57600080fd5b5061028c6103fc3660046133ed565b6112fe565b34801561040d57600080fd5b5061042161041c366004613165565b61131d565b604051908152602001610209565b34801561043b57600080fd5b506101fd61044a366004613517565b6113b8565b34801561045b57600080fd5b5061025461046a3660046135ce565b6113d8565b34801561047b57600080fd5b506102276113f1565b34801561049057600080fd5b50610421600081565b3480156104a557600080fd5b5061028c6104b436600461331a565b611401565b3480156104c557600080fd5b506104216104d43660046134fe565b6000908152610227602052604090205490565b3480156104f357600080fd5b50610507610502366004613419565b6114c7565b6040516102099190613699565b34801561052057600080fd5b5061028c61052f3660046132ae565b6115bc565b34801561054057600080fd5b5061028c61054f366004613165565b611644565b34801561056057600080fd5b506101fd61056f3660046134fe565b60009081526101f5602090815260408083208380529091529020541590565b34801561059a57600080fd5b506102276105a93660046134fe565b6116a6565b3480156105ba57600080fd5b5061028c6105c9366004613165565b61179c565b3480156105da57600080fd5b506104216105e93660046134fe565b6117fe565b3480156105fa57600080fd5b506101fd61060936600461319f565b6001600160a01b0391821660009081526101646020908152604080832093909416825291909152205460ff1690565b60006001600160e01b031982167f80ac58cd00000000000000000000000000000000000000000000000000000000148061069b57506001600160e01b031982167f5b5e139f00000000000000000000000000000000000000000000000000000000145b806106cf57507f01ffc9a7000000000000000000000000000000000000000000000000000000006001600160e01b03198316145b92915050565b606061015f80546106e590613824565b80601f016020809104026020016040519081016040528092919081815260200182805461071190613824565b801561075e5780601f106107335761010080835404028352916020019161075e565b820191906000526020600020905b81548152906001019060200180831161074157829003601f168201915b5050505050905090565b600081815261016160205260408120546001600160a01b03166107e75760405162461bcd60e51b815260206004820152602c60248201527f4552433732313a20617070726f76656420717565727920666f72206e6f6e657860448201526b34b9ba32b73a103a37b5b2b760a11b60648201526084015b60405180910390fd5b50600090815261016360205260409020546001600160a01b031690565b600061080f82611272565b9050806001600160a01b0316836001600160a01b031614156108995760405162461bcd60e51b815260206004820152602160248201527f4552433732313a20617070726f76616c20746f2063757272656e74206f776e6560448201527f720000000000000000000000000000000000000000000000000000000000000060648201526084016107de565b336001600160a01b03821614806108b557506108b58133610609565b6109275760405162461bcd60e51b815260206004820152603860248201527f4552433732313a20617070726f76652063616c6c6572206973206e6f74206f7760448201527f6e6572206e6f7220617070726f76656420666f7220616c6c000000000000000060648201526084016107de565b6109318383611816565b505050565b600054610100900460ff168061094f575060005460ff16155b6109b25760405162461bcd60e51b815260206004820152602e60248201527f496e697469616c697a61626c653a20636f6e747261637420697320616c72656160448201526d191e481a5b9a5d1a585b1a5e995960921b60648201526084016107de565b600054610100900460ff161580156109d4576000805461ffff19166101011790555b6109dd87611885565b6109e68661197f565b6109ee611a79565b610a6185858080601f01602080910402602001604051908101604052809392919081815260200183838082843760009201919091525050604080516020601f89018190048102820181019092528781529250879150869081908401838280828437600092019190915250611b3b92505050565b8015610a73576000805461ff00191690555b50505050505050565b610a863382611c09565b610af85760405162461bcd60e51b815260206004820152603160248201527f4552433732313a207472616e736665722063616c6c6572206973206e6f74206f60448201527f776e6572206e6f7220617070726f76656400000000000000000000000000000060648201526084016107de565b610931838383611d02565b7f664245c7af190fec316596e8231f724e8171b1966cfcd124347ac5a66c34f64a610b2e8133611ed2565b610b795780335b6040517f75000dc000000000000000000000000000000000000000000000000000000000815260048101929092526001600160a01b031660248201526044016107de565b610b84848484611f70565b50505050565b306001600160a01b037f0000000000000000000000000000000000000000000000000000000000000000161415610c185760405162461bcd60e51b815260206004820152602c60248201527f46756e6374696f6e206d7573742062652063616c6c6564207468726f7567682060448201526b19195b1959d85d1958d85b1b60a21b60648201526084016107de565b7f00000000000000000000000000000000000000000000000000000000000000006001600160a01b0316610c737f360894a13ba1a3210667c828492db98dca3e2076cc3735a920a3ca505d382bbc546001600160a01b031690565b6001600160a01b031614610cde5760405162461bcd60e51b815260206004820152602c60248201527f46756e6374696f6e206d7573742062652063616c6c6564207468726f7567682060448201526b6163746976652070726f787960a01b60648201526084016107de565b610ce78161209f565b60408051600080825260208201909252610d03918391906120d5565b50565b610931838383604051806020016040528060008152506115bc565b6004816004811115610d3557610d356138ba565b10610d825760405162461bcd60e51b815260206004820152601760248201527f696e76616c6964207065726d697373696f6e20736c6f7400000000000000000060448201526064016107de565b6000816004811115610d9657610d966138ba565b1415610dcf57610dc67fbfe45770ac5a9057f648bdbd7f3526086df3fa2d93fe61f5b631e50d01f0074a33611ed2565b610dcf57600080fd5b6001816004811115610de357610de36138ba565b1415610df557338214610df557600080fd5b6002816004811115610e0957610e096138ba565b1415610e3557610e1882611272565b6001600160a01b0316336001600160a01b031614610e3557600080fd5b6003816004811115610e4957610e496138ba565b1415610e6257610e5982336113b8565b610e6257600080fd5b610e6e82826001612284565b5050565b7fbfe45770ac5a9057f648bdbd7f3526086df3fa2d93fe61f5b631e50d01f0074a610e9d8133611ed2565b610ea8578033610b35565b610eb2838561229a565b610ebc84836123df565b610b8484836123e9565b306001600160a01b037f0000000000000000000000000000000000000000000000000000000000000000161415610f545760405162461bcd60e51b815260206004820152602c60248201527f46756e6374696f6e206d7573742062652063616c6c6564207468726f7567682060448201526b19195b1959d85d1958d85b1b60a21b60648201526084016107de565b7f00000000000000000000000000000000000000000000000000000000000000006001600160a01b0316610faf7f360894a13ba1a3210667c828492db98dca3e2076cc3735a920a3ca505d382bbc546001600160a01b031690565b6001600160a01b03161461101a5760405162461bcd60e51b815260206004820152602c60248201527f46756e6374696f6e206d7573742062652063616c6c6564207468726f7567682060448201526b6163746976652070726f787960a01b60648201526084016107de565b6110238261209f565b610e6e828260016120d5565b6004816004811115611043576110436138ba565b106110905760405162461bcd60e51b815260206004820152601760248201527f696e76616c6964207065726d697373696f6e20736c6f7400000000000000000060448201526064016107de565b60008160048111156110a4576110a46138ba565b14156110dd576110d47fbfe45770ac5a9057f648bdbd7f3526086df3fa2d93fe61f5b631e50d01f0074a33611ed2565b6110dd57600080fd5b60018160048111156110f1576110f16138ba565b14156111035733821461110357600080fd5b6002816004811115611117576111176138ba565b14156111435761112682611272565b6001600160a01b0316336001600160a01b03161461114357600080fd5b6003816004811115611157576111576138ba565b14156111705761116782336113b8565b61117057600080fd5b610e6e82826000612284565b8261118681611272565b6001600160a01b0316336001600160a01b0316146111e65760405162461bcd60e51b815260206004820152601b60248201527f5265737472696374656420746f207363616e6e6572206f776e6572000000000060448201526064016107de565b811561120b5760008481526101c3602052604090206112059084612447565b50611226565b60008481526101c360205260409020611224908461245c565b505b826001600160a01b0316847f538b6537a6fe8f0deae9f3b86ad1924d5e5b3d5a683055276b2824f918be043e84604051611264911515815260200190565b60405180910390a350505050565b600081815261016160205260408120546001600160a01b0316806106cf5760405162461bcd60e51b815260206004820152602960248201527f4552433732313a206f776e657220717565727920666f72206e6f6e657869737460448201527f656e7420746f6b656e000000000000000000000000000000000000000000000060648201526084016107de565b33611309838261229a565b61131381836123df565b61093181836123e9565b60006001600160a01b03821661139b5760405162461bcd60e51b815260206004820152602a60248201527f4552433732313a2062616c616e636520717565727920666f7220746865207a6560448201527f726f20616464726573730000000000000000000000000000000000000000000060648201526084016107de565b506001600160a01b03166000908152610162602052604090205490565b60008281526101c3602052604081206113d19083612471565b9392505050565b60008281526101c3602052604081206113d19083612493565b606061016080546106e590613824565b6001600160a01b03821633141561145a5760405162461bcd60e51b815260206004820152601960248201527f4552433732313a20617070726f766520746f2063616c6c65720000000000000060448201526064016107de565b336000818152610164602090815260408083206001600160a01b03871680855290835292819020805460ff191686151590811790915590519081529192917f17307eab39ab6107e8899845ad3d59bd9653f200f220920489ca2b5937696c31910160405180910390a35050565b60608167ffffffffffffffff8111156114e2576114e26138fc565b60405190808252806020026020018201604052801561151557816020015b60608152602001906001900390816115005790505b50905060005b828110156115b55761158530858584818110611539576115396138e6565b905060200281019061154b919061376e565b8080601f01602080910402602001604051908101604052809392919081815260200183838082843760009201919091525061249f92505050565b828281518110611597576115976138e6565b602002602001018190525080806115ad9061385f565b91505061151b565b5092915050565b6115c63383611c09565b6116385760405162461bcd60e51b815260206004820152603160248201527f4552433732313a207472616e736665722063616c6c6572206973206e6f74206f60448201527f776e6572206e6f7220617070726f76656400000000000000000000000000000060648201526084016107de565b610b84848484846124c4565b60006116508133611ed2565b61165b578033610b35565b606580546001600160a01b0319166001600160a01b0384169081179091556040517f7aed1d3e8155a07ccf395e44ea3109a0e2d6c9b29bbbe9f142d9790596f4dc8090600090a25050565b600081815261016160205260409020546060906001600160a01b03166117345760405162461bcd60e51b815260206004820152602f60248201527f4552433732314d657461646174613a2055524920717565727920666f72206e6f60448201527f6e6578697374656e7420746f6b656e000000000000000000000000000000000060648201526084016107de565b600061174b60408051602081019091526000815290565b9050600081511161176b57604051806020016040528060008152506113d1565b806117758461254d565b604051602001611786929190613638565b6040516020818303038152906040529392505050565b60006117a88133611ed2565b6117b3578033610b35565b603380546001600160a01b0319166001600160a01b0384169081179091556040517fa5bc17e575e3b53b23d0e93e121a5a66d1de4d5edb4dfde6027b14d79b7f2b9c90600090a25050565b60008181526101c3602052604081206106cf9061267f565b60008181526101636020526040902080546001600160a01b0319166001600160a01b038416908117909155819061184c82611272565b6001600160a01b03167f8c5be1e5ebec7d5bd14f71427d1e84f3dd0314c0f7b2291e5b200ac8c7c3b92560405160405180910390a45050565b600054610100900460ff168061189e575060005460ff16155b6119015760405162461bcd60e51b815260206004820152602e60248201527f496e697469616c697a61626c653a20636f6e747261637420697320616c72656160448201526d191e481a5b9a5d1a585b1a5e995960921b60648201526084016107de565b600054610100900460ff16158015611923576000805461ffff19166101011790555b603380546001600160a01b0319166001600160a01b0384169081179091556040517fa5bc17e575e3b53b23d0e93e121a5a66d1de4d5edb4dfde6027b14d79b7f2b9c90600090a28015610e6e576000805461ff00191690555050565b600054610100900460ff1680611998575060005460ff16155b6119fb5760405162461bcd60e51b815260206004820152602e60248201527f496e697469616c697a61626c653a20636f6e747261637420697320616c72656160448201526d191e481a5b9a5d1a585b1a5e995960921b60648201526084016107de565b600054610100900460ff16158015611a1d576000805461ffff19166101011790555b606580546001600160a01b0319166001600160a01b0384169081179091556040517f7aed1d3e8155a07ccf395e44ea3109a0e2d6c9b29bbbe9f142d9790596f4dc8090600090a28015610e6e576000805461ff00191690555050565b600054610100900460ff1680611a92575060005460ff16155b611af55760405162461bcd60e51b815260206004820152602e60248201527f496e697469616c697a61626c653a20636f6e747261637420697320616c72656160448201526d191e481a5b9a5d1a585b1a5e995960921b60648201526084016107de565b600054610100900460ff16158015611b17576000805461ffff19166101011790555b611b1f612689565b611b27612689565b8015610d03576000805461ff001916905550565b600054610100900460ff1680611b54575060005460ff16155b611bb75760405162461bcd60e51b815260206004820152602e60248201527f496e697469616c697a61626c653a20636f6e747261637420697320616c72656160448201526d191e481a5b9a5d1a585b1a5e995960921b60648201526084016107de565b600054610100900460ff16158015611bd9576000805461ffff19166101011790555b611be1612689565b611be9612689565b611bf3838361273a565b8015610931576000805461ff0019169055505050565b600081815261016160205260408120546001600160a01b0316611c835760405162461bcd60e51b815260206004820152602c60248201527f4552433732313a206f70657261746f7220717565727920666f72206e6f6e657860448201526b34b9ba32b73a103a37b5b2b760a11b60648201526084016107de565b6000611c8e83611272565b9050806001600160a01b0316846001600160a01b03161480611cc95750836001600160a01b0316611cbe84610768565b6001600160a01b0316145b80611cfa57506001600160a01b038082166000908152610164602090815260408083209388168352929052205460ff165b949350505050565b826001600160a01b0316611d1582611272565b6001600160a01b031614611d915760405162461bcd60e51b815260206004820152602960248201527f4552433732313a207472616e73666572206f6620746f6b656e2074686174206960448201527f73206e6f74206f776e000000000000000000000000000000000000000000000060648201526084016107de565b6001600160a01b038216611e0c5760405162461bcd60e51b8152602060048201526024808201527f4552433732313a207472616e7366657220746f20746865207a65726f2061646460448201527f726573730000000000000000000000000000000000000000000000000000000060648201526084016107de565b611e17600082611816565b6001600160a01b038316600090815261016260205260408120805460019290611e419084906137e1565b90915550506001600160a01b038216600090815261016260205260408120805460019290611e709084906137b5565b90915550506000818152610161602052604080822080546001600160a01b0319166001600160a01b0386811691821790925591518493918716917fddf252ad1be2c89b69c2b068fc378daa952ba7f163c4a11628f55a4df523b3ef91a4505050565b6033546040517f91d14854000000000000000000000000000000000000000000000000000000008152600481018490526001600160a01b03838116602483015260009216906391d148549060440160206040518083038186803b158015611f3857600080fd5b505afa158015611f4c573d6000803e3d6000fd5b505050506040513d601f19601f820116820180604052508101906113d1919061348e565b6040517f02571be30000000000000000000000000000000000000000000000000000000081527f91d1777781884d03a6757a803996e38de2a42967fb37eeaca72729271025a9e260048201526001600160a01b038416906302571be39060240160206040518083038186803b158015611fe857600080fd5b505afa158015611ffc573d6000803e3d6000fd5b505050506040513d601f19601f820116820180604052508101906120209190613182565b6001600160a01b031663c47f002783836040518363ffffffff1660e01b815260040161204d92919061373f565b602060405180830381600087803b15801561206757600080fd5b505af115801561207b573d6000803e3d6000fd5b505050506040513d601f19601f82011682018060405250810190610b8491906134ab565b7f189ab7a9244df0848122154315af71fe140f3db0fe014031783b0946b8c9d2e36120ca8133611ed2565b610e6e578033610b35565b60006121087f360894a13ba1a3210667c828492db98dca3e2076cc3735a920a3ca505d382bbc546001600160a01b031690565b905061211384612818565b6000835111806121205750815b156121315761212f84846128cd565b505b7f4910fdfa16fed3260ed0e7147f7cc6da11a60208b5b9406d12a635614ffd9143805460ff1661227d57805460ff191660011781556040516001600160a01b03831660248201526121c990869060440160408051601f198184030181529190526020810180516001600160e01b03167f3659cfe6000000000000000000000000000000000000000000000000000000001790526128cd565b50805460ff191681557f360894a13ba1a3210667c828492db98dca3e2076cc3735a920a3ca505d382bbc546001600160a01b038381169116146122745760405162461bcd60e51b815260206004820152602f60248201527f45524331393637557067726164653a207570677261646520627265616b73206660448201527f757274686572207570677261646573000000000000000000000000000000000060648201526084016107de565b61227d856129b8565b5050505050565b61228f8383836129f8565b610931838383612a84565b6001600160a01b0382166122f05760405162461bcd60e51b815260206004820181905260248201527f4552433732313a206d696e7420746f20746865207a65726f206164647265737360448201526064016107de565b600081815261016160205260409020546001600160a01b0316156123565760405162461bcd60e51b815260206004820152601c60248201527f4552433732313a20746f6b656e20616c7265616479206d696e7465640000000060448201526064016107de565b6001600160a01b0382166000908152610162602052604081208054600192906123809084906137b5565b90915550506000818152610161602052604080822080546001600160a01b0319166001600160a01b03861690811790915590518392907fddf252ad1be2c89b69c2b068fc378daa952ba7f163c4a11628f55a4df523b3ef908290a45050565b610e6e8282612ae2565b610e6e826040516024016123ff91815260200190565b60408051601f198184030181529190526020810180516001600160e01b03167f56861b9400000000000000000000000000000000000000000000000000000000179052612b0e565b60006113d1836001600160a01b038416612b9a565b60006113d1836001600160a01b038416612be9565b6001600160a01b038116600090815260018301602052604081205415156113d1565b60006113d18383612cdc565b60606113d1838360405180606001604052806027815260200161394c60279139612d06565b6124cf848484611d02565b6124db84848484612dda565b610b845760405162461bcd60e51b815260206004820152603260248201527f4552433732313a207472616e7366657220746f206e6f6e20455243373231526560448201527f63656976657220696d706c656d656e746572000000000000000000000000000060648201526084016107de565b60608161258d57505060408051808201909152600181527f3000000000000000000000000000000000000000000000000000000000000000602082015290565b8160005b81156125b757806125a18161385f565b91506125b09050600a836137cd565b9150612591565b60008167ffffffffffffffff8111156125d2576125d26138fc565b6040519080825280601f01601f1916602001820160405280156125fc576020820181803683370190505b5090505b8415611cfa576126116001836137e1565b915061261e600a8661387a565b6126299060306137b5565b60f81b81838151811061263e5761263e6138e6565b60200101907effffffffffffffffffffffffffffffffffffffffffffffffffffffffffffff1916908160001a905350612678600a866137cd565b9450612600565b60006106cf825490565b600054610100900460ff16806126a2575060005460ff16155b6127055760405162461bcd60e51b815260206004820152602e60248201527f496e697469616c697a61626c653a20636f6e747261637420697320616c72656160448201526d191e481a5b9a5d1a585b1a5e995960921b60648201526084016107de565b600054610100900460ff16158015611b27576000805461ffff19166101011790558015610d03576000805461ff001916905550565b600054610100900460ff1680612753575060005460ff16155b6127b65760405162461bcd60e51b815260206004820152602e60248201527f496e697469616c697a61626c653a20636f6e747261637420697320616c72656160448201526d191e481a5b9a5d1a585b1a5e995960921b60648201526084016107de565b600054610100900460ff161580156127d8576000805461ffff19166101011790555b82516127ec9061015f906020860190612ff6565b50815161280190610160906020850190612ff6565b508015610931576000805461ff0019169055505050565b803b61288c5760405162461bcd60e51b815260206004820152602d60248201527f455243313936373a206e657720696d706c656d656e746174696f6e206973206e60448201527f6f74206120636f6e74726163740000000000000000000000000000000000000060648201526084016107de565b7f360894a13ba1a3210667c828492db98dca3e2076cc3735a920a3ca505d382bbc80546001600160a01b0319166001600160a01b0392909216919091179055565b6060823b61292c5760405162461bcd60e51b815260206004820152602660248201527f416464726573733a2064656c65676174652063616c6c20746f206e6f6e2d636f6044820152651b9d1c9858dd60d21b60648201526084016107de565b600080846001600160a01b031684604051612947919061361c565b600060405180830381855af49150503d8060008114612982576040519150601f19603f3d011682016040523d82523d6000602084013e612987565b606091505b50915091506129af828260405180606001604052806027815260200161394c60279139612f3d565b95945050505050565b6129c181612818565b6040516001600160a01b038216907fbc7cd75a20ee27fd9adebab32041f755214dbc6bffa90cc0225b39da2e5c2d3b90600090a250565b612a27826004811115612a0d57612a0d6138ba565b60008581526101f5602052604090209060ff168315612f76565b60008381526101f560209081526040808320838052909152902054151515837fcde09e0ec4a155a87ef3eb8c971163d71fa1a87d4916cebef6ae4c9d296b25d48484604051612a7792919061370e565b60405180910390a3505050565b61093183604051602401612a9a91815260200190565b60408051601f198184030181529190526020810180516001600160e01b03167f4ba50cc600000000000000000000000000000000000000000000000000000000179052612b0e565b612aec8282612fc5565b6040805160208082018352928152600093845261022790925290912090519055565b6065546001600160a01b031615610d03576065546040517f3fa222c40000000000000000000000000000000000000000000000000000000081526001600160a01b0390911690633fa222c490612b689084906004016136fb565b600060405180830381600087803b158015612b8257600080fd5b505af1925050508015612b93575060015b610d035750565b6000818152600183016020526040812054612be1575081546001818101845560008481526020808220909301849055845484825282860190935260409020919091556106cf565b5060006106cf565b60008181526001830160205260408120548015612cd2576000612c0d6001836137e1565b8554909150600090612c21906001906137e1565b9050818114612c86576000866000018281548110612c4157612c416138e6565b9060005260206000200154905080876000018481548110612c6457612c646138e6565b6000918252602080832090910192909255918252600188019052604090208390555b8554869080612c9757612c976138d0565b6001900381819060005260206000200160009055905585600101600086815260200190815260200160002060009055600193505050506106cf565b60009150506106cf565b6000826000018281548110612cf357612cf36138e6565b9060005260206000200154905092915050565b6060833b612d655760405162461bcd60e51b815260206004820152602660248201527f416464726573733a2064656c65676174652063616c6c20746f206e6f6e2d636f6044820152651b9d1c9858dd60d21b60648201526084016107de565b600080856001600160a01b031685604051612d80919061361c565b600060405180830381855af49150503d8060008114612dbb576040519150601f19603f3d011682016040523d82523d6000602084013e612dc0565b606091505b5091509150612dd0828286612f3d565b9695505050505050565b60006001600160a01b0384163b15612f3257604051630a85bd0160e11b81526001600160a01b0385169063150b7a0290612e1e903390899088908890600401613667565b602060405180830381600087803b158015612e3857600080fd5b505af1925050508015612e68575060408051601f3d908101601f19168201909252612e65918101906134e1565b60015b612f18573d808015612e96576040519150601f19603f3d011682016040523d82523d6000602084013e612e9b565b606091505b508051612f105760405162461bcd60e51b815260206004820152603260248201527f4552433732313a207472616e7366657220746f206e6f6e20455243373231526560448201527f63656976657220696d706c656d656e746572000000000000000000000000000060648201526084016107de565b805181602001fd5b6001600160e01b031916630a85bd0160e11b149050611cfa565b506001949350505050565b60608315612f4c5750816113d1565b825115612f5c5782518084602001fd5b8160405162461bcd60e51b81526004016107de91906136fb565b8015612fa057600882901c60009081526020849052604090208054600160ff85161b179055505050565b600882901c60009081526020849052604090208054600160ff85161b19169055505050565b604051819083907faf19b168e3418773944250fdf6275926fa5bcca3904dd10a3f4caa34d52a8cfd90600090a35050565b82805461300290613824565b90600052602060002090601f016020900481019282613024576000855561306a565b82601f1061303d57805160ff191683800117855561306a565b8280016001018555821561306a579182015b8281111561306a57825182559160200191906001019061304f565b5061307692915061307a565b5090565b5b80821115613076576000815560010161307b565b600082601f8301126130a057600080fd5b813567ffffffffffffffff808211156130bb576130bb6138fc565b604051601f8301601f19908116603f011681019082821181831017156130e3576130e36138fc565b816040528381528660208588010111156130fc57600080fd5b836020870160208301376000602085830101528094505050505092915050565b60008083601f84011261312e57600080fd5b50813567ffffffffffffffff81111561314657600080fd5b60208301915083602082850101111561315e57600080fd5b9250929050565b60006020828403121561317757600080fd5b81356113d181613912565b60006020828403121561319457600080fd5b81516113d181613912565b600080604083850312156131b257600080fd5b82356131bd81613912565b915060208301356131cd81613912565b809150509250929050565b600080600080600080608087890312156131f157600080fd5b86356131fc81613912565b9550602087013561320c81613912565b9450604087013567ffffffffffffffff8082111561322957600080fd5b6132358a838b0161311c565b9096509450606089013591508082111561324e57600080fd5b5061325b89828a0161311c565b979a9699509497509295939492505050565b60008060006060848603121561328257600080fd5b833561328d81613912565b9250602084013561329d81613912565b929592945050506040919091013590565b600080600080608085870312156132c457600080fd5b84356132cf81613912565b935060208501356132df81613912565b925060408501359150606085013567ffffffffffffffff81111561330257600080fd5b61330e8782880161308f565b91505092959194509250565b6000806040838503121561332d57600080fd5b823561333881613912565b915060208301356131cd81613927565b6000806040838503121561335b57600080fd5b823561336681613912565b9150602083013567ffffffffffffffff81111561338257600080fd5b61338e8582860161308f565b9150509250929050565b6000806000604084860312156133ad57600080fd5b83356133b881613912565b9250602084013567ffffffffffffffff8111156133d457600080fd5b6133e08682870161311c565b9497909650939450505050565b6000806040838503121561340057600080fd5b823561340b81613912565b946020939093013593505050565b6000806020838503121561342c57600080fd5b823567ffffffffffffffff8082111561344457600080fd5b818501915085601f83011261345857600080fd5b81358181111561346757600080fd5b8660208260051b850101111561347c57600080fd5b60209290920196919550909350505050565b6000602082840312156134a057600080fd5b81516113d181613927565b6000602082840312156134bd57600080fd5b5051919050565b6000602082840312156134d657600080fd5b81356113d181613935565b6000602082840312156134f357600080fd5b81516113d181613935565b60006020828403121561351057600080fd5b5035919050565b6000806040838503121561352a57600080fd5b8235915060208301356131cd81613912565b60008060006060848603121561355157600080fd5b83359250602084013561356381613912565b9150604084013561357381613927565b809150509250925092565b60008060006060848603121561359357600080fd5b83359250602084013561329d81613912565b600080604083850312156135b857600080fd5b823591506020830135600581106131cd57600080fd5b600080604083850312156135e157600080fd5b50508035926020909101359150565b600081518084526136088160208601602086016137f8565b601f01601f19169290920160200192915050565b6000825161362e8184602087016137f8565b9190910192915050565b6000835161364a8184602088016137f8565b83519083019061365e8183602088016137f8565b01949350505050565b60006001600160a01b03808716835280861660208401525083604083015260806060830152612dd060808301846135f0565b6000602080830181845280855180835260408601915060408160051b870101925083870160005b828110156136ee57603f198886030184526136dc8583516135f0565b945092850192908501906001016136c0565b5092979650505050505050565b6020815260006113d160208301846135f0565b604081016005841061373057634e487b7160e01b600052602160045260246000fd5b92815290151560209091015290565b60208152816020820152818360408301376000818301604090810191909152601f909201601f19160101919050565b6000808335601e1984360301811261378557600080fd5b83018035915067ffffffffffffffff8211156137a057600080fd5b60200191503681900382131561315e57600080fd5b600082198211156137c8576137c861388e565b500190565b6000826137dc576137dc6138a4565b500490565b6000828210156137f3576137f361388e565b500390565b60005b838110156138135781810151838201526020016137fb565b83811115610b845750506000910152565b600181811c9082168061383857607f821691505b6020821081141561385957634e487b7160e01b600052602260045260246000fd5b50919050565b60006000198214156138735761387361388e565b5060010190565b600082613889576138896138a4565b500690565b634e487b7160e01b600052601160045260246000fd5b634e487b7160e01b600052601260045260246000fd5b634e487b7160e01b600052602160045260246000fd5b634e487b7160e01b600052603160045260246000fd5b634e487b7160e01b600052603260045260246000fd5b634e487b7160e01b600052604160045260246000fd5b6001600160a01b0381168114610d0357600080fd5b8015158114610d0357600080fd5b6001600160e01b031981168114610d0357600080fdfe416464726573733a206c6f772d6c6576656c2064656c65676174652063616c6c206661696c6564a264697066735822122015c625a8d341591b6ff911b1a678dc23690997d06a43338a9abd1cfff1a791a564736f6c63430008070033",
  "linkReferences": {},
  "deployedLinkReferences": {}
}